{
  "_format": "hh-sol-artifact-1",
  "contractName": "BeforeSwapDeltaLibrary",
  "sourceName": "@uniswap/v4-core/src/types/BeforeSwapDelta.sol",
  "abi": [
    {
      "inputs": [],
      "name": "ZERO_DELTA",
      "outputs": [
        {
          "internalType": "BeforeSwapDelta",
          "name": "",
          "type": "int256"
        }
      ],
      "stateMutability": "view",
      "type": "function"
    }
  ],
  "bytecode": "0x60876037600b82828239805160001a607314602a57634e487b7160e01b600052600060045260246000fd5b30600052607381538281f3fe730000000000000000000000000000000000000000301460806040526004361060335760003560e01c806391cb4669146038575b600080fd5b603f600081565b60405190815260200160405180910390f3fea26469706673582212200db7691d689fb26bf46d300bde45c562d74fb3a80a74edc7f5f3531bd2f5f7e864736f6c634300081a0033",
  "linkReferences": {},
  "deployedLinkReferences": {}
}