{
  "_format": "hh-sol-artifact-1",
  "contractName": "RentalVault",
  "sourceName": "contracts/src/RentalVault.sol",
  "abi": [
    {
      "inputs": [],
      "stateMutability": "nonpayable",
      "type": "constructor"
    },
    {
      "inputs": [],
      "name": "AlreadyListed",
      "type": "error"
    },
    {
      "inputs": [],
      "name": "EnforcedPause",
      "type": "error"
    },
    {
      "inputs": [],
      "name": "ExpectedPause",
      "type": "error"
    },
    {
      "inputs": [],
      "name": "InvalidDuration",
      "type": "error"
    },
    {
      "inputs": [],
      "name": "InvalidPrice",
      "type": "error"
    },
    {
      "inputs": [],
      "name": "NotListed",
      "type": "error"
    },
    {
      "inputs": [
        {
          "internalType": "address",
          "name": "owner",
          "type": "address"
        }
      ],
      "name": "OwnableInvalidOwner",
      "type": "error"
    },
    {
      "inputs": [
        {
          "internalType": "address",
          "name": "account",
          "type": "address"
        }
      ],
      "name": "OwnableUnauthorizedAccount",
      "type": "error"
    },
    {
      "inputs": [],
      "name": "PositionIsLocked",
      "type": "error"
    },
    {
      "inputs": [],
      "name": "PositionNotFound",
      "type": "error"
    },
    {
      "inputs": [],
      "name": "ReentrancyGuardReentrantCall",
      "type": "error"
    },
    {
      "inputs": [],
      "name": "Unauthorized",
      "type": "error"
    },
    {
      "inputs": [],
      "name": "ZeroAddress",
      "type": "error"
    },
    {
      "anonymous": false,
      "inputs": [
        {
          "indexed": true,
          "internalType": "address",
          "name": "previousOwner",
          "type": "address"
        },
        {
          "indexed": true,
          "internalType": "address",
          "name": "newOwner",
          "type": "address"
        }
      ],
      "name": "OwnershipTransferred",
      "type": "event"
    },
    {
      "anonymous": false,
      "inputs": [
        {
          "indexed": false,
          "internalType": "address",
          "name": "account",
          "type": "address"
        }
      ],
      "name": "Paused",
      "type": "event"
    },
    {
      "anonymous": false,
      "inputs": [
        {
          "indexed": true,
          "internalType": "bytes32",
          "name": "positionId",
          "type": "bytes32"
        },
        {
          "indexed": true,
          "internalType": "address",
          "name": "owner",
          "type": "address"
        },
        {
          "indexed": false,
          "internalType": "address",
          "name": "nftContract",
          "type": "address"
        },
        {
          "indexed": false,
          "internalType": "uint256",
          "name": "tokenId",
          "type": "uint256"
        }
      ],
      "name": "PositionDeposited",
      "type": "event"
    },
    {
      "anonymous": false,
      "inputs": [
        {
          "indexed": true,
          "internalType": "bytes32",
          "name": "positionId",
          "type": "bytes32"
        },
        {
          "indexed": false,
          "internalType": "uint256",
          "name": "pricePerSecond",
          "type": "uint256"
        },
        {
          "indexed": false,
          "internalType": "uint256",
          "name": "minDuration",
          "type": "uint256"
        },
        {
          "indexed": false,
          "internalType": "uint256",
          "name": "maxDuration",
          "type": "uint256"
        }
      ],
      "name": "PositionListed",
      "type": "event"
    },
    {
      "anonymous": false,
      "inputs": [
        {
          "indexed": true,
          "internalType": "bytes32",
          "name": "positionId",
          "type": "bytes32"
        }
      ],
      "name": "PositionLocked",
      "type": "event"
    },
    {
      "anonymous": false,
      "inputs": [
        {
          "indexed": true,
          "internalType": "bytes32",
          "name": "positionId",
          "type": "bytes32"
        }
      ],
      "name": "PositionUnlisted",
      "type": "event"
    },
    {
      "anonymous": false,
      "inputs": [
        {
          "indexed": true,
          "internalType": "bytes32",
          "name": "positionId",
          "type": "bytes32"
        }
      ],
      "name": "PositionUnlocked",
      "type": "event"
    },
    {
      "anonymous": false,
      "inputs": [
        {
          "indexed": true,
          "internalType": "bytes32",
          "name": "positionId",
          "type": "bytes32"
        },
        {
          "indexed": true,
          "internalType": "address",
          "name": "owner",
          "type": "address"
        }
      ],
      "name": "PositionWithdrawn",
      "type": "event"
    },
    {
      "anonymous": false,
      "inputs": [
        {
          "indexed": false,
          "internalType": "address",
          "name": "account",
          "type": "address"
        }
      ],
      "name": "Unpaused",
      "type": "event"
    },
    {
      "inputs": [
        {
          "internalType": "address",
          "name": "nftContract",
          "type": "address"
        },
        {
          "internalType": "uint256",
          "name": "tokenId",
          "type": "uint256"
        }
      ],
      "name": "depositPosition",
      "outputs": [
        {
          "internalType": "bytes32",
          "name": "positionId",
          "type": "bytes32"
        }
      ],
      "stateMutability": "nonpayable",
      "type": "function"
    },
    {
      "inputs": [
        {
          "internalType": "address",
          "name": "owner",
          "type": "address"
        }
      ],
      "name": "getOwnerPositions",
      "outputs": [
        {
          "internalType": "bytes32[]",
          "name": "",
          "type": "bytes32[]"
        }
      ],
      "stateMutability": "view",
      "type": "function"
    },
    {
      "inputs": [
        {
          "internalType": "bytes32",
          "name": "positionId",
          "type": "bytes32"
        }
      ],
      "name": "getPosition",
      "outputs": [
        {
          "components": [
            {
              "internalType": "address",
              "name": "owner",
              "type": "address"
            },
            {
              "internalType": "address",
              "name": "nftContract",
              "type": "address"
            },
            {
              "internalType": "uint256",
              "name": "tokenId",
              "type": "uint256"
            },
            {
              "internalType": "uint256",
              "name": "pricePerSecond",
              "type": "uint256"
            },
            {
              "internalType": "bool",
              "name": "isListed",
              "type": "bool"
            },
            {
              "internalType": "bool",
              "name": "isLocked",
              "type": "bool"
            },
            {
              "internalType": "uint256",
              "name": "minRentalDuration",
              "type": "uint256"
            },
            {
              "internalType": "uint256",
              "name": "maxRentalDuration",
              "type": "uint256"
            }
          ],
          "internalType": "struct RentalVault.Position",
          "name": "",
          "type": "tuple"
        }
      ],
      "stateMutability": "view",
      "type": "function"
    },
    {
      "inputs": [
        {
          "internalType": "bytes32",
          "name": "positionId",
          "type": "bytes32"
        },
        {
          "internalType": "uint256",
          "name": "pricePerSecond",
          "type": "uint256"
        },
        {
          "internalType": "uint256",
          "name": "minDuration",
          "type": "uint256"
        },
        {
          "internalType": "uint256",
          "name": "maxDuration",
          "type": "uint256"
        }
      ],
      "name": "listPosition",
      "outputs": [],
      "stateMutability": "nonpayable",
      "type": "function"
    },
    {
      "inputs": [
        {
          "internalType": "bytes32",
          "name": "positionId",
          "type": "bytes32"
        }
      ],
      "name": "lockPosition",
      "outputs": [],
      "stateMutability": "nonpayable",
      "type": "function"
    },
    {
      "inputs": [
        {
          "internalType": "address",
          "name": "",
          "type": "address"
        },
        {
          "internalType": "address",
          "name": "",
          "type": "address"
        },
        {
          "internalType": "uint256",
          "name": "",
          "type": "uint256"
        },
        {
          "internalType": "bytes",
          "name": "",
          "type": "bytes"
        }
      ],
      "name": "onERC721Received",
      "outputs": [
        {
          "internalType": "bytes4",
          "name": "",
          "type": "bytes4"
        }
      ],
      "stateMutability": "pure",
      "type": "function"
    },
    {
      "inputs": [],
      "name": "owner",
      "outputs": [
        {
          "internalType": "address",
          "name": "",
          "type": "address"
        }
      ],
      "stateMutability": "view",
      "type": "function"
    },
    {
      "inputs": [],
      "name": "pause",
      "outputs": [],
      "stateMutability": "nonpayable",
      "type": "function"
    },
    {
      "inputs": [],
      "name": "paused",
      "outputs": [
        {
          "internalType": "bool",
          "name": "",
          "type": "bool"
        }
      ],
      "stateMutability": "view",
      "type": "function"
    },
    {
      "inputs": [
        {
          "internalType": "bytes32",
          "name": "",
          "type": "bytes32"
        }
      ],
      "name": "positions",
      "outputs": [
        {
          "internalType": "address",
          "name": "owner",
          "type": "address"
        },
        {
          "internalType": "address",
          "name": "nftContract",
          "type": "address"
        },
        {
          "internalType": "uint256",
          "name": "tokenId",
          "type": "uint256"
        },
        {
          "internalType": "uint256",
          "name": "pricePerSecond",
          "type": "uint256"
        },
        {
          "internalType": "bool",
          "name": "isListed",
          "type": "bool"
        },
        {
          "internalType": "bool",
          "name": "isLocked",
          "type": "bool"
        },
        {
          "internalType": "uint256",
          "name": "minRentalDuration",
          "type": "uint256"
        },
        {
          "internalType": "uint256",
          "name": "maxRentalDuration",
          "type": "uint256"
        }
      ],
      "stateMutability": "view",
      "type": "function"
    },
    {
      "inputs": [],
      "name": "renounceOwnership",
      "outputs": [],
      "stateMutability": "nonpayable",
      "type": "function"
    },
    {
      "inputs": [],
      "name": "totalPositions",
      "outputs": [
        {
          "internalType": "uint256",
          "name": "",
          "type": "uint256"
        }
      ],
      "stateMutability": "view",
      "type": "function"
    },
    {
      "inputs": [
        {
          "internalType": "address",
          "name": "newOwner",
          "type": "address"
        }
      ],
      "name": "transferOwnership",
      "outputs": [],
      "stateMutability": "nonpayable",
      "type": "function"
    },
    {
      "inputs": [
        {
          "internalType": "bytes32",
          "name": "positionId",
          "type": "bytes32"
        }
      ],
      "name": "unlistPosition",
      "outputs": [],
      "stateMutability": "nonpayable",
      "type": "function"
    },
    {
      "inputs": [
        {
          "internalType": "bytes32",
          "name": "positionId",
          "type": "bytes32"
        }
      ],
      "name": "unlockPosition",
      "outputs": [],
      "stateMutability": "nonpayable",
      "type": "function"
    },
    {
      "inputs": [],
      "name": "unpause",
      "outputs": [],
      "stateMutability": "nonpayable",
      "type": "function"
    },
    {
      "inputs": [
        {
          "internalType": "bytes32",
          "name": "positionId",
          "type": "bytes32"
        }
      ],
      "name": "withdrawPosition",
      "outputs": [],
      "stateMutability": "nonpayable",
      "type": "function"
    }
  ],
  "bytecode": "0x608060405234801561001057600080fd5b50338061003757604051631e4fbdf760e01b81526000600482015260240160405180910390fd5b6100408161004a565b506001805561009a565b600080546001600160a01b038381166001600160a01b0319831681178455604051919092169283917f8be0079c531659141344cd1fd0a4f28419497f9722a3daafe3b4186f6b6457e09190a35050565b6116ca806100a96000396000f3fe608060405234801561001057600080fd5b506004361061011b5760003560e01c8063715018a6116100b2578063cae45ed611610081578063f4d5ab0b11610066578063f4d5ab0b146103cd578063fda1fa5f146103e0578063ffcb09b4146103e957600080fd5b8063cae45ed6146103a7578063f2fde38b146103ba57600080fd5b8063715018a61461034f5780638456cb5914610357578063845e12591461035f5780638da5cb5b1461037f57600080fd5b80633f4ba83a116100ee5780633f4ba83a14610256578063514ea4bf1461025e5780635c975abb14610326578063677e79ea1461033c57600080fd5b8063150b7a021461012057806318ec47c41461018e5780631928b3cb146101af5780633baded2014610241575b600080fd5b61015861012e366004611411565b7f150b7a020000000000000000000000000000000000000000000000000000000095945050505050565b6040517fffffffff0000000000000000000000000000000000000000000000000000000090911681526020015b60405180910390f35b6101a161019c3660046114ac565b6103fc565b604051908152602001610185565b6101c26101bd3660046114d6565b6107b6565b604051610185919060006101008201905073ffffffffffffffffffffffffffffffffffffffff80845116835280602085015116602084015250604083015160408301526060830151606083015260808301511515608083015260a0830151151560a083015260c083015160c083015260e083015160e083015292915050565b61025461024f3660046114ef565b6108be565b005b610254610ab8565b6102cf61026c3660046114d6565b6003602081905260009182526040909120805460018201546002830154938301546004840154600585015460069095015473ffffffffffffffffffffffffffffffffffffffff948516969490931694919260ff8083169361010090930416919088565b6040805173ffffffffffffffffffffffffffffffffffffffff998a16815298909716602089015295870194909452606086019290925215156080850152151560a084015260c083015260e082015261010001610185565b60025460ff166040519015158152602001610185565b61025461034a3660046114d6565b610aca565b610254610b87565b610254610b99565b61037261036d366004611521565b610ba9565b6040516101859190611543565b60005460405173ffffffffffffffffffffffffffffffffffffffff9091168152602001610185565b6102546103b53660046114d6565b610c22565b6102546103c8366004611521565b610ce3565b6102546103db3660046114d6565b610d4c565b6101a160055481565b6102546103f73660046114d6565b610e93565b60006104066110b1565b61040e6110f4565b73ffffffffffffffffffffffffffffffffffffffff831661045b576040517fd92e233d00000000000000000000000000000000000000000000000000000000815260040160405180910390fd5b6040517f42842e0e0000000000000000000000000000000000000000000000000000000081523360048201523060248201526044810183905273ffffffffffffffffffffffffffffffffffffffff8416906342842e0e90606401600060405180830381600087803b1580156104cf57600080fd5b505af11580156104e3573d6000803e3d6000fd5b50506005546040517fffffffffffffffffffffffffffffffffffffffff00000000000000000000000033606090811b8216602084015288901b16603482015260488101869052426068820152608881019190915260a80191506105439050565b6040516020818303038152906040528051906020012090506040518061010001604052803373ffffffffffffffffffffffffffffffffffffffff1681526020018473ffffffffffffffffffffffffffffffffffffffff168152602001838152602001600081526020016000151581526020016000151581526020016000815260200160008152506003600083815260200190815260200160002060008201518160000160006101000a81548173ffffffffffffffffffffffffffffffffffffffff021916908373ffffffffffffffffffffffffffffffffffffffff16021790555060208201518160010160006101000a81548173ffffffffffffffffffffffffffffffffffffffff021916908373ffffffffffffffffffffffffffffffffffffffff160217905550604082015181600201556060820151816003015560808201518160040160006101000a81548160ff02191690831515021790555060a08201518160040160016101000a81548160ff02191690831515021790555060c0820151816005015560e08201518160060155905050600460003373ffffffffffffffffffffffffffffffffffffffff1673ffffffffffffffffffffffffffffffffffffffff1681526020019081526020016000208190806001815401808255809150506001900390600052602060002001600090919091909150556005600081548092919061074f906115b6565b90915550506040805173ffffffffffffffffffffffffffffffffffffffff8516815260208101849052339183917fb2107f3d0e60e06aed3e19367ea31f6fbd0386eaf5ecf1c36949f04599496256910160405180910390a36107b060018055565b92915050565b6040805161010081018252600080825260208201819052918101829052606081018290526080810182905260a0810182905260c0810182905260e081019190915260008281526003602081815260409283902083516101008082018652825473ffffffffffffffffffffffffffffffffffffffff908116808452600185015490911694830194909452600283015495820195909552928101546060840152600481015460ff80821615156080860152949004909316151560a0830152600583015460c083015260069092015460e0820152906107b0576040517f6ec9be1100000000000000000000000000000000000000000000000000000000815260040160405180910390fd5b6108c66110b1565b6000848152600360205260409020805473ffffffffffffffffffffffffffffffffffffffff163314610924576040517f82b4290000000000000000000000000000000000000000000000000000000000815260040160405180910390fd5b6004810154610100900460ff1615610968576040517fbdc9917100000000000000000000000000000000000000000000000000000000815260040160405180910390fd5b600481015460ff16156109a7576040517fa3d582ec00000000000000000000000000000000000000000000000000000000815260040160405180910390fd5b836000036109e0576040517ebfc92100000000000000000000000000000000000000000000000000000000815260040160405180910390fd5b8215806109ec57508282105b15610a23576040517f7616640100000000000000000000000000000000000000000000000000000000815260040160405180910390fd5b6003810184905560058101839055600681018290556004810180547fffffffffffffffffffffffffffffffffffffffffffffffffffffffffffffff00166001179055604080518581526020810185905290810183905285907fc99d8d42348448cec71a42d15c5dd83f4b7faaf44f54b02606cf4001a9c34e779060600160405180910390a250610ab260018055565b50505050565b610ac0611131565b610ac8611184565b565b610ad2611131565b6000818152600360205260409020805473ffffffffffffffffffffffffffffffffffffffff16610b2e576040517f6ec9be1100000000000000000000000000000000000000000000000000000000815260040160405180910390fd5b6004810180547fffffffffffffffffffffffffffffffffffffffffffffffffffffffffffff00ff16905560405182907f09a6a24228c1b2dd32be64c4bd404bd970c25e0c0ce94a57abc12f980fcf4d7e90600090a25050565b610b8f611131565b610ac86000611201565b610ba1611131565b610ac8611276565b73ffffffffffffffffffffffffffffffffffffffff8116600090815260046020908152604091829020805483518184028101840190945280845260609392830182828015610c1657602002820191906000526020600020905b815481526020019060010190808311610c02575b50505050509050919050565b610c2a611131565b6000818152600360205260409020805473ffffffffffffffffffffffffffffffffffffffff16610c86576040517f6ec9be1100000000000000000000000000000000000000000000000000000000815260040160405180910390fd5b6004810180547fffffffffffffffffffffffffffffffffffffffffffffffffffffffffffff00ff1661010017905560405182907f7af458538e5c803d5244c2a5d64795658fc3f839994a4073f0d13bcbeb0aed1190600090a25050565b610ceb611131565b73ffffffffffffffffffffffffffffffffffffffff8116610d40576040517f1e4fbdf7000000000000000000000000000000000000000000000000000000008152600060048201526024015b60405180910390fd5b610d4981611201565b50565b610d546110b1565b6000818152600360205260409020805473ffffffffffffffffffffffffffffffffffffffff163314610db2576040517f82b4290000000000000000000000000000000000000000000000000000000000815260040160405180910390fd5b6004810154610100900460ff1615610df6576040517fbdc9917100000000000000000000000000000000000000000000000000000000815260040160405180910390fd5b600481015460ff16610e34576040517f665c1c5700000000000000000000000000000000000000000000000000000000815260040160405180910390fd5b6004810180547fffffffffffffffffffffffffffffffffffffffffffffffffffffffffffffff0016905560405182907fd62c4954c442fec350ef5862ef47eb268546b4ebaf79b67d388a59fa6c6c268790600090a250610d4960018055565b610e9b6110b1565b6000818152600360205260409020805473ffffffffffffffffffffffffffffffffffffffff163314610ef9576040517f82b4290000000000000000000000000000000000000000000000000000000000815260040160405180910390fd5b6004810154610100900460ff1615610f3d576040517fbdc9917100000000000000000000000000000000000000000000000000000000815260040160405180910390fd5b600181015460028201546040517f42842e0e000000000000000000000000000000000000000000000000000000008152306004820152336024820152604481019190915273ffffffffffffffffffffffffffffffffffffffff909116906342842e0e90606401600060405180830381600087803b158015610fbd57600080fd5b505af1158015610fd1573d6000803e3d6000fd5b50505050610fdf33836112d1565b6000828152600360208190526040822080547fffffffffffffffffffffffff000000000000000000000000000000000000000090811682556001820180549091169055600281018390559081018290556004810180547fffffffffffffffffffffffffffffffffffffffffffffffffffffffffffff000016905560058082018390556006909101829055805491611075836115ee565b9091555050604051339083907f4cd28739960e4ea2541475296d8d63632791c1326da36965bb5ffc96b0cc0f0490600090a350610d4960018055565b6002600154036110ed576040517f3ee5aeb500000000000000000000000000000000000000000000000000000000815260040160405180910390fd5b6002600155565b60025460ff1615610ac8576040517fd93c066500000000000000000000000000000000000000000000000000000000815260040160405180910390fd5b60005473ffffffffffffffffffffffffffffffffffffffff163314610ac8576040517f118cdaa7000000000000000000000000000000000000000000000000000000008152336004820152602401610d37565b61118c6113ac565b600280547fffffffffffffffffffffffffffffffffffffffffffffffffffffffffffffff001690557f5db9ee0a495bf2e6ff9c91a7834c1ba4fdd244a5e8aa4e537bd38aeae4b073aa335b60405173ffffffffffffffffffffffffffffffffffffffff909116815260200160405180910390a1565b6000805473ffffffffffffffffffffffffffffffffffffffff8381167fffffffffffffffffffffffff0000000000000000000000000000000000000000831681178455604051919092169283917f8be0079c531659141344cd1fd0a4f28419497f9722a3daafe3b4186f6b6457e09190a35050565b61127e6110f4565b600280547fffffffffffffffffffffffffffffffffffffffffffffffffffffffffffffff001660011790557f62e78cea01bee320cd4e420270b5ea74000d11b0c9f74754ebdbfc544b05a2586111d73390565b73ffffffffffffffffffffffffffffffffffffffff82166000908152600460205260408120905b8154811015610ab2578282828154811061131457611314611623565b90600052602060002001540361139a578154829061133490600190611652565b8154811061134457611344611623565b906000526020600020015482828154811061136157611361611623565b90600052602060002001819055508180548061137f5761137f611665565b60019003818190600052602060002001600090559055610ab2565b806113a4816115b6565b9150506112f8565b60025460ff16610ac8576040517f8dfc202b00000000000000000000000000000000000000000000000000000000815260040160405180910390fd5b803573ffffffffffffffffffffffffffffffffffffffff8116811461140c57600080fd5b919050565b60008060008060006080868803121561142957600080fd5b611432866113e8565b9450611440602087016113e8565b935060408601359250606086013567ffffffffffffffff8082111561146457600080fd5b818801915088601f83011261147857600080fd5b81358181111561148757600080fd5b89602082850101111561149957600080fd5b9699959850939650602001949392505050565b600080604083850312156114bf57600080fd5b6114c8836113e8565b946020939093013593505050565b6000602082840312156114e857600080fd5b5035919050565b6000806000806080858703121561150557600080fd5b5050823594602084013594506040840135936060013592509050565b60006020828403121561153357600080fd5b61153c826113e8565b9392505050565b6020808252825182820181905260009190848201906040850190845b8181101561157b5783518352928401929184019160010161155f565b50909695505050505050565b7f4e487b7100000000000000000000000000000000000000000000000000000000600052601160045260246000fd5b60007fffffffffffffffffffffffffffffffffffffffffffffffffffffffffffffffff82036115e7576115e7611587565b5060010190565b6000816115fd576115fd611587565b507fffffffffffffffffffffffffffffffffffffffffffffffffffffffffffffffff0190565b7f4e487b7100000000000000000000000000000000000000000000000000000000600052603260045260246000fd5b818103818111156107b0576107b0611587565b7f4e487b7100000000000000000000000000000000000000000000000000000000600052603160045260246000fdfea2646970667358221220e3bb9b6ccdba7c7e8816304d7b03b367849660d81567ffc52d28c5fcf3593ab864736f6c63430008140033",
  "linkReferences": {},
  "deployedLinkReferences": {}
}