{
  "_format": "hh-sol-artifact-1",
  "contractName": "TemporalAMM",
  "sourceName": "contracts/src/TemporalAMM.sol",
  "abi": [
    {
      "inputs": [],
      "name": "DECAY_RATE",
      "outputs": [
        {
          "internalType": "uint256",
          "name": "",
          "type": "uint256"
        }
      ],
      "stateMutability": "view",
      "type": "function"
    },
    {
      "inputs": [],
      "name": "PRECISION",
      "outputs": [
        {
          "internalType": "uint256",
          "name": "",
          "type": "uint256"
        }
      ],
      "stateMutability": "view",
      "type": "function"
    },
    {
      "inputs": [
        {
          "internalType": "uint256",
          "name": "duration",
          "type": "uint256"
        },
        {
          "internalType": "uint256",
          "name": "volatilityIndex",
          "type": "uint256"
        },
        {
          "internalType": "uint256",
          "name": "demandCoefficient",
          "type": "uint256"
        },
        {
          "internalType": "uint256",
          "name": "liquidityDepth",
          "type": "uint256"
        }
      ],
      "name": "calculateIntegratedCost",
      "outputs": [
        {
          "internalType": "uint256",
          "name": "totalCost",
          "type": "uint256"
        }
      ],
      "stateMutability": "pure",
      "type": "function"
    },
    {
      "inputs": [
        {
          "internalType": "uint256",
          "name": "timeElapsed",
          "type": "uint256"
        },
        {
          "internalType": "uint256",
          "name": "volatilityIndex",
          "type": "uint256"
        },
        {
          "internalType": "uint256",
          "name": "demandCoefficient",
          "type": "uint256"
        },
        {
          "internalType": "uint256",
          "name": "liquidityDepth",
          "type": "uint256"
        }
      ],
      "name": "calculateTemporalPrice",
      "outputs": [
        {
          "internalType": "uint256",
          "name": "pricePerSecond",
          "type": "uint256"
        }
      ],
      "stateMutability": "pure",
      "type": "function"
    },
    {
      "inputs": [
        {
          "internalType": "uint256",
          "name": "",
          "type": "uint256"
        }
      ],
      "name": "demandData",
      "outputs": [
        {
          "internalType": "uint256",
          "name": "activeRentals",
          "type": "uint256"
        },
        {
          "internalType": "uint256",
          "name": "totalDemandScore",
          "type": "uint256"
        },
        {
          "internalType": "uint256",
          "name": "lastUpdate",
          "type": "uint256"
        }
      ],
      "stateMutability": "view",
      "type": "function"
    },
    {
      "inputs": [
        {
          "internalType": "uint256",
          "name": "positionId",
          "type": "uint256"
        }
      ],
      "name": "getCurrentDemand",
      "outputs": [
        {
          "internalType": "uint256",
          "name": "",
          "type": "uint256"
        }
      ],
      "stateMutability": "view",
      "type": "function"
    },
    {
      "inputs": [
        {
          "internalType": "uint256",
          "name": "positionId",
          "type": "uint256"
        }
      ],
      "name": "getCurrentVolatility",
      "outputs": [
        {
          "internalType": "uint256",
          "name": "",
          "type": "uint256"
        }
      ],
      "stateMutability": "view",
      "type": "function"
    },
    {
      "inputs": [
        {
          "internalType": "uint256",
          "name": "positionId",
          "type": "uint256"
        },
        {
          "internalType": "uint256",
          "name": "newDemandScore",
          "type": "uint256"
        }
      ],
      "name": "updateDemand",
      "outputs": [],
      "stateMutability": "nonpayable",
      "type": "function"
    },
    {
      "inputs": [
        {
          "internalType": "uint256",
          "name": "positionId",
          "type": "uint256"
        },
        {
          "internalType": "uint256",
          "name": "newVolatility",
          "type": "uint256"
        }
      ],
      "name": "updateVolatility",
      "outputs": [],
      "stateMutability": "nonpayable",
      "type": "function"
    },
    {
      "inputs": [
        {
          "internalType": "uint256",
          "name": "",
          "type": "uint256"
        }
      ],
      "name": "volatilityData",
      "outputs": [
        {
          "internalType": "uint256",
          "name": "realizedVolatility",
          "type": "uint256"
        },
        {
          "internalType": "uint256",
          "name": "lastUpdate",
          "type": "uint256"
        },
        {
          "internalType": "uint256",
          "name": "historicalAverage",
          "type": "uint256"
        }
      ],
      "stateMutability": "view",
      "type": "function"
    }
  ],
  "bytecode": "0x6080604052348015600f57600080fd5b506106928061001f6000396000f3fe608060405234801561001057600080fd5b50600436106100be5760003560e01c806399fae10b11610076578063ce66ca051161005b578063ce66ca05146101a5578063d987d12b146101d4578063e4ddc516146101e957600080fd5b806399fae10b14610183578063aaf5eb681461019657600080fd5b806375a5c571116100a757806375a5c57114610107578063844ec1da1461012757806392a0600f1461013a57600080fd5b80631de40e49146100c357806326a83f94146100e3575b600080fd5b6100d0655af3107a400081565b6040519081526020015b60405180910390f35b6100d06100f1366004610542565b6000908152600160208190526040909120015490565b6100d0610115366004610542565b60009081526020819052604090205490565b6100d061013536600461055b565b610215565b610168610148366004610542565b600160208190526000918252604090912080549181015460029091015483565b604080519384526020840192909252908201526060016100da565b6100d061019136600461055b565b6103ea565b6100d0670de0b6b3a764000081565b6101686101b3366004610542565b60006020819052908152604090208054600182015460029092015490919083565b6101e76101e236600461058d565b610468565b005b6101e76101f736600461058d565b60009182526001602081905260409092209182015542600290910155565b600080670de0b6b3a764000061023187655af3107a40006105de565b61023b91906105fb565b90506000610252670de0b6b3a764000060026105de565b61025c83806105de565b61026691906105fb565b61027883670de0b6b3a7640000610636565b6102829190610649565b90506000670de0b6b3a764000061029988806105de565b6102a391906105fb565b905060006102c16102bc83670de0b6b3a7640000610649565b6104da565b905060006102d788670de0b6b3a7640000610649565b6102e9670de0b6b3a76400008a6105de565b6102f391906105fb565b9050600061030982670de0b6b3a7640000610649565b9050600061031a620f42408a6105fb565b61032c90670de0b6b3a7640000610649565b610337906001610649565b610349670de0b6b3a7640000806105de565b61035391906105fb565b655af3107a40009850905087670de0b6b3a764000061037288836105de565b61037c91906105fb565b9850670de0b6b3a7640000610391868b6105de565b61039b91906105fb565b9850670de0b6b3a76400006103b0848b6105de565b6103ba91906105fb565b9850670de0b6b3a76400006103cf838b6105de565b6103d991906105fb565b9d9c50505050505050505050505050565b6000806103f8603c876105fb565b905080600003610406575060015b600061041282886105fb565b905060005b8281101561045d57600061042b83836105de565b9050600061043b828a8a8a610215565b905061044784826105de565b6104519087610649565b95505050600101610417565b505050949350505050565b6040518060600160405280828152602001428152602001600283600080878152602001908152602001600020600201546104a29190610649565b6104ac91906105fb565b9052600092835260208381526040938490208251815590820151600182015592015160029092019190915550565b6000816000036104ec57506000919050565b600060026104fb846001610649565b61050591906105fb565b9050825b8082101561053b57508060028161052081876105fb565b61052a9190610649565b61053491906105fb565b9150610509565b9392505050565b60006020828403121561055457600080fd5b5035919050565b6000806000806080858703121561057157600080fd5b5050823594602084013594506040840135936060013592509050565b600080604083850312156105a057600080fd5b50508035926020909101359150565b7f4e487b7100000000000000000000000000000000000000000000000000000000600052601160045260246000fd5b80820281158282048414176105f5576105f56105af565b92915050565b600082610631577f4e487b7100000000000000000000000000000000000000000000000000000000600052601260045260246000fd5b500490565b818103818111156105f5576105f56105af565b808201808211156105f5576105f56105af56fea264697066735822122009148eaddf9db3d55a7f32134f01393f9b0651e6ade3d976ce42ef0f03b64c8764736f6c634300081a0033",
  "linkReferences": {},
  "deployedLinkReferences": {}
}