{"contracts/src/RentalManager.sol":{"RentalManager":{"abi":[{"inputs":[{"internalType":"address","name":"_yellowChannelManager","type":"address"},{"internalType":"address","name":"_rentalVault","type":"address"}],"stateMutability":"nonpayable","type":"constructor"},{"inputs":[],"name":"EnforcedPause","type":"error"},{"inputs":[],"name":"ExpectedPause","type":"error"},{"inputs":[],"name":"InsufficientCollateral","type":"error"},{"inputs":[],"name":"InvalidCollateralBps","type":"error"},{"inputs":[],"name":"InvalidDuration","type":"error"},{"inputs":[],"name":"InvalidFee","type":"error"},{"inputs":[],"name":"InvalidPrice","type":"error"},{"inputs":[],"name":"NoActiveChannel","type":"error"},{"inputs":[{"internalType":"address","name":"owner","type":"address"}],"name":"OwnableInvalidOwner","type":"error"},{"inputs":[{"internalType":"address","name":"account","type":"address"}],"name":"OwnableUnauthorizedAccount","type":"error"},{"inputs":[],"name":"PositionAlreadyRented","type":"error"},{"inputs":[],"name":"ReentrancyGuardReentrantCall","type":"error"},{"inputs":[],"name":"RentalExpired","type":"error"},{"inputs":[],"name":"RentalNotFound","type":"error"},{"inputs":[],"name":"RentalStillActive","type":"error"},{"inputs":[],"name":"Unauthorized","type":"error"},{"inputs":[],"name":"ZeroAddress","type":"error"},{"anonymous":false,"inputs":[{"indexed":false,"internalType":"uint256","name":"newBps","type":"uint256"}],"name":"CollateralRequirementUpdated","type":"event"},{"anonymous":false,"inputs":[{"indexed":true,"internalType":"bytes32","name":"rentalId","type":"bytes32"},{"indexed":true,"internalType":"address","name":"closer","type":"address"},{"indexed":false,"internalType":"uint256","name":"penalty","type":"uint256"}],"name":"EmergencyClose","type":"event"},{"anonymous":false,"inputs":[{"indexed":true,"internalType":"address","name":"previousOwner","type":"address"},{"indexed":true,"internalType":"address","name":"newOwner","type":"address"}],"name":"OwnershipTransferred","type":"event"},{"anonymous":false,"inputs":[{"indexed":false,"internalType":"address","name":"account","type":"address"}],"name":"Paused","type":"event"},{"anonymous":false,"inputs":[{"indexed":false,"internalType":"uint256","name":"newFeeBps","type":"uint256"}],"name":"PlatformFeeUpdated","type":"event"},{"anonymous":false,"inputs":[{"indexed":true,"internalType":"bytes32","name":"rentalId","type":"bytes32"},{"indexed":true,"internalType":"bytes32","name":"positionId","type":"bytes32"},{"indexed":true,"internalType":"address","name":"renter","type":"address"},{"indexed":false,"internalType":"address","name":"owner","type":"address"},{"indexed":false,"internalType":"uint256","name":"duration","type":"uint256"},{"indexed":false,"internalType":"uint256","name":"pricePerSecond","type":"uint256"},{"indexed":false,"internalType":"uint256","name":"collateral","type":"uint256"}],"name":"RentalCreated","type":"event"},{"anonymous":false,"inputs":[{"indexed":true,"internalType":"bytes32","name":"rentalId","type":"bytes32"},{"indexed":false,"internalType":"uint256","name":"totalFee","type":"uint256"},{"indexed":false,"internalType":"uint256","name":"actualDuration","type":"uint256"},{"indexed":false,"internalType":"uint256","name":"refund","type":"uint256"}],"name":"RentalEnded","type":"event"},{"anonymous":false,"inputs":[{"indexed":true,"internalType":"bytes32","name":"rentalId","type":"bytes32"},{"indexed":false,"internalType":"uint256","name":"newEndTime","type":"uint256"},{"indexed":false,"internalType":"uint256","name":"additionalCollateral","type":"uint256"}],"name":"RentalExtended","type":"event"},{"anonymous":false,"inputs":[{"indexed":false,"internalType":"address","name":"account","type":"address"}],"name":"Unpaused","type":"event"},{"inputs":[],"name":"MAX_PLATFORM_FEE","outputs":[{"internalType":"uint256","name":"","type":"uint256"}],"stateMutability":"view","type":"function"},{"inputs":[],"name":"MAX_RENTAL_DURATION","outputs":[{"internalType":"uint256","name":"","type":"uint256"}],"stateMutability":"view","type":"function"},{"inputs":[],"name":"MIN_RENTAL_DURATION","outputs":[{"internalType":"uint256","name":"","type":"uint256"}],"stateMutability":"view","type":"function"},{"inputs":[{"internalType":"bytes32","name":"rentalId","type":"bytes32"}],"name":"calculateCurrentFees","outputs":[{"internalType":"uint256","name":"","type":"uint256"}],"stateMutability":"view","type":"function"},{"inputs":[{"internalType":"bytes32","name":"positionId","type":"bytes32"},{"internalType":"address","name":"owner","type":"address"},{"internalType":"uint256","name":"duration","type":"uint256"},{"internalType":"uint256","name":"pricePerSecond","type":"uint256"},{"internalType":"bytes32","name":"channelId","type":"bytes32"}],"name":"createRental","outputs":[{"internalType":"bytes32","name":"rentalId","type":"bytes32"}],"stateMutability":"payable","type":"function"},{"inputs":[{"internalType":"bytes32","name":"rentalId","type":"bytes32"}],"name":"emergencyClose","outputs":[],"stateMutability":"nonpayable","type":"function"},{"inputs":[{"internalType":"bytes32","name":"rentalId","type":"bytes32"}],"name":"endRental","outputs":[],"stateMutability":"nonpayable","type":"function"},{"inputs":[{"internalType":"bytes32","name":"rentalId","type":"bytes32"},{"internalType":"uint256","name":"additionalDuration","type":"uint256"}],"name":"extendRental","outputs":[],"stateMutability":"payable","type":"function"},{"inputs":[{"internalType":"bytes32","name":"rentalId","type":"bytes32"}],"name":"getRental","outputs":[{"components":[{"internalType":"address","name":"originalOwner","type":"address"},{"internalType":"address","name":"currentRenter","type":"address"},{"internalType":"uint256","name":"startTime","type":"uint256"},{"internalType":"uint256","name":"endTime","type":"uint256"},{"internalType":"uint256","name":"pricePerSecond","type":"uint256"},{"internalType":"uint256","name":"collateralAmount","type":"uint256"},{"internalType":"bool","name":"isActive","type":"bool"},{"internalType":"bytes32","name":"channelId","type":"bytes32"},{"internalType":"bytes32","name":"positionId","type":"bytes32"}],"internalType":"struct RentalManager.RentalState","name":"","type":"tuple"}],"stateMutability":"view","type":"function"},{"inputs":[{"internalType":"address","name":"renter","type":"address"}],"name":"getRenterRentals","outputs":[{"internalType":"bytes32[]","name":"","type":"bytes32[]"}],"stateMutability":"view","type":"function"},{"inputs":[],"name":"minCollateralBps","outputs":[{"internalType":"uint256","name":"","type":"uint256"}],"stateMutability":"view","type":"function"},{"inputs":[],"name":"owner","outputs":[{"internalType":"address","name":"","type":"address"}],"stateMutability":"view","type":"function"},{"inputs":[],"name":"pause","outputs":[],"stateMutability":"nonpayable","type":"function"},{"inputs":[],"name":"paused","outputs":[{"internalType":"bool","name":"","type":"bool"}],"stateMutability":"view","type":"function"},{"inputs":[],"name":"platformFeeBps","outputs":[{"internalType":"uint256","name":"","type":"uint256"}],"stateMutability":"view","type":"function"},{"inputs":[{"internalType":"bytes32","name":"","type":"bytes32"}],"name":"positionToRental","outputs":[{"internalType":"bytes32","name":"","type":"bytes32"}],"stateMutability":"view","type":"function"},{"inputs":[],"name":"renounceOwnership","outputs":[],"stateMutability":"nonpayable","type":"function"},{"inputs":[],"name":"rentalVault","outputs":[{"internalType":"address","name":"","type":"address"}],"stateMutability":"view","type":"function"},{"inputs":[{"internalType":"bytes32","name":"","type":"bytes32"}],"name":"rentals","outputs":[{"internalType":"address","name":"originalOwner","type":"address"},{"internalType":"address","name":"currentRenter","type":"address"},{"internalType":"uint256","name":"startTime","type":"uint256"},{"internalType":"uint256","name":"endTime","type":"uint256"},{"internalType":"uint256","name":"pricePerSecond","type":"uint256"},{"internalType":"uint256","name":"collateralAmount","type":"uint256"},{"internalType":"bool","name":"isActive","type":"bool"},{"internalType":"bytes32","name":"channelId","type":"bytes32"},{"internalType":"bytes32","name":"positionId","type":"bytes32"}],"stateMutability":"view","type":"function"},{"inputs":[{"internalType":"uint256","name":"newBps","type":"uint256"}],"name":"setMinCollateral","outputs":[],"stateMutability":"nonpayable","type":"function"},{"inputs":[{"internalType":"uint256","name":"newFeeBps","type":"uint256"}],"name":"setPlatformFee","outputs":[],"stateMutability":"nonpayable","type":"function"},{"inputs":[],"name":"totalFeesCollected","outputs":[{"internalType":"uint256","name":"","type":"uint256"}],"stateMutability":"view","type":"function"},{"inputs":[],"name":"totalRentals","outputs":[{"internalType":"uint256","name":"","type":"uint256"}],"stateMutability":"view","type":"function"},{"inputs":[{"internalType":"address","name":"newOwner","type":"address"}],"name":"transferOwnership","outputs":[],"stateMutability":"nonpayable","type":"function"},{"inputs":[],"name":"unpause","outputs":[],"stateMutability":"nonpayable","type":"function"},{"inputs":[],"name":"yellowChannelManager","outputs":[{"internalType":"address","name":"","type":"address"}],"stateMutability":"view","type":"function"}],"evm":{"bytecode":{"linkReferences":{},"object":"608060405260c8600855612ee06009553480156200001c57600080fd5b5060405162001e3438038062001e348339810160408190526200003f9162000152565b33806200006657604051631e4fbdf760e01b81526000600482015260240160405180910390fd5b6200007181620000e5565b50600180556001600160a01b03821615806200009457506001600160a01b038116155b15620000b35760405163d92e233d60e01b815260040160405180910390fd5b600680546001600160a01b039384166001600160a01b031991821617909155600780549290931691161790556200018a565b600080546001600160a01b038381166001600160a01b0319831681178455604051919092169283917f8be0079c531659141344cd1fd0a4f28419497f9722a3daafe3b4186f6b6457e09190a35050565b80516001600160a01b03811681146200014d57600080fd5b919050565b600080604083850312156200016657600080fd5b620001718362000135565b9150620001816020840162000135565b90509250929050565b611c9a806200019a6000396000f3fe6080604052600436106101a15760003560e01c80638456cb59116100e1578063b617efe11161008a578063ef3983ec11610064578063ef3983ec14610625578063f2fde38b14610645578063f318019b14610665578063fd8e54d91461067857600080fd5b8063b617efe1146104db578063d978f6ad14610508578063dd4b22d11461060f57600080fd5b80638e5d9470116100bb5780638e5d94701461046157806391837f141461048e578063acc909b1146104bb57600080fd5b80638456cb5914610401578063846321a4146104165780638da5cb5b1461043657600080fd5b80633f4ba83a1161014e57806360c6d8ae1161012857806360c6d8ae146102de578063715018a6146102f45780637d8ce315146103095780637df8768e1461031f57600080fd5b80633f4ba83a1461028f5780634f65473c146102a45780635c975abb146102bb57600080fd5b80632ce7e6671161017f5780632ce7e6671461020757806335f4d72b146102275780633998a6811461027957600080fd5b80630a60d6c8146101a657806312e8e2c3146101cf57806322dcd13e146101f1575b600080fd5b3480156101b257600080fd5b506101bc610e1081565b6040519081526020015b60405180910390f35b3480156101db57600080fd5b506101ef6101ea3660046119e6565b61068b565b005b3480156101fd57600080fd5b506101bc60085481565b34801561021357600080fd5b506101ef6102223660046119e6565b61070b565b34801561023357600080fd5b506006546102549073ffffffffffffffffffffffffffffffffffffffff1681565b60405173ffffffffffffffffffffffffffffffffffffffff90911681526020016101c6565b34801561028557600080fd5b506101bc6101f481565b34801561029b57600080fd5b506101ef610b7a565b3480156102b057600080fd5b506101bc62093a8081565b3480156102c757600080fd5b5060025460ff1660405190151581526020016101c6565b3480156102ea57600080fd5b506101bc600b5481565b34801561030057600080fd5b506101ef610b8c565b34801561031557600080fd5b506101bc60095481565b34801561032b57600080fd5b506103a361033a3660046119e6565b600360208190526000918252604090912080546001820154600283015493830154600484015460058501546006860154600787015460089097015473ffffffffffffffffffffffffffffffffffffffff96871698969095169693949293919260ff909116919089565b6040805173ffffffffffffffffffffffffffffffffffffffff9a8b1681529990981660208a0152968801959095526060870193909352608086019190915260a0850152151560c084015260e0830152610100820152610120016101c6565b34801561040d57600080fd5b506101ef610b9e565b34801561042257600080fd5b506101ef6104313660046119e6565b610bae565b34801561044257600080fd5b5060005473ffffffffffffffffffffffffffffffffffffffff16610254565b34801561046d57600080fd5b5061048161047c366004611a28565b610c33565b6040516101c69190611a4a565b34801561049a57600080fd5b506101bc6104a93660046119e6565b60046020526000908152604090205481565b3480156104c757600080fd5b506101bc6104d63660046119e6565b610cac565b3480156104e757600080fd5b506007546102549073ffffffffffffffffffffffffffffffffffffffff1681565b34801561051457600080fd5b506106026105233660046119e6565b6040805161012081018252600080825260208201819052918101829052606081018290526080810182905260a0810182905260c0810182905260e0810182905261010081019190915250600090815260036020818152604092839020835161012081018552815473ffffffffffffffffffffffffffffffffffffffff90811682526001830154169281019290925260028101549382019390935290820154606082015260048201546080820152600582015460a0820152600682015460ff16151560c0820152600782015460e082015260089091015461010082015290565b6040516101c69190611a8e565b34801561061b57600080fd5b506101bc600a5481565b34801561063157600080fd5b506101ef6106403660046119e6565b610daa565b34801561065157600080fd5b506101ef610660366004611a28565b6110f3565b6101ef610673366004611b17565b611154565b6101bc610686366004611b39565b611389565b61069361178a565b6101f48111156106cf576040517f58d620b300000000000000000000000000000000000000000000000000000000815260040160405180910390fd5b60088190556040518181527f45610d581145924dd7090a5017e5f2b1d6f42213bb2e95707ff86846bbfcb1ca906020015b60405180910390a150565b6107136117dd565b6000818152600360205260409020600681015460ff1661075f576040517fa6f5723200000000000000000000000000000000000000000000000000000000815260040160405180910390fd5b8060030154421080156107895750805473ffffffffffffffffffffffffffffffffffffffff163314155b156107c0576040517f64f58df000000000000000000000000000000000000000000000000000000000815260040160405180910390fd5b6000816003015442116107e15760028201546107dc9042611bae565b6107f5565b816002015482600301546107f59190611bae565b905060008260040154826108099190611bc7565b905060006127106008548361081e9190611bc7565b6108289190611bde565b905060006108368284611bae565b905060008386600501541161084c57600061085c565b83866005015461085c9190611bae565b6006870180547fffffffffffffffffffffffffffffffffffffffffffffffffffffffffffffff00169055600887015460009081526004602052604080822082905588549051929350909173ffffffffffffffffffffffffffffffffffffffff9091169084908381818185875af1925050503d80600081146108f9576040519150601f19603f3d011682016040523d82523d6000602084013e6108fe565b606091505b505090508061096e576040517f08c379a000000000000000000000000000000000000000000000000000000000815260206004820152601560248201527f4f776e6572207472616e73666572206661696c6564000000000000000000000060448201526064015b60405180910390fd5b6000805460405173ffffffffffffffffffffffffffffffffffffffff9091169086908381818185875af1925050503d80600081146109c8576040519150601f19603f3d011682016040523d82523d6000602084013e6109cd565b606091505b5050905080610a38576040517f08c379a000000000000000000000000000000000000000000000000000000000815260206004820152601860248201527f506c6174666f726d207472616e73666572206661696c656400000000000000006044820152606401610965565b84600b6000828254610a4a9190611c19565b90915550508215610b2357600188015460405160009173ffffffffffffffffffffffffffffffffffffffff169085908381818185875af1925050503d8060008114610ab1576040519150601f19603f3d011682016040523d82523d6000602084013e610ab6565b606091505b5050905080610b21576040517f08c379a000000000000000000000000000000000000000000000000000000000815260206004820152601660248201527f526566756e64207472616e73666572206661696c6564000000000000000000006044820152606401610965565b505b604080518781526020810189905290810184905289907fd561be58c432d676bd84c3fa6af45872a590ce66ded04792a1f38a197c54e5579060600160405180910390a25050505050505050610b7760018055565b50565b610b8261178a565b610b8a611820565b565b610b9461178a565b610b8a600061189d565b610ba661178a565b610b8a611912565b610bb661178a565b612710811080610bc75750614e2081115b15610bfe576040517f307050fc00000000000000000000000000000000000000000000000000000000815260040160405180910390fd5b60098190556040518181527fabf063dc43b031b27752f173d69529edb8d93d338bac2553cf03da26f27361d690602001610700565b73ffffffffffffffffffffffffffffffffffffffff8116600090815260056020908152604091829020805483518184028101840190945280845260609392830182828015610ca057602002820191906000526020600020905b815481526020019060010190808311610c8c575b50505050509050919050565b6000818152600360208181526040808420815161012081018352815473ffffffffffffffffffffffffffffffffffffffff90811682526001830154169381019390935260028101549183019190915291820154606082015260048201546080820152600582015460a0820152600682015460ff16151560c08201819052600783015460e083015260089092015461010082015290610d4d5750600092915050565b6000816040015142610d5f9190611bae565b905081604001518260600151610d759190611bae565b811115610d935781604001518260600151610d909190611bae565b90505b6080820151610da29082611bc7565b949350505050565b610db26117dd565b6000818152600360205260409020600681015460ff16610dfe576040517fa6f5723200000000000000000000000000000000000000000000000000000000815260040160405180910390fd5b805473ffffffffffffffffffffffffffffffffffffffff163314610e4e576040517f82b4290000000000000000000000000000000000000000000000000000000000815260040160405180910390fd5b600042826003015411610e62576000610e72565b428260030154610e729190611bae565b90506000826004015482610e869190611bc7565b90506000612710610e99836103e8611bc7565b610ea39190611bde565b9050600081856005015411610eb9576000610ec9565b818560050154610ec99190611bae565b6006860180547fffffffffffffffffffffffffffffffffffffffffffffffffffffffffffffff00169055600886015460009081526004602052604081205590508015610fdd57600185015460405160009173ffffffffffffffffffffffffffffffffffffffff169083908381818185875af1925050503d8060008114610f6b576040519150601f19603f3d011682016040523d82523d6000602084013e610f70565b606091505b5050905080610fdb576040517f08c379a000000000000000000000000000000000000000000000000000000000815260206004820152601660248201527f526566756e64207472616e73666572206661696c6564000000000000000000006044820152606401610965565b505b81156110ae57845460405160009173ffffffffffffffffffffffffffffffffffffffff169084908381818185875af1925050503d806000811461103c576040519150601f19603f3d011682016040523d82523d6000602084013e611041565b606091505b50509050806110ac576040517f08c379a000000000000000000000000000000000000000000000000000000000815260206004820152601760248201527f50656e616c7479207472616e73666572206661696c65640000000000000000006044820152606401610965565b505b604051828152339087907fa554c988ba0c7b09831fe69e8f7dab8adeb68f864b292984b57f15eadccaa18a9060200160405180910390a35050505050610b7760018055565b6110fb61178a565b73ffffffffffffffffffffffffffffffffffffffff811661114b576040517f1e4fbdf700000000000000000000000000000000000000000000000000000000815260006004820152602401610965565b610b778161189d565b61115c6117dd565b6000828152600360205260409020600681015460ff166111a8576040517fa6f5723200000000000000000000000000000000000000000000000000000000815260040160405180910390fd5b600181015473ffffffffffffffffffffffffffffffffffffffff1633146111fb576040517f82b4290000000000000000000000000000000000000000000000000000000000815260040160405180910390fd5b80600301544210611238576040517fec89f12000000000000000000000000000000000000000000000000000000000815260040160405180910390fd5b6000828260020154836003015461124f9190611bae565b6112599190611c19565b905062093a80811115611298576040517f7616640100000000000000000000000000000000000000000000000000000000815260040160405180910390fd5b60008260040154846112aa9190611bc7565b90506000612710600954836112bf9190611bc7565b6112c99190611bde565b905080341015611305576040517f3a23d82500000000000000000000000000000000000000000000000000000000815260040160405180910390fd5b848460030160008282546113199190611c19565b92505081905550348460050160008282546113349190611c19565b909155505060038401546040805191825234602083015287917f3b3fbb74fc41597cddefb1506281692a72d226b0484dea26ea155ab343a05990910160405180910390a25050505061138560018055565b5050565b60006113936117dd565b61139b61196d565b610e108410806113ad575062093a8084115b156113e4576040517f7616640100000000000000000000000000000000000000000000000000000000815260040160405180910390fd5b8260000361141d576040517ebfc92100000000000000000000000000000000000000000000000000000000815260040160405180910390fd5b73ffffffffffffffffffffffffffffffffffffffff851661146a576040517fd92e233d00000000000000000000000000000000000000000000000000000000815260040160405180910390fd5b600086815260046020526040902054156114b0576040517f82b6007100000000000000000000000000000000000000000000000000000000815260040160405180910390fd5b60006114bc8486611bc7565b90506000612710600954836114d19190611bc7565b6114db9190611bde565b905080341015611517576040517f3a23d82500000000000000000000000000000000000000000000000000000000815260040160405180910390fd5b600a546040517fffffffffffffffffffffffffffffffffffffffff0000000000000000000000003360601b166020820152603481018a905242605482015260748101919091526094016040516020818303038152906040528051906020012092506040518061012001604052808873ffffffffffffffffffffffffffffffffffffffff1681526020013373ffffffffffffffffffffffffffffffffffffffff16815260200142815260200187426115ce9190611c19565b81526020808201889052346040808401919091526001606080850182905260808086018b905260a09586018f905260008a815260038087528582208951815473ffffffffffffffffffffffffffffffffffffffff9182167fffffffffffffffffffffffff00000000000000000000000000000000000000009182161783558b8a015183890180549190931691161790558987015160028201559389015190840155908701516004808401919091559587015160058084019190915560c08801516006840180549115157fffffffffffffffffffffffffffffffffffffffffffffffffffffffffffffff0090921691909117905560e08801516007840155610100909701516008909201919091558d815293835281842088905533845293825282208054938401815582528120909101849055600a80549161170e83611c2c565b90915550506040805173ffffffffffffffffffffffffffffffffffffffff89168152602081018890529081018690523460608201523390899085907fb36c4bef0713f0c0c77cdd8ac3fc21c16f501f36e0932aa3ce99984cfaebaddc9060800160405180910390a4505061178160018055565b95945050505050565b60005473ffffffffffffffffffffffffffffffffffffffff163314610b8a576040517f118cdaa7000000000000000000000000000000000000000000000000000000008152336004820152602401610965565b600260015403611819576040517f3ee5aeb500000000000000000000000000000000000000000000000000000000815260040160405180910390fd5b6002600155565b6118286119aa565b600280547fffffffffffffffffffffffffffffffffffffffffffffffffffffffffffffff001690557f5db9ee0a495bf2e6ff9c91a7834c1ba4fdd244a5e8aa4e537bd38aeae4b073aa335b60405173ffffffffffffffffffffffffffffffffffffffff909116815260200160405180910390a1565b6000805473ffffffffffffffffffffffffffffffffffffffff8381167fffffffffffffffffffffffff0000000000000000000000000000000000000000831681178455604051919092169283917f8be0079c531659141344cd1fd0a4f28419497f9722a3daafe3b4186f6b6457e09190a35050565b61191a61196d565b600280547fffffffffffffffffffffffffffffffffffffffffffffffffffffffffffffff001660011790557f62e78cea01bee320cd4e420270b5ea74000d11b0c9f74754ebdbfc544b05a2586118733390565b60025460ff1615610b8a576040517fd93c066500000000000000000000000000000000000000000000000000000000815260040160405180910390fd5b60025460ff16610b8a576040517f8dfc202b00000000000000000000000000000000000000000000000000000000815260040160405180910390fd5b6000602082840312156119f857600080fd5b5035919050565b803573ffffffffffffffffffffffffffffffffffffffff81168114611a2357600080fd5b919050565b600060208284031215611a3a57600080fd5b611a43826119ff565b9392505050565b6020808252825182820181905260009190848201906040850190845b81811015611a8257835183529284019291840191600101611a66565b50909695505050505050565b60006101208201905073ffffffffffffffffffffffffffffffffffffffff8084511683528060208501511660208401525060408301516040830152606083015160608301526080830151608083015260a083015160a083015260c0830151611afa60c084018215159052565b5060e083015160e083015261010080840151818401525092915050565b60008060408385031215611b2a57600080fd5b50508035926020909101359150565b600080600080600060a08688031215611b5157600080fd5b85359450611b61602087016119ff565b94979496505050506040830135926060810135926080909101359150565b7f4e487b7100000000000000000000000000000000000000000000000000000000600052601160045260246000fd5b81810381811115611bc157611bc1611b7f565b92915050565b8082028115828204841417611bc157611bc1611b7f565b600082611c14577f4e487b7100000000000000000000000000000000000000000000000000000000600052601260045260246000fd5b500490565b80820180821115611bc157611bc1611b7f565b60007fffffffffffffffffffffffffffffffffffffffffffffffffffffffffffffffff8203611c5d57611c5d611b7f565b506001019056fea264697066735822122057bdf12dc77a98f5ff6f91f7165b114355379a97bedfdfc8bbc5a5e3b5f1807f64736f6c63430008140033","opcodes":"PUSH1 0x80 PUSH1 0x40 MSTORE PUSH1 0xC8 PUSH1 0x8 SSTORE PUSH2 0x2EE0 PUSH1 0x9 SSTORE CALLVALUE DUP1 ISZERO PUSH3 0x1C JUMPI PUSH1 0x0 DUP1 REVERT JUMPDEST POP PUSH1 0x40 MLOAD PUSH3 0x1E34 CODESIZE SUB DUP1 PUSH3 0x1E34 DUP4 CODECOPY DUP2 ADD PUSH1 0x40 DUP2 SWAP1 MSTORE PUSH3 0x3F SWAP2 PUSH3 0x152 JUMP JUMPDEST CALLER DUP1 PUSH3 0x66 JUMPI PUSH1 0x40 MLOAD PUSH4 0x1E4FBDF7 PUSH1 0xE0 SHL DUP2 MSTORE PUSH1 0x0 PUSH1 0x4 DUP3 ADD MSTORE PUSH1 0x24 ADD PUSH1 0x40 MLOAD DUP1 SWAP2 SUB SWAP1 REVERT JUMPDEST PUSH3 0x71 DUP2 PUSH3 0xE5 JUMP JUMPDEST POP PUSH1 0x1 DUP1 SSTORE PUSH1 0x1 PUSH1 0x1 PUSH1 0xA0 SHL SUB DUP3 AND ISZERO DUP1 PUSH3 0x94 JUMPI POP PUSH1 0x1 PUSH1 0x1 PUSH1 0xA0 SHL SUB DUP2 AND ISZERO JUMPDEST ISZERO PUSH3 0xB3 JUMPI PUSH1 0x40 MLOAD PUSH4 0xD92E233D PUSH1 0xE0 SHL DUP2 MSTORE PUSH1 0x4 ADD PUSH1 0x40 MLOAD DUP1 SWAP2 SUB SWAP1 REVERT JUMPDEST PUSH1 0x6 DUP1 SLOAD PUSH1 0x1 PUSH1 0x1 PUSH1 0xA0 SHL SUB SWAP4 DUP5 AND PUSH1 0x1 PUSH1 0x1 PUSH1 0xA0 SHL SUB NOT SWAP2 DUP3 AND OR SWAP1 SWAP2 SSTORE PUSH1 0x7 DUP1 SLOAD SWAP3 SWAP1 SWAP4 AND SWAP2 AND OR SWAP1 SSTORE PUSH3 0x18A JUMP JUMPDEST PUSH1 0x0 DUP1 SLOAD PUSH1 0x1 PUSH1 0x1 PUSH1 0xA0 SHL SUB DUP4 DUP2 AND PUSH1 0x1 PUSH1 0x1 PUSH1 0xA0 SHL SUB NOT DUP4 AND DUP2 OR DUP5 SSTORE PUSH1 0x40 MLOAD SWAP2 SWAP1 SWAP3 AND SWAP3 DUP4 SWAP2 PUSH32 0x8BE0079C531659141344CD1FD0A4F28419497F9722A3DAAFE3B4186F6B6457E0 SWAP2 SWAP1 LOG3 POP POP JUMP JUMPDEST DUP1 MLOAD PUSH1 0x1 PUSH1 0x1 PUSH1 0xA0 SHL SUB DUP2 AND DUP2 EQ PUSH3 0x14D JUMPI PUSH1 0x0 DUP1 REVERT JUMPDEST SWAP2 SWAP1 POP JUMP JUMPDEST PUSH1 0x0 DUP1 PUSH1 0x40 DUP4 DUP6 SUB SLT ISZERO PUSH3 0x166 JUMPI PUSH1 0x0 DUP1 REVERT JUMPDEST PUSH3 0x171 DUP4 PUSH3 0x135 JUMP JUMPDEST SWAP2 POP PUSH3 0x181 PUSH1 0x20 DUP5 ADD PUSH3 0x135 JUMP JUMPDEST SWAP1 POP SWAP3 POP SWAP3 SWAP1 POP JUMP JUMPDEST PUSH2 0x1C9A DUP1 PUSH3 0x19A PUSH1 0x0 CODECOPY PUSH1 0x0 RETURN INVALID PUSH1 0x80 PUSH1 0x40 MSTORE PUSH1 0x4 CALLDATASIZE LT PUSH2 0x1A1 JUMPI PUSH1 0x0 CALLDATALOAD PUSH1 0xE0 SHR DUP1 PUSH4 0x8456CB59 GT PUSH2 0xE1 JUMPI DUP1 PUSH4 0xB617EFE1 GT PUSH2 0x8A JUMPI DUP1 PUSH4 0xEF3983EC GT PUSH2 0x64 JUMPI DUP1 PUSH4 0xEF3983EC EQ PUSH2 0x625 JUMPI DUP1 PUSH4 0xF2FDE38B EQ PUSH2 0x645 JUMPI DUP1 PUSH4 0xF318019B EQ PUSH2 0x665 JUMPI DUP1 PUSH4 0xFD8E54D9 EQ PUSH2 0x678 JUMPI PUSH1 0x0 DUP1 REVERT JUMPDEST DUP1 PUSH4 0xB617EFE1 EQ PUSH2 0x4DB JUMPI DUP1 PUSH4 0xD978F6AD EQ PUSH2 0x508 JUMPI DUP1 PUSH4 0xDD4B22D1 EQ PUSH2 0x60F JUMPI PUSH1 0x0 DUP1 REVERT JUMPDEST DUP1 PUSH4 0x8E5D9470 GT PUSH2 0xBB JUMPI DUP1 PUSH4 0x8E5D9470 EQ PUSH2 0x461 JUMPI DUP1 PUSH4 0x91837F14 EQ PUSH2 0x48E JUMPI DUP1 PUSH4 0xACC909B1 EQ PUSH2 0x4BB JUMPI PUSH1 0x0 DUP1 REVERT JUMPDEST DUP1 PUSH4 0x8456CB59 EQ PUSH2 0x401 JUMPI DUP1 PUSH4 0x846321A4 EQ PUSH2 0x416 JUMPI DUP1 PUSH4 0x8DA5CB5B EQ PUSH2 0x436 JUMPI PUSH1 0x0 DUP1 REVERT JUMPDEST DUP1 PUSH4 0x3F4BA83A GT PUSH2 0x14E JUMPI DUP1 PUSH4 0x60C6D8AE GT PUSH2 0x128 JUMPI DUP1 PUSH4 0x60C6D8AE EQ PUSH2 0x2DE JUMPI DUP1 PUSH4 0x715018A6 EQ PUSH2 0x2F4 JUMPI DUP1 PUSH4 0x7D8CE315 EQ PUSH2 0x309 JUMPI DUP1 PUSH4 0x7DF8768E EQ PUSH2 0x31F JUMPI PUSH1 0x0 DUP1 REVERT JUMPDEST DUP1 PUSH4 0x3F4BA83A EQ PUSH2 0x28F JUMPI DUP1 PUSH4 0x4F65473C EQ PUSH2 0x2A4 JUMPI DUP1 PUSH4 0x5C975ABB EQ PUSH2 0x2BB JUMPI PUSH1 0x0 DUP1 REVERT JUMPDEST DUP1 PUSH4 0x2CE7E667 GT PUSH2 0x17F JUMPI DUP1 PUSH4 0x2CE7E667 EQ PUSH2 0x207 JUMPI DUP1 PUSH4 0x35F4D72B EQ PUSH2 0x227 JUMPI DUP1 PUSH4 0x3998A681 EQ PUSH2 0x279 JUMPI PUSH1 0x0 DUP1 REVERT JUMPDEST DUP1 PUSH4 0xA60D6C8 EQ PUSH2 0x1A6 JUMPI DUP1 PUSH4 0x12E8E2C3 EQ PUSH2 0x1CF JUMPI DUP1 PUSH4 0x22DCD13E EQ PUSH2 0x1F1 JUMPI JUMPDEST PUSH1 0x0 DUP1 REVERT JUMPDEST CALLVALUE DUP1 ISZERO PUSH2 0x1B2 JUMPI PUSH1 0x0 DUP1 REVERT JUMPDEST POP PUSH2 0x1BC PUSH2 0xE10 DUP2 JUMP JUMPDEST PUSH1 0x40 MLOAD SWAP1 DUP2 MSTORE PUSH1 0x20 ADD JUMPDEST PUSH1 0x40 MLOAD DUP1 SWAP2 SUB SWAP1 RETURN JUMPDEST CALLVALUE DUP1 ISZERO PUSH2 0x1DB JUMPI PUSH1 0x0 DUP1 REVERT JUMPDEST POP PUSH2 0x1EF PUSH2 0x1EA CALLDATASIZE PUSH1 0x4 PUSH2 0x19E6 JUMP JUMPDEST PUSH2 0x68B JUMP JUMPDEST STOP JUMPDEST CALLVALUE DUP1 ISZERO PUSH2 0x1FD JUMPI PUSH1 0x0 DUP1 REVERT JUMPDEST POP PUSH2 0x1BC PUSH1 0x8 SLOAD DUP2 JUMP JUMPDEST CALLVALUE DUP1 ISZERO PUSH2 0x213 JUMPI PUSH1 0x0 DUP1 REVERT JUMPDEST POP PUSH2 0x1EF PUSH2 0x222 CALLDATASIZE PUSH1 0x4 PUSH2 0x19E6 JUMP JUMPDEST PUSH2 0x70B JUMP JUMPDEST CALLVALUE DUP1 ISZERO PUSH2 0x233 JUMPI PUSH1 0x0 DUP1 REVERT JUMPDEST POP PUSH1 0x6 SLOAD PUSH2 0x254 SWAP1 PUSH20 0xFFFFFFFFFFFFFFFFFFFFFFFFFFFFFFFFFFFFFFFF AND DUP2 JUMP JUMPDEST PUSH1 0x40 MLOAD PUSH20 0xFFFFFFFFFFFFFFFFFFFFFFFFFFFFFFFFFFFFFFFF SWAP1 SWAP2 AND DUP2 MSTORE PUSH1 0x20 ADD PUSH2 0x1C6 JUMP JUMPDEST CALLVALUE DUP1 ISZERO PUSH2 0x285 JUMPI PUSH1 0x0 DUP1 REVERT JUMPDEST POP PUSH2 0x1BC PUSH2 0x1F4 DUP2 JUMP JUMPDEST CALLVALUE DUP1 ISZERO PUSH2 0x29B JUMPI PUSH1 0x0 DUP1 REVERT JUMPDEST POP PUSH2 0x1EF PUSH2 0xB7A JUMP JUMPDEST CALLVALUE DUP1 ISZERO PUSH2 0x2B0 JUMPI PUSH1 0x0 DUP1 REVERT JUMPDEST POP PUSH2 0x1BC PUSH3 0x93A80 DUP2 JUMP JUMPDEST CALLVALUE DUP1 ISZERO PUSH2 0x2C7 JUMPI PUSH1 0x0 DUP1 REVERT JUMPDEST POP PUSH1 0x2 SLOAD PUSH1 0xFF AND PUSH1 0x40 MLOAD SWAP1 ISZERO ISZERO DUP2 MSTORE PUSH1 0x20 ADD PUSH2 0x1C6 JUMP JUMPDEST CALLVALUE DUP1 ISZERO PUSH2 0x2EA JUMPI PUSH1 0x0 DUP1 REVERT JUMPDEST POP PUSH2 0x1BC PUSH1 0xB SLOAD DUP2 JUMP JUMPDEST CALLVALUE DUP1 ISZERO PUSH2 0x300 JUMPI PUSH1 0x0 DUP1 REVERT JUMPDEST POP PUSH2 0x1EF PUSH2 0xB8C JUMP JUMPDEST CALLVALUE DUP1 ISZERO PUSH2 0x315 JUMPI PUSH1 0x0 DUP1 REVERT JUMPDEST POP PUSH2 0x1BC PUSH1 0x9 SLOAD DUP2 JUMP JUMPDEST CALLVALUE DUP1 ISZERO PUSH2 0x32B JUMPI PUSH1 0x0 DUP1 REVERT JUMPDEST POP PUSH2 0x3A3 PUSH2 0x33A CALLDATASIZE PUSH1 0x4 PUSH2 0x19E6 JUMP JUMPDEST PUSH1 0x3 PUSH1 0x20 DUP2 SWAP1 MSTORE PUSH1 0x0 SWAP2 DUP3 MSTORE PUSH1 0x40 SWAP1 SWAP2 KECCAK256 DUP1 SLOAD PUSH1 0x1 DUP3 ADD SLOAD PUSH1 0x2 DUP4 ADD SLOAD SWAP4 DUP4 ADD SLOAD PUSH1 0x4 DUP5 ADD SLOAD PUSH1 0x5 DUP6 ADD SLOAD PUSH1 0x6 DUP7 ADD SLOAD PUSH1 0x7 DUP8 ADD SLOAD PUSH1 0x8 SWAP1 SWAP8 ADD SLOAD PUSH20 0xFFFFFFFFFFFFFFFFFFFFFFFFFFFFFFFFFFFFFFFF SWAP7 DUP8 AND SWAP9 SWAP7 SWAP1 SWAP6 AND SWAP7 SWAP4 SWAP5 SWAP3 SWAP4 SWAP2 SWAP3 PUSH1 0xFF SWAP1 SWAP2 AND SWAP2 SWAP1 DUP10 JUMP JUMPDEST PUSH1 0x40 DUP1 MLOAD PUSH20 0xFFFFFFFFFFFFFFFFFFFFFFFFFFFFFFFFFFFFFFFF SWAP11 DUP12 AND DUP2 MSTORE SWAP10 SWAP1 SWAP9 AND PUSH1 0x20 DUP11 ADD MSTORE SWAP7 DUP9 ADD SWAP6 SWAP1 SWAP6 MSTORE PUSH1 0x60 DUP8 ADD SWAP4 SWAP1 SWAP4 MSTORE PUSH1 0x80 DUP7 ADD SWAP2 SWAP1 SWAP2 MSTORE PUSH1 0xA0 DUP6 ADD MSTORE ISZERO ISZERO PUSH1 0xC0 DUP5 ADD MSTORE PUSH1 0xE0 DUP4 ADD MSTORE PUSH2 0x100 DUP3 ADD MSTORE PUSH2 0x120 ADD PUSH2 0x1C6 JUMP JUMPDEST CALLVALUE DUP1 ISZERO PUSH2 0x40D JUMPI PUSH1 0x0 DUP1 REVERT JUMPDEST POP PUSH2 0x1EF PUSH2 0xB9E JUMP JUMPDEST CALLVALUE DUP1 ISZERO PUSH2 0x422 JUMPI PUSH1 0x0 DUP1 REVERT JUMPDEST POP PUSH2 0x1EF PUSH2 0x431 CALLDATASIZE PUSH1 0x4 PUSH2 0x19E6 JUMP JUMPDEST PUSH2 0xBAE JUMP JUMPDEST CALLVALUE DUP1 ISZERO PUSH2 0x442 JUMPI PUSH1 0x0 DUP1 REVERT JUMPDEST POP PUSH1 0x0 SLOAD PUSH20 0xFFFFFFFFFFFFFFFFFFFFFFFFFFFFFFFFFFFFFFFF AND PUSH2 0x254 JUMP JUMPDEST CALLVALUE DUP1 ISZERO PUSH2 0x46D JUMPI PUSH1 0x0 DUP1 REVERT JUMPDEST POP PUSH2 0x481 PUSH2 0x47C CALLDATASIZE PUSH1 0x4 PUSH2 0x1A28 JUMP JUMPDEST PUSH2 0xC33 JUMP JUMPDEST PUSH1 0x40 MLOAD PUSH2 0x1C6 SWAP2 SWAP1 PUSH2 0x1A4A JUMP JUMPDEST CALLVALUE DUP1 ISZERO PUSH2 0x49A JUMPI PUSH1 0x0 DUP1 REVERT JUMPDEST POP PUSH2 0x1BC PUSH2 0x4A9 CALLDATASIZE PUSH1 0x4 PUSH2 0x19E6 JUMP JUMPDEST PUSH1 0x4 PUSH1 0x20 MSTORE PUSH1 0x0 SWAP1 DUP2 MSTORE PUSH1 0x40 SWAP1 KECCAK256 SLOAD DUP2 JUMP JUMPDEST CALLVALUE DUP1 ISZERO PUSH2 0x4C7 JUMPI PUSH1 0x0 DUP1 REVERT JUMPDEST POP PUSH2 0x1BC PUSH2 0x4D6 CALLDATASIZE PUSH1 0x4 PUSH2 0x19E6 JUMP JUMPDEST PUSH2 0xCAC JUMP JUMPDEST CALLVALUE DUP1 ISZERO PUSH2 0x4E7 JUMPI PUSH1 0x0 DUP1 REVERT JUMPDEST POP PUSH1 0x7 SLOAD PUSH2 0x254 SWAP1 PUSH20 0xFFFFFFFFFFFFFFFFFFFFFFFFFFFFFFFFFFFFFFFF AND DUP2 JUMP JUMPDEST CALLVALUE DUP1 ISZERO PUSH2 0x514 JUMPI PUSH1 0x0 DUP1 REVERT JUMPDEST POP PUSH2 0x602 PUSH2 0x523 CALLDATASIZE PUSH1 0x4 PUSH2 0x19E6 JUMP JUMPDEST PUSH1 0x40 DUP1 MLOAD PUSH2 0x120 DUP2 ADD DUP3 MSTORE PUSH1 0x0 DUP1 DUP3 MSTORE PUSH1 0x20 DUP3 ADD DUP2 SWAP1 MSTORE SWAP2 DUP2 ADD DUP3 SWAP1 MSTORE PUSH1 0x60 DUP2 ADD DUP3 SWAP1 MSTORE PUSH1 0x80 DUP2 ADD DUP3 SWAP1 MSTORE PUSH1 0xA0 DUP2 ADD DUP3 SWAP1 MSTORE PUSH1 0xC0 DUP2 ADD DUP3 SWAP1 MSTORE PUSH1 0xE0 DUP2 ADD DUP3 SWAP1 MSTORE PUSH2 0x100 DUP2 ADD SWAP2 SWAP1 SWAP2 MSTORE POP PUSH1 0x0 SWAP1 DUP2 MSTORE PUSH1 0x3 PUSH1 0x20 DUP2 DUP2 MSTORE PUSH1 0x40 SWAP3 DUP4 SWAP1 KECCAK256 DUP4 MLOAD PUSH2 0x120 DUP2 ADD DUP6 MSTORE DUP2 SLOAD PUSH20 0xFFFFFFFFFFFFFFFFFFFFFFFFFFFFFFFFFFFFFFFF SWAP1 DUP2 AND DUP3 MSTORE PUSH1 0x1 DUP4 ADD SLOAD AND SWAP3 DUP2 ADD SWAP3 SWAP1 SWAP3 MSTORE PUSH1 0x2 DUP2 ADD SLOAD SWAP4 DUP3 ADD SWAP4 SWAP1 SWAP4 MSTORE SWAP1 DUP3 ADD SLOAD PUSH1 0x60 DUP3 ADD MSTORE PUSH1 0x4 DUP3 ADD SLOAD PUSH1 0x80 DUP3 ADD MSTORE PUSH1 0x5 DUP3 ADD SLOAD PUSH1 0xA0 DUP3 ADD MSTORE PUSH1 0x6 DUP3 ADD SLOAD PUSH1 0xFF AND ISZERO ISZERO PUSH1 0xC0 DUP3 ADD MSTORE PUSH1 0x7 DUP3 ADD SLOAD PUSH1 0xE0 DUP3 ADD MSTORE PUSH1 0x8 SWAP1 SWAP2 ADD SLOAD PUSH2 0x100 DUP3 ADD MSTORE SWAP1 JUMP JUMPDEST PUSH1 0x40 MLOAD PUSH2 0x1C6 SWAP2 SWAP1 PUSH2 0x1A8E JUMP JUMPDEST CALLVALUE DUP1 ISZERO PUSH2 0x61B JUMPI PUSH1 0x0 DUP1 REVERT JUMPDEST POP PUSH2 0x1BC PUSH1 0xA SLOAD DUP2 JUMP JUMPDEST CALLVALUE DUP1 ISZERO PUSH2 0x631 JUMPI PUSH1 0x0 DUP1 REVERT JUMPDEST POP PUSH2 0x1EF PUSH2 0x640 CALLDATASIZE PUSH1 0x4 PUSH2 0x19E6 JUMP JUMPDEST PUSH2 0xDAA JUMP JUMPDEST CALLVALUE DUP1 ISZERO PUSH2 0x651 JUMPI PUSH1 0x0 DUP1 REVERT JUMPDEST POP PUSH2 0x1EF PUSH2 0x660 CALLDATASIZE PUSH1 0x4 PUSH2 0x1A28 JUMP JUMPDEST PUSH2 0x10F3 JUMP JUMPDEST PUSH2 0x1EF PUSH2 0x673 CALLDATASIZE PUSH1 0x4 PUSH2 0x1B17 JUMP JUMPDEST PUSH2 0x1154 JUMP JUMPDEST PUSH2 0x1BC PUSH2 0x686 CALLDATASIZE PUSH1 0x4 PUSH2 0x1B39 JUMP JUMPDEST PUSH2 0x1389 JUMP JUMPDEST PUSH2 0x693 PUSH2 0x178A JUMP JUMPDEST PUSH2 0x1F4 DUP2 GT ISZERO PUSH2 0x6CF JUMPI PUSH1 0x40 MLOAD PUSH32 0x58D620B300000000000000000000000000000000000000000000000000000000 DUP2 MSTORE PUSH1 0x4 ADD PUSH1 0x40 MLOAD DUP1 SWAP2 SUB SWAP1 REVERT JUMPDEST PUSH1 0x8 DUP2 SWAP1 SSTORE PUSH1 0x40 MLOAD DUP2 DUP2 MSTORE PUSH32 0x45610D581145924DD7090A5017E5F2B1D6F42213BB2E95707FF86846BBFCB1CA SWAP1 PUSH1 0x20 ADD JUMPDEST PUSH1 0x40 MLOAD DUP1 SWAP2 SUB SWAP1 LOG1 POP JUMP JUMPDEST PUSH2 0x713 PUSH2 0x17DD JUMP JUMPDEST PUSH1 0x0 DUP2 DUP2 MSTORE PUSH1 0x3 PUSH1 0x20 MSTORE PUSH1 0x40 SWAP1 KECCAK256 PUSH1 0x6 DUP2 ADD SLOAD PUSH1 0xFF AND PUSH2 0x75F JUMPI PUSH1 0x40 MLOAD PUSH32 0xA6F5723200000000000000000000000000000000000000000000000000000000 DUP2 MSTORE PUSH1 0x4 ADD PUSH1 0x40 MLOAD DUP1 SWAP2 SUB SWAP1 REVERT JUMPDEST DUP1 PUSH1 0x3 ADD SLOAD TIMESTAMP LT DUP1 ISZERO PUSH2 0x789 JUMPI POP DUP1 SLOAD PUSH20 0xFFFFFFFFFFFFFFFFFFFFFFFFFFFFFFFFFFFFFFFF AND CALLER EQ ISZERO JUMPDEST ISZERO PUSH2 0x7C0 JUMPI PUSH1 0x40 MLOAD PUSH32 0x64F58DF000000000000000000000000000000000000000000000000000000000 DUP2 MSTORE PUSH1 0x4 ADD PUSH1 0x40 MLOAD DUP1 SWAP2 SUB SWAP1 REVERT JUMPDEST PUSH1 0x0 DUP2 PUSH1 0x3 ADD SLOAD TIMESTAMP GT PUSH2 0x7E1 JUMPI PUSH1 0x2 DUP3 ADD SLOAD PUSH2 0x7DC SWAP1 TIMESTAMP PUSH2 0x1BAE JUMP JUMPDEST PUSH2 0x7F5 JUMP JUMPDEST DUP2 PUSH1 0x2 ADD SLOAD DUP3 PUSH1 0x3 ADD SLOAD PUSH2 0x7F5 SWAP2 SWAP1 PUSH2 0x1BAE JUMP JUMPDEST SWAP1 POP PUSH1 0x0 DUP3 PUSH1 0x4 ADD SLOAD DUP3 PUSH2 0x809 SWAP2 SWAP1 PUSH2 0x1BC7 JUMP JUMPDEST SWAP1 POP PUSH1 0x0 PUSH2 0x2710 PUSH1 0x8 SLOAD DUP4 PUSH2 0x81E SWAP2 SWAP1 PUSH2 0x1BC7 JUMP JUMPDEST PUSH2 0x828 SWAP2 SWAP1 PUSH2 0x1BDE JUMP JUMPDEST SWAP1 POP PUSH1 0x0 PUSH2 0x836 DUP3 DUP5 PUSH2 0x1BAE JUMP JUMPDEST SWAP1 POP PUSH1 0x0 DUP4 DUP7 PUSH1 0x5 ADD SLOAD GT PUSH2 0x84C JUMPI PUSH1 0x0 PUSH2 0x85C JUMP JUMPDEST DUP4 DUP7 PUSH1 0x5 ADD SLOAD PUSH2 0x85C SWAP2 SWAP1 PUSH2 0x1BAE JUMP JUMPDEST PUSH1 0x6 DUP8 ADD DUP1 SLOAD PUSH32 0xFFFFFFFFFFFFFFFFFFFFFFFFFFFFFFFFFFFFFFFFFFFFFFFFFFFFFFFFFFFFFF00 AND SWAP1 SSTORE PUSH1 0x8 DUP8 ADD SLOAD PUSH1 0x0 SWAP1 DUP2 MSTORE PUSH1 0x4 PUSH1 0x20 MSTORE PUSH1 0x40 DUP1 DUP3 KECCAK256 DUP3 SWAP1 SSTORE DUP9 SLOAD SWAP1 MLOAD SWAP3 SWAP4 POP SWAP1 SWAP2 PUSH20 0xFFFFFFFFFFFFFFFFFFFFFFFFFFFFFFFFFFFFFFFF SWAP1 SWAP2 AND SWAP1 DUP5 SWAP1 DUP4 DUP2 DUP2 DUP2 DUP6 DUP8 GAS CALL SWAP3 POP POP POP RETURNDATASIZE DUP1 PUSH1 0x0 DUP2 EQ PUSH2 0x8F9 JUMPI PUSH1 0x40 MLOAD SWAP2 POP PUSH1 0x1F NOT PUSH1 0x3F RETURNDATASIZE ADD AND DUP3 ADD PUSH1 0x40 MSTORE RETURNDATASIZE DUP3 MSTORE RETURNDATASIZE PUSH1 0x0 PUSH1 0x20 DUP5 ADD RETURNDATACOPY PUSH2 0x8FE JUMP JUMPDEST PUSH1 0x60 SWAP2 POP JUMPDEST POP POP SWAP1 POP DUP1 PUSH2 0x96E JUMPI PUSH1 0x40 MLOAD PUSH32 0x8C379A000000000000000000000000000000000000000000000000000000000 DUP2 MSTORE PUSH1 0x20 PUSH1 0x4 DUP3 ADD MSTORE PUSH1 0x15 PUSH1 0x24 DUP3 ADD MSTORE PUSH32 0x4F776E6572207472616E73666572206661696C65640000000000000000000000 PUSH1 0x44 DUP3 ADD MSTORE PUSH1 0x64 ADD JUMPDEST PUSH1 0x40 MLOAD DUP1 SWAP2 SUB SWAP1 REVERT JUMPDEST PUSH1 0x0 DUP1 SLOAD PUSH1 0x40 MLOAD PUSH20 0xFFFFFFFFFFFFFFFFFFFFFFFFFFFFFFFFFFFFFFFF SWAP1 SWAP2 AND SWAP1 DUP7 SWAP1 DUP4 DUP2 DUP2 DUP2 DUP6 DUP8 GAS CALL SWAP3 POP POP POP RETURNDATASIZE DUP1 PUSH1 0x0 DUP2 EQ PUSH2 0x9C8 JUMPI PUSH1 0x40 MLOAD SWAP2 POP PUSH1 0x1F NOT PUSH1 0x3F RETURNDATASIZE ADD AND DUP3 ADD PUSH1 0x40 MSTORE RETURNDATASIZE DUP3 MSTORE RETURNDATASIZE PUSH1 0x0 PUSH1 0x20 DUP5 ADD RETURNDATACOPY PUSH2 0x9CD JUMP JUMPDEST PUSH1 0x60 SWAP2 POP JUMPDEST POP POP SWAP1 POP DUP1 PUSH2 0xA38 JUMPI PUSH1 0x40 MLOAD PUSH32 0x8C379A000000000000000000000000000000000000000000000000000000000 DUP2 MSTORE PUSH1 0x20 PUSH1 0x4 DUP3 ADD MSTORE PUSH1 0x18 PUSH1 0x24 DUP3 ADD MSTORE PUSH32 0x506C6174666F726D207472616E73666572206661696C65640000000000000000 PUSH1 0x44 DUP3 ADD MSTORE PUSH1 0x64 ADD PUSH2 0x965 JUMP JUMPDEST DUP5 PUSH1 0xB PUSH1 0x0 DUP3 DUP3 SLOAD PUSH2 0xA4A SWAP2 SWAP1 PUSH2 0x1C19 JUMP JUMPDEST SWAP1 SWAP2 SSTORE POP POP DUP3 ISZERO PUSH2 0xB23 JUMPI PUSH1 0x1 DUP9 ADD SLOAD PUSH1 0x40 MLOAD PUSH1 0x0 SWAP2 PUSH20 0xFFFFFFFFFFFFFFFFFFFFFFFFFFFFFFFFFFFFFFFF AND SWAP1 DUP6 SWAP1 DUP4 DUP2 DUP2 DUP2 DUP6 DUP8 GAS CALL SWAP3 POP POP POP RETURNDATASIZE DUP1 PUSH1 0x0 DUP2 EQ PUSH2 0xAB1 JUMPI PUSH1 0x40 MLOAD SWAP2 POP PUSH1 0x1F NOT PUSH1 0x3F RETURNDATASIZE ADD AND DUP3 ADD PUSH1 0x40 MSTORE RETURNDATASIZE DUP3 MSTORE RETURNDATASIZE PUSH1 0x0 PUSH1 0x20 DUP5 ADD RETURNDATACOPY PUSH2 0xAB6 JUMP JUMPDEST PUSH1 0x60 SWAP2 POP JUMPDEST POP POP SWAP1 POP DUP1 PUSH2 0xB21 JUMPI PUSH1 0x40 MLOAD PUSH32 0x8C379A000000000000000000000000000000000000000000000000000000000 DUP2 MSTORE PUSH1 0x20 PUSH1 0x4 DUP3 ADD MSTORE PUSH1 0x16 PUSH1 0x24 DUP3 ADD MSTORE PUSH32 0x526566756E64207472616E73666572206661696C656400000000000000000000 PUSH1 0x44 DUP3 ADD MSTORE PUSH1 0x64 ADD PUSH2 0x965 JUMP JUMPDEST POP JUMPDEST PUSH1 0x40 DUP1 MLOAD DUP8 DUP2 MSTORE PUSH1 0x20 DUP2 ADD DUP10 SWAP1 MSTORE SWAP1 DUP2 ADD DUP5 SWAP1 MSTORE DUP10 SWAP1 PUSH32 0xD561BE58C432D676BD84C3FA6AF45872A590CE66DED04792A1F38A197C54E557 SWAP1 PUSH1 0x60 ADD PUSH1 0x40 MLOAD DUP1 SWAP2 SUB SWAP1 LOG2 POP POP POP POP POP POP POP POP PUSH2 0xB77 PUSH1 0x1 DUP1 SSTORE JUMP JUMPDEST POP JUMP JUMPDEST PUSH2 0xB82 PUSH2 0x178A JUMP JUMPDEST PUSH2 0xB8A PUSH2 0x1820 JUMP JUMPDEST JUMP JUMPDEST PUSH2 0xB94 PUSH2 0x178A JUMP JUMPDEST PUSH2 0xB8A PUSH1 0x0 PUSH2 0x189D JUMP JUMPDEST PUSH2 0xBA6 PUSH2 0x178A JUMP JUMPDEST PUSH2 0xB8A PUSH2 0x1912 JUMP JUMPDEST PUSH2 0xBB6 PUSH2 0x178A JUMP JUMPDEST PUSH2 0x2710 DUP2 LT DUP1 PUSH2 0xBC7 JUMPI POP PUSH2 0x4E20 DUP2 GT JUMPDEST ISZERO PUSH2 0xBFE JUMPI PUSH1 0x40 MLOAD PUSH32 0x307050FC00000000000000000000000000000000000000000000000000000000 DUP2 MSTORE PUSH1 0x4 ADD PUSH1 0x40 MLOAD DUP1 SWAP2 SUB SWAP1 REVERT JUMPDEST PUSH1 0x9 DUP2 SWAP1 SSTORE PUSH1 0x40 MLOAD DUP2 DUP2 MSTORE PUSH32 0xABF063DC43B031B27752F173D69529EDB8D93D338BAC2553CF03DA26F27361D6 SWAP1 PUSH1 0x20 ADD PUSH2 0x700 JUMP JUMPDEST PUSH20 0xFFFFFFFFFFFFFFFFFFFFFFFFFFFFFFFFFFFFFFFF DUP2 AND PUSH1 0x0 SWAP1 DUP2 MSTORE PUSH1 0x5 PUSH1 0x20 SWAP1 DUP2 MSTORE PUSH1 0x40 SWAP2 DUP3 SWAP1 KECCAK256 DUP1 SLOAD DUP4 MLOAD DUP2 DUP5 MUL DUP2 ADD DUP5 ADD SWAP1 SWAP5 MSTORE DUP1 DUP5 MSTORE PUSH1 0x60 SWAP4 SWAP3 DUP4 ADD DUP3 DUP3 DUP1 ISZERO PUSH2 0xCA0 JUMPI PUSH1 0x20 MUL DUP3 ADD SWAP2 SWAP1 PUSH1 0x0 MSTORE PUSH1 0x20 PUSH1 0x0 KECCAK256 SWAP1 JUMPDEST DUP2 SLOAD DUP2 MSTORE PUSH1 0x20 ADD SWAP1 PUSH1 0x1 ADD SWAP1 DUP1 DUP4 GT PUSH2 0xC8C JUMPI JUMPDEST POP POP POP POP POP SWAP1 POP SWAP2 SWAP1 POP JUMP JUMPDEST PUSH1 0x0 DUP2 DUP2 MSTORE PUSH1 0x3 PUSH1 0x20 DUP2 DUP2 MSTORE PUSH1 0x40 DUP1 DUP5 KECCAK256 DUP2 MLOAD PUSH2 0x120 DUP2 ADD DUP4 MSTORE DUP2 SLOAD PUSH20 0xFFFFFFFFFFFFFFFFFFFFFFFFFFFFFFFFFFFFFFFF SWAP1 DUP2 AND DUP3 MSTORE PUSH1 0x1 DUP4 ADD SLOAD AND SWAP4 DUP2 ADD SWAP4 SWAP1 SWAP4 MSTORE PUSH1 0x2 DUP2 ADD SLOAD SWAP2 DUP4 ADD SWAP2 SWAP1 SWAP2 MSTORE SWAP2 DUP3 ADD SLOAD PUSH1 0x60 DUP3 ADD MSTORE PUSH1 0x4 DUP3 ADD SLOAD PUSH1 0x80 DUP3 ADD MSTORE PUSH1 0x5 DUP3 ADD SLOAD PUSH1 0xA0 DUP3 ADD MSTORE PUSH1 0x6 DUP3 ADD SLOAD PUSH1 0xFF AND ISZERO ISZERO PUSH1 0xC0 DUP3 ADD DUP2 SWAP1 MSTORE PUSH1 0x7 DUP4 ADD SLOAD PUSH1 0xE0 DUP4 ADD MSTORE PUSH1 0x8 SWAP1 SWAP3 ADD SLOAD PUSH2 0x100 DUP3 ADD MSTORE SWAP1 PUSH2 0xD4D JUMPI POP PUSH1 0x0 SWAP3 SWAP2 POP POP JUMP JUMPDEST PUSH1 0x0 DUP2 PUSH1 0x40 ADD MLOAD TIMESTAMP PUSH2 0xD5F SWAP2 SWAP1 PUSH2 0x1BAE JUMP JUMPDEST SWAP1 POP DUP2 PUSH1 0x40 ADD MLOAD DUP3 PUSH1 0x60 ADD MLOAD PUSH2 0xD75 SWAP2 SWAP1 PUSH2 0x1BAE JUMP JUMPDEST DUP2 GT ISZERO PUSH2 0xD93 JUMPI DUP2 PUSH1 0x40 ADD MLOAD DUP3 PUSH1 0x60 ADD MLOAD PUSH2 0xD90 SWAP2 SWAP1 PUSH2 0x1BAE JUMP JUMPDEST SWAP1 POP JUMPDEST PUSH1 0x80 DUP3 ADD MLOAD PUSH2 0xDA2 SWAP1 DUP3 PUSH2 0x1BC7 JUMP JUMPDEST SWAP5 SWAP4 POP POP POP POP JUMP JUMPDEST PUSH2 0xDB2 PUSH2 0x17DD JUMP JUMPDEST PUSH1 0x0 DUP2 DUP2 MSTORE PUSH1 0x3 PUSH1 0x20 MSTORE PUSH1 0x40 SWAP1 KECCAK256 PUSH1 0x6 DUP2 ADD SLOAD PUSH1 0xFF AND PUSH2 0xDFE JUMPI PUSH1 0x40 MLOAD PUSH32 0xA6F5723200000000000000000000000000000000000000000000000000000000 DUP2 MSTORE PUSH1 0x4 ADD PUSH1 0x40 MLOAD DUP1 SWAP2 SUB SWAP1 REVERT JUMPDEST DUP1 SLOAD PUSH20 0xFFFFFFFFFFFFFFFFFFFFFFFFFFFFFFFFFFFFFFFF AND CALLER EQ PUSH2 0xE4E JUMPI PUSH1 0x40 MLOAD PUSH32 0x82B4290000000000000000000000000000000000000000000000000000000000 DUP2 MSTORE PUSH1 0x4 ADD PUSH1 0x40 MLOAD DUP1 SWAP2 SUB SWAP1 REVERT JUMPDEST PUSH1 0x0 TIMESTAMP DUP3 PUSH1 0x3 ADD SLOAD GT PUSH2 0xE62 JUMPI PUSH1 0x0 PUSH2 0xE72 JUMP JUMPDEST TIMESTAMP DUP3 PUSH1 0x3 ADD SLOAD PUSH2 0xE72 SWAP2 SWAP1 PUSH2 0x1BAE JUMP JUMPDEST SWAP1 POP PUSH1 0x0 DUP3 PUSH1 0x4 ADD SLOAD DUP3 PUSH2 0xE86 SWAP2 SWAP1 PUSH2 0x1BC7 JUMP JUMPDEST SWAP1 POP PUSH1 0x0 PUSH2 0x2710 PUSH2 0xE99 DUP4 PUSH2 0x3E8 PUSH2 0x1BC7 JUMP JUMPDEST PUSH2 0xEA3 SWAP2 SWAP1 PUSH2 0x1BDE JUMP JUMPDEST SWAP1 POP PUSH1 0x0 DUP2 DUP6 PUSH1 0x5 ADD SLOAD GT PUSH2 0xEB9 JUMPI PUSH1 0x0 PUSH2 0xEC9 JUMP JUMPDEST DUP2 DUP6 PUSH1 0x5 ADD SLOAD PUSH2 0xEC9 SWAP2 SWAP1 PUSH2 0x1BAE JUMP JUMPDEST PUSH1 0x6 DUP7 ADD DUP1 SLOAD PUSH32 0xFFFFFFFFFFFFFFFFFFFFFFFFFFFFFFFFFFFFFFFFFFFFFFFFFFFFFFFFFFFFFF00 AND SWAP1 SSTORE PUSH1 0x8 DUP7 ADD SLOAD PUSH1 0x0 SWAP1 DUP2 MSTORE PUSH1 0x4 PUSH1 0x20 MSTORE PUSH1 0x40 DUP2 KECCAK256 SSTORE SWAP1 POP DUP1 ISZERO PUSH2 0xFDD JUMPI PUSH1 0x1 DUP6 ADD SLOAD PUSH1 0x40 MLOAD PUSH1 0x0 SWAP2 PUSH20 0xFFFFFFFFFFFFFFFFFFFFFFFFFFFFFFFFFFFFFFFF AND SWAP1 DUP4 SWAP1 DUP4 DUP2 DUP2 DUP2 DUP6 DUP8 GAS CALL SWAP3 POP POP POP RETURNDATASIZE DUP1 PUSH1 0x0 DUP2 EQ PUSH2 0xF6B JUMPI PUSH1 0x40 MLOAD SWAP2 POP PUSH1 0x1F NOT PUSH1 0x3F RETURNDATASIZE ADD AND DUP3 ADD PUSH1 0x40 MSTORE RETURNDATASIZE DUP3 MSTORE RETURNDATASIZE PUSH1 0x0 PUSH1 0x20 DUP5 ADD RETURNDATACOPY PUSH2 0xF70 JUMP JUMPDEST PUSH1 0x60 SWAP2 POP JUMPDEST POP POP SWAP1 POP DUP1 PUSH2 0xFDB JUMPI PUSH1 0x40 MLOAD PUSH32 0x8C379A000000000000000000000000000000000000000000000000000000000 DUP2 MSTORE PUSH1 0x20 PUSH1 0x4 DUP3 ADD MSTORE PUSH1 0x16 PUSH1 0x24 DUP3 ADD MSTORE PUSH32 0x526566756E64207472616E73666572206661696C656400000000000000000000 PUSH1 0x44 DUP3 ADD MSTORE PUSH1 0x64 ADD PUSH2 0x965 JUMP JUMPDEST POP JUMPDEST DUP2 ISZERO PUSH2 0x10AE JUMPI DUP5 SLOAD PUSH1 0x40 MLOAD PUSH1 0x0 SWAP2 PUSH20 0xFFFFFFFFFFFFFFFFFFFFFFFFFFFFFFFFFFFFFFFF AND SWAP1 DUP5 SWAP1 DUP4 DUP2 DUP2 DUP2 DUP6 DUP8 GAS CALL SWAP3 POP POP POP RETURNDATASIZE DUP1 PUSH1 0x0 DUP2 EQ PUSH2 0x103C JUMPI PUSH1 0x40 MLOAD SWAP2 POP PUSH1 0x1F NOT PUSH1 0x3F RETURNDATASIZE ADD AND DUP3 ADD PUSH1 0x40 MSTORE RETURNDATASIZE DUP3 MSTORE RETURNDATASIZE PUSH1 0x0 PUSH1 0x20 DUP5 ADD RETURNDATACOPY PUSH2 0x1041 JUMP JUMPDEST PUSH1 0x60 SWAP2 POP JUMPDEST POP POP SWAP1 POP DUP1 PUSH2 0x10AC JUMPI PUSH1 0x40 MLOAD PUSH32 0x8C379A000000000000000000000000000000000000000000000000000000000 DUP2 MSTORE PUSH1 0x20 PUSH1 0x4 DUP3 ADD MSTORE PUSH1 0x17 PUSH1 0x24 DUP3 ADD MSTORE PUSH32 0x50656E616C7479207472616E73666572206661696C6564000000000000000000 PUSH1 0x44 DUP3 ADD MSTORE PUSH1 0x64 ADD PUSH2 0x965 JUMP JUMPDEST POP JUMPDEST PUSH1 0x40 MLOAD DUP3 DUP2 MSTORE CALLER SWAP1 DUP8 SWAP1 PUSH32 0xA554C988BA0C7B09831FE69E8F7DAB8ADEB68F864B292984B57F15EADCCAA18A SWAP1 PUSH1 0x20 ADD PUSH1 0x40 MLOAD DUP1 SWAP2 SUB SWAP1 LOG3 POP POP POP POP POP PUSH2 0xB77 PUSH1 0x1 DUP1 SSTORE JUMP JUMPDEST PUSH2 0x10FB PUSH2 0x178A JUMP JUMPDEST PUSH20 0xFFFFFFFFFFFFFFFFFFFFFFFFFFFFFFFFFFFFFFFF DUP2 AND PUSH2 0x114B JUMPI PUSH1 0x40 MLOAD PUSH32 0x1E4FBDF700000000000000000000000000000000000000000000000000000000 DUP2 MSTORE PUSH1 0x0 PUSH1 0x4 DUP3 ADD MSTORE PUSH1 0x24 ADD PUSH2 0x965 JUMP JUMPDEST PUSH2 0xB77 DUP2 PUSH2 0x189D JUMP JUMPDEST PUSH2 0x115C PUSH2 0x17DD JUMP JUMPDEST PUSH1 0x0 DUP3 DUP2 MSTORE PUSH1 0x3 PUSH1 0x20 MSTORE PUSH1 0x40 SWAP1 KECCAK256 PUSH1 0x6 DUP2 ADD SLOAD PUSH1 0xFF AND PUSH2 0x11A8 JUMPI PUSH1 0x40 MLOAD PUSH32 0xA6F5723200000000000000000000000000000000000000000000000000000000 DUP2 MSTORE PUSH1 0x4 ADD PUSH1 0x40 MLOAD DUP1 SWAP2 SUB SWAP1 REVERT JUMPDEST PUSH1 0x1 DUP2 ADD SLOAD PUSH20 0xFFFFFFFFFFFFFFFFFFFFFFFFFFFFFFFFFFFFFFFF AND CALLER EQ PUSH2 0x11FB JUMPI PUSH1 0x40 MLOAD PUSH32 0x82B4290000000000000000000000000000000000000000000000000000000000 DUP2 MSTORE PUSH1 0x4 ADD PUSH1 0x40 MLOAD DUP1 SWAP2 SUB SWAP1 REVERT JUMPDEST DUP1 PUSH1 0x3 ADD SLOAD TIMESTAMP LT PUSH2 0x1238 JUMPI PUSH1 0x40 MLOAD PUSH32 0xEC89F12000000000000000000000000000000000000000000000000000000000 DUP2 MSTORE PUSH1 0x4 ADD PUSH1 0x40 MLOAD DUP1 SWAP2 SUB SWAP1 REVERT JUMPDEST PUSH1 0x0 DUP3 DUP3 PUSH1 0x2 ADD SLOAD DUP4 PUSH1 0x3 ADD SLOAD PUSH2 0x124F SWAP2 SWAP1 PUSH2 0x1BAE JUMP JUMPDEST PUSH2 0x1259 SWAP2 SWAP1 PUSH2 0x1C19 JUMP JUMPDEST SWAP1 POP PUSH3 0x93A80 DUP2 GT ISZERO PUSH2 0x1298 JUMPI PUSH1 0x40 MLOAD PUSH32 0x7616640100000000000000000000000000000000000000000000000000000000 DUP2 MSTORE PUSH1 0x4 ADD PUSH1 0x40 MLOAD DUP1 SWAP2 SUB SWAP1 REVERT JUMPDEST PUSH1 0x0 DUP3 PUSH1 0x4 ADD SLOAD DUP5 PUSH2 0x12AA SWAP2 SWAP1 PUSH2 0x1BC7 JUMP JUMPDEST SWAP1 POP PUSH1 0x0 PUSH2 0x2710 PUSH1 0x9 SLOAD DUP4 PUSH2 0x12BF SWAP2 SWAP1 PUSH2 0x1BC7 JUMP JUMPDEST PUSH2 0x12C9 SWAP2 SWAP1 PUSH2 0x1BDE JUMP JUMPDEST SWAP1 POP DUP1 CALLVALUE LT ISZERO PUSH2 0x1305 JUMPI PUSH1 0x40 MLOAD PUSH32 0x3A23D82500000000000000000000000000000000000000000000000000000000 DUP2 MSTORE PUSH1 0x4 ADD PUSH1 0x40 MLOAD DUP1 SWAP2 SUB SWAP1 REVERT JUMPDEST DUP5 DUP5 PUSH1 0x3 ADD PUSH1 0x0 DUP3 DUP3 SLOAD PUSH2 0x1319 SWAP2 SWAP1 PUSH2 0x1C19 JUMP JUMPDEST SWAP3 POP POP DUP2 SWAP1 SSTORE POP CALLVALUE DUP5 PUSH1 0x5 ADD PUSH1 0x0 DUP3 DUP3 SLOAD PUSH2 0x1334 SWAP2 SWAP1 PUSH2 0x1C19 JUMP JUMPDEST SWAP1 SWAP2 SSTORE POP POP PUSH1 0x3 DUP5 ADD SLOAD PUSH1 0x40 DUP1 MLOAD SWAP2 DUP3 MSTORE CALLVALUE PUSH1 0x20 DUP4 ADD MSTORE DUP8 SWAP2 PUSH32 0x3B3FBB74FC41597CDDEFB1506281692A72D226B0484DEA26EA155AB343A05990 SWAP2 ADD PUSH1 0x40 MLOAD DUP1 SWAP2 SUB SWAP1 LOG2 POP POP POP POP PUSH2 0x1385 PUSH1 0x1 DUP1 SSTORE JUMP JUMPDEST POP POP JUMP JUMPDEST PUSH1 0x0 PUSH2 0x1393 PUSH2 0x17DD JUMP JUMPDEST PUSH2 0x139B PUSH2 0x196D JUMP JUMPDEST PUSH2 0xE10 DUP5 LT DUP1 PUSH2 0x13AD JUMPI POP PUSH3 0x93A80 DUP5 GT JUMPDEST ISZERO PUSH2 0x13E4 JUMPI PUSH1 0x40 MLOAD PUSH32 0x7616640100000000000000000000000000000000000000000000000000000000 DUP2 MSTORE PUSH1 0x4 ADD PUSH1 0x40 MLOAD DUP1 SWAP2 SUB SWAP1 REVERT JUMPDEST DUP3 PUSH1 0x0 SUB PUSH2 0x141D JUMPI PUSH1 0x40 MLOAD PUSH31 0xBFC92100000000000000000000000000000000000000000000000000000000 DUP2 MSTORE PUSH1 0x4 ADD PUSH1 0x40 MLOAD DUP1 SWAP2 SUB SWAP1 REVERT JUMPDEST PUSH20 0xFFFFFFFFFFFFFFFFFFFFFFFFFFFFFFFFFFFFFFFF DUP6 AND PUSH2 0x146A JUMPI PUSH1 0x40 MLOAD PUSH32 0xD92E233D00000000000000000000000000000000000000000000000000000000 DUP2 MSTORE PUSH1 0x4 ADD PUSH1 0x40 MLOAD DUP1 SWAP2 SUB SWAP1 REVERT JUMPDEST PUSH1 0x0 DUP7 DUP2 MSTORE PUSH1 0x4 PUSH1 0x20 MSTORE PUSH1 0x40 SWAP1 KECCAK256 SLOAD ISZERO PUSH2 0x14B0 JUMPI PUSH1 0x40 MLOAD PUSH32 0x82B6007100000000000000000000000000000000000000000000000000000000 DUP2 MSTORE PUSH1 0x4 ADD PUSH1 0x40 MLOAD DUP1 SWAP2 SUB SWAP1 REVERT JUMPDEST PUSH1 0x0 PUSH2 0x14BC DUP5 DUP7 PUSH2 0x1BC7 JUMP JUMPDEST SWAP1 POP PUSH1 0x0 PUSH2 0x2710 PUSH1 0x9 SLOAD DUP4 PUSH2 0x14D1 SWAP2 SWAP1 PUSH2 0x1BC7 JUMP JUMPDEST PUSH2 0x14DB SWAP2 SWAP1 PUSH2 0x1BDE JUMP JUMPDEST SWAP1 POP DUP1 CALLVALUE LT ISZERO PUSH2 0x1517 JUMPI PUSH1 0x40 MLOAD PUSH32 0x3A23D82500000000000000000000000000000000000000000000000000000000 DUP2 MSTORE PUSH1 0x4 ADD PUSH1 0x40 MLOAD DUP1 SWAP2 SUB SWAP1 REVERT JUMPDEST PUSH1 0xA SLOAD PUSH1 0x40 MLOAD PUSH32 0xFFFFFFFFFFFFFFFFFFFFFFFFFFFFFFFFFFFFFFFF000000000000000000000000 CALLER PUSH1 0x60 SHL AND PUSH1 0x20 DUP3 ADD MSTORE PUSH1 0x34 DUP2 ADD DUP11 SWAP1 MSTORE TIMESTAMP PUSH1 0x54 DUP3 ADD MSTORE PUSH1 0x74 DUP2 ADD SWAP2 SWAP1 SWAP2 MSTORE PUSH1 0x94 ADD PUSH1 0x40 MLOAD PUSH1 0x20 DUP2 DUP4 SUB SUB DUP2 MSTORE SWAP1 PUSH1 0x40 MSTORE DUP1 MLOAD SWAP1 PUSH1 0x20 ADD KECCAK256 SWAP3 POP PUSH1 0x40 MLOAD DUP1 PUSH2 0x120 ADD PUSH1 0x40 MSTORE DUP1 DUP9 PUSH20 0xFFFFFFFFFFFFFFFFFFFFFFFFFFFFFFFFFFFFFFFF AND DUP2 MSTORE PUSH1 0x20 ADD CALLER PUSH20 0xFFFFFFFFFFFFFFFFFFFFFFFFFFFFFFFFFFFFFFFF AND DUP2 MSTORE PUSH1 0x20 ADD TIMESTAMP DUP2 MSTORE PUSH1 0x20 ADD DUP8 TIMESTAMP PUSH2 0x15CE SWAP2 SWAP1 PUSH2 0x1C19 JUMP JUMPDEST DUP2 MSTORE PUSH1 0x20 DUP1 DUP3 ADD DUP9 SWAP1 MSTORE CALLVALUE PUSH1 0x40 DUP1 DUP5 ADD SWAP2 SWAP1 SWAP2 MSTORE PUSH1 0x1 PUSH1 0x60 DUP1 DUP6 ADD DUP3 SWAP1 MSTORE PUSH1 0x80 DUP1 DUP7 ADD DUP12 SWAP1 MSTORE PUSH1 0xA0 SWAP6 DUP7 ADD DUP16 SWAP1 MSTORE PUSH1 0x0 DUP11 DUP2 MSTORE PUSH1 0x3 DUP1 DUP8 MSTORE DUP6 DUP3 KECCAK256 DUP10 MLOAD DUP2 SLOAD PUSH20 0xFFFFFFFFFFFFFFFFFFFFFFFFFFFFFFFFFFFFFFFF SWAP2 DUP3 AND PUSH32 0xFFFFFFFFFFFFFFFFFFFFFFFF0000000000000000000000000000000000000000 SWAP2 DUP3 AND OR DUP4 SSTORE DUP12 DUP11 ADD MLOAD DUP4 DUP10 ADD DUP1 SLOAD SWAP2 SWAP1 SWAP4 AND SWAP2 AND OR SWAP1 SSTORE DUP10 DUP8 ADD MLOAD PUSH1 0x2 DUP3 ADD SSTORE SWAP4 DUP10 ADD MLOAD SWAP1 DUP5 ADD SSTORE SWAP1 DUP8 ADD MLOAD PUSH1 0x4 DUP1 DUP5 ADD SWAP2 SWAP1 SWAP2 SSTORE SWAP6 DUP8 ADD MLOAD PUSH1 0x5 DUP1 DUP5 ADD SWAP2 SWAP1 SWAP2 SSTORE PUSH1 0xC0 DUP9 ADD MLOAD PUSH1 0x6 DUP5 ADD DUP1 SLOAD SWAP2 ISZERO ISZERO PUSH32 0xFFFFFFFFFFFFFFFFFFFFFFFFFFFFFFFFFFFFFFFFFFFFFFFFFFFFFFFFFFFFFF00 SWAP1 SWAP3 AND SWAP2 SWAP1 SWAP2 OR SWAP1 SSTORE PUSH1 0xE0 DUP9 ADD MLOAD PUSH1 0x7 DUP5 ADD SSTORE PUSH2 0x100 SWAP1 SWAP8 ADD MLOAD PUSH1 0x8 SWAP1 SWAP3 ADD SWAP2 SWAP1 SWAP2 SSTORE DUP14 DUP2 MSTORE SWAP4 DUP4 MSTORE DUP2 DUP5 KECCAK256 DUP9 SWAP1 SSTORE CALLER DUP5 MSTORE SWAP4 DUP3 MSTORE DUP3 KECCAK256 DUP1 SLOAD SWAP4 DUP5 ADD DUP2 SSTORE DUP3 MSTORE DUP2 KECCAK256 SWAP1 SWAP2 ADD DUP5 SWAP1 SSTORE PUSH1 0xA DUP1 SLOAD SWAP2 PUSH2 0x170E DUP4 PUSH2 0x1C2C JUMP JUMPDEST SWAP1 SWAP2 SSTORE POP POP PUSH1 0x40 DUP1 MLOAD PUSH20 0xFFFFFFFFFFFFFFFFFFFFFFFFFFFFFFFFFFFFFFFF DUP10 AND DUP2 MSTORE PUSH1 0x20 DUP2 ADD DUP9 SWAP1 MSTORE SWAP1 DUP2 ADD DUP7 SWAP1 MSTORE CALLVALUE PUSH1 0x60 DUP3 ADD MSTORE CALLER SWAP1 DUP10 SWAP1 DUP6 SWAP1 PUSH32 0xB36C4BEF0713F0C0C77CDD8AC3FC21C16F501F36E0932AA3CE99984CFAEBADDC SWAP1 PUSH1 0x80 ADD PUSH1 0x40 MLOAD DUP1 SWAP2 SUB SWAP1 LOG4 POP POP PUSH2 0x1781 PUSH1 0x1 DUP1 SSTORE JUMP JUMPDEST SWAP6 SWAP5 POP POP POP POP POP JUMP JUMPDEST PUSH1 0x0 SLOAD PUSH20 0xFFFFFFFFFFFFFFFFFFFFFFFFFFFFFFFFFFFFFFFF AND CALLER EQ PUSH2 0xB8A JUMPI PUSH1 0x40 MLOAD PUSH32 0x118CDAA700000000000000000000000000000000000000000000000000000000 DUP2 MSTORE CALLER PUSH1 0x4 DUP3 ADD MSTORE PUSH1 0x24 ADD PUSH2 0x965 JUMP JUMPDEST PUSH1 0x2 PUSH1 0x1 SLOAD SUB PUSH2 0x1819 JUMPI PUSH1 0x40 MLOAD PUSH32 0x3EE5AEB500000000000000000000000000000000000000000000000000000000 DUP2 MSTORE PUSH1 0x4 ADD PUSH1 0x40 MLOAD DUP1 SWAP2 SUB SWAP1 REVERT JUMPDEST PUSH1 0x2 PUSH1 0x1 SSTORE JUMP JUMPDEST PUSH2 0x1828 PUSH2 0x19AA JUMP JUMPDEST PUSH1 0x2 DUP1 SLOAD PUSH32 0xFFFFFFFFFFFFFFFFFFFFFFFFFFFFFFFFFFFFFFFFFFFFFFFFFFFFFFFFFFFFFF00 AND SWAP1 SSTORE PUSH32 0x5DB9EE0A495BF2E6FF9C91A7834C1BA4FDD244A5E8AA4E537BD38AEAE4B073AA CALLER JUMPDEST PUSH1 0x40 MLOAD PUSH20 0xFFFFFFFFFFFFFFFFFFFFFFFFFFFFFFFFFFFFFFFF SWAP1 SWAP2 AND DUP2 MSTORE PUSH1 0x20 ADD PUSH1 0x40 MLOAD DUP1 SWAP2 SUB SWAP1 LOG1 JUMP JUMPDEST PUSH1 0x0 DUP1 SLOAD PUSH20 0xFFFFFFFFFFFFFFFFFFFFFFFFFFFFFFFFFFFFFFFF DUP4 DUP2 AND PUSH32 0xFFFFFFFFFFFFFFFFFFFFFFFF0000000000000000000000000000000000000000 DUP4 AND DUP2 OR DUP5 SSTORE PUSH1 0x40 MLOAD SWAP2 SWAP1 SWAP3 AND SWAP3 DUP4 SWAP2 PUSH32 0x8BE0079C531659141344CD1FD0A4F28419497F9722A3DAAFE3B4186F6B6457E0 SWAP2 SWAP1 LOG3 POP POP JUMP JUMPDEST PUSH2 0x191A PUSH2 0x196D JUMP JUMPDEST PUSH1 0x2 DUP1 SLOAD PUSH32 0xFFFFFFFFFFFFFFFFFFFFFFFFFFFFFFFFFFFFFFFFFFFFFFFFFFFFFFFFFFFFFF00 AND PUSH1 0x1 OR SWAP1 SSTORE PUSH32 0x62E78CEA01BEE320CD4E420270B5EA74000D11B0C9F74754EBDBFC544B05A258 PUSH2 0x1873 CALLER SWAP1 JUMP JUMPDEST PUSH1 0x2 SLOAD PUSH1 0xFF AND ISZERO PUSH2 0xB8A JUMPI PUSH1 0x40 MLOAD PUSH32 0xD93C066500000000000000000000000000000000000000000000000000000000 DUP2 MSTORE PUSH1 0x4 ADD PUSH1 0x40 MLOAD DUP1 SWAP2 SUB SWAP1 REVERT JUMPDEST PUSH1 0x2 SLOAD PUSH1 0xFF AND PUSH2 0xB8A JUMPI PUSH1 0x40 MLOAD PUSH32 0x8DFC202B00000000000000000000000000000000000000000000000000000000 DUP2 MSTORE PUSH1 0x4 ADD PUSH1 0x40 MLOAD DUP1 SWAP2 SUB SWAP1 REVERT JUMPDEST PUSH1 0x0 PUSH1 0x20 DUP3 DUP5 SUB SLT ISZERO PUSH2 0x19F8 JUMPI PUSH1 0x0 DUP1 REVERT JUMPDEST POP CALLDATALOAD SWAP2 SWAP1 POP JUMP JUMPDEST DUP1 CALLDATALOAD PUSH20 0xFFFFFFFFFFFFFFFFFFFFFFFFFFFFFFFFFFFFFFFF DUP2 AND DUP2 EQ PUSH2 0x1A23 JUMPI PUSH1 0x0 DUP1 REVERT JUMPDEST SWAP2 SWAP1 POP JUMP JUMPDEST PUSH1 0x0 PUSH1 0x20 DUP3 DUP5 SUB SLT ISZERO PUSH2 0x1A3A JUMPI PUSH1 0x0 DUP1 REVERT JUMPDEST PUSH2 0x1A43 DUP3 PUSH2 0x19FF JUMP JUMPDEST SWAP4 SWAP3 POP POP POP JUMP JUMPDEST PUSH1 0x20 DUP1 DUP3 MSTORE DUP3 MLOAD DUP3 DUP3 ADD DUP2 SWAP1 MSTORE PUSH1 0x0 SWAP2 SWAP1 DUP5 DUP3 ADD SWAP1 PUSH1 0x40 DUP6 ADD SWAP1 DUP5 JUMPDEST DUP2 DUP2 LT ISZERO PUSH2 0x1A82 JUMPI DUP4 MLOAD DUP4 MSTORE SWAP3 DUP5 ADD SWAP3 SWAP2 DUP5 ADD SWAP2 PUSH1 0x1 ADD PUSH2 0x1A66 JUMP JUMPDEST POP SWAP1 SWAP7 SWAP6 POP POP POP POP POP POP JUMP JUMPDEST PUSH1 0x0 PUSH2 0x120 DUP3 ADD SWAP1 POP PUSH20 0xFFFFFFFFFFFFFFFFFFFFFFFFFFFFFFFFFFFFFFFF DUP1 DUP5 MLOAD AND DUP4 MSTORE DUP1 PUSH1 0x20 DUP6 ADD MLOAD AND PUSH1 0x20 DUP5 ADD MSTORE POP PUSH1 0x40 DUP4 ADD MLOAD PUSH1 0x40 DUP4 ADD MSTORE PUSH1 0x60 DUP4 ADD MLOAD PUSH1 0x60 DUP4 ADD MSTORE PUSH1 0x80 DUP4 ADD MLOAD PUSH1 0x80 DUP4 ADD MSTORE PUSH1 0xA0 DUP4 ADD MLOAD PUSH1 0xA0 DUP4 ADD MSTORE PUSH1 0xC0 DUP4 ADD MLOAD PUSH2 0x1AFA PUSH1 0xC0 DUP5 ADD DUP3 ISZERO ISZERO SWAP1 MSTORE JUMP JUMPDEST POP PUSH1 0xE0 DUP4 ADD MLOAD PUSH1 0xE0 DUP4 ADD MSTORE PUSH2 0x100 DUP1 DUP5 ADD MLOAD DUP2 DUP5 ADD MSTORE POP SWAP3 SWAP2 POP POP JUMP JUMPDEST PUSH1 0x0 DUP1 PUSH1 0x40 DUP4 DUP6 SUB SLT ISZERO PUSH2 0x1B2A JUMPI PUSH1 0x0 DUP1 REVERT JUMPDEST POP POP DUP1 CALLDATALOAD SWAP3 PUSH1 0x20 SWAP1 SWAP2 ADD CALLDATALOAD SWAP2 POP JUMP JUMPDEST PUSH1 0x0 DUP1 PUSH1 0x0 DUP1 PUSH1 0x0 PUSH1 0xA0 DUP7 DUP9 SUB SLT ISZERO PUSH2 0x1B51 JUMPI PUSH1 0x0 DUP1 REVERT JUMPDEST DUP6 CALLDATALOAD SWAP5 POP PUSH2 0x1B61 PUSH1 0x20 DUP8 ADD PUSH2 0x19FF JUMP JUMPDEST SWAP5 SWAP8 SWAP5 SWAP7 POP POP POP POP PUSH1 0x40 DUP4 ADD CALLDATALOAD SWAP3 PUSH1 0x60 DUP2 ADD CALLDATALOAD SWAP3 PUSH1 0x80 SWAP1 SWAP2 ADD CALLDATALOAD SWAP2 POP JUMP JUMPDEST PUSH32 0x4E487B7100000000000000000000000000000000000000000000000000000000 PUSH1 0x0 MSTORE PUSH1 0x11 PUSH1 0x4 MSTORE PUSH1 0x24 PUSH1 0x0 REVERT JUMPDEST DUP2 DUP2 SUB DUP2 DUP2 GT ISZERO PUSH2 0x1BC1 JUMPI PUSH2 0x1BC1 PUSH2 0x1B7F JUMP JUMPDEST SWAP3 SWAP2 POP POP JUMP JUMPDEST DUP1 DUP3 MUL DUP2 ISZERO DUP3 DUP3 DIV DUP5 EQ OR PUSH2 0x1BC1 JUMPI PUSH2 0x1BC1 PUSH2 0x1B7F JUMP JUMPDEST PUSH1 0x0 DUP3 PUSH2 0x1C14 JUMPI PUSH32 0x4E487B7100000000000000000000000000000000000000000000000000000000 PUSH1 0x0 MSTORE PUSH1 0x12 PUSH1 0x4 MSTORE PUSH1 0x24 PUSH1 0x0 REVERT JUMPDEST POP DIV SWAP1 JUMP JUMPDEST DUP1 DUP3 ADD DUP1 DUP3 GT ISZERO PUSH2 0x1BC1 JUMPI PUSH2 0x1BC1 PUSH2 0x1B7F JUMP JUMPDEST PUSH1 0x0 PUSH32 0xFFFFFFFFFFFFFFFFFFFFFFFFFFFFFFFFFFFFFFFFFFFFFFFFFFFFFFFFFFFFFFFF DUP3 SUB PUSH2 0x1C5D JUMPI PUSH2 0x1C5D PUSH2 0x1B7F JUMP JUMPDEST POP PUSH1 0x1 ADD SWAP1 JUMP INVALID LOG2 PUSH5 0x6970667358 0x22 SLT KECCAK256 JUMPI 0xBD CALL 0x2D 0xC7 PUSH27 0x98F5FF6F91F7165B114355379A97BEDFDFC8BBC5A5E3B5F1807F64 PUSH20 0x6F6C634300081400330000000000000000000000 "},"methodIdentifiers":{"MAX_PLATFORM_FEE()":"3998a681","MAX_RENTAL_DURATION()":"4f65473c","MIN_RENTAL_DURATION()":"0a60d6c8","calculateCurrentFees(bytes32)":"acc909b1","createRental(bytes32,address,uint256,uint256,bytes32)":"fd8e54d9","emergencyClose(bytes32)":"ef3983ec","endRental(bytes32)":"2ce7e667","extendRental(bytes32,uint256)":"f318019b","getRental(bytes32)":"d978f6ad","getRenterRentals(address)":"8e5d9470","minCollateralBps()":"7d8ce315","owner()":"8da5cb5b","pause()":"8456cb59","paused()":"5c975abb","platformFeeBps()":"22dcd13e","positionToRental(bytes32)":"91837f14","renounceOwnership()":"715018a6","rentalVault()":"b617efe1","rentals(bytes32)":"7df8768e","setMinCollateral(uint256)":"846321a4","setPlatformFee(uint256)":"12e8e2c3","totalFeesCollected()":"60c6d8ae","totalRentals()":"dd4b22d1","transferOwnership(address)":"f2fde38b","unpause()":"3f4ba83a","yellowChannelManager()":"35f4d72b"}}}}}