{
  "_format": "hh-sol-artifact-1",
  "contractName": "UnifiedFlashLP",
  "sourceName": "contracts/src/UnifiedFlashLP.sol",
  "abi": [
    {
      "inputs": [
        {
          "internalType": "address",
          "name": "_yellowChannelManager",
          "type": "address"
        }
      ],
      "stateMutability": "nonpayable",
      "type": "constructor"
    },
    {
      "inputs": [
        {
          "internalType": "address",
          "name": "sender",
          "type": "address"
        },
        {
          "internalType": "uint256",
          "name": "tokenId",
          "type": "uint256"
        },
        {
          "internalType": "address",
          "name": "owner",
          "type": "address"
        }
      ],
      "name": "ERC721IncorrectOwner",
      "type": "error"
    },
    {
      "inputs": [
        {
          "internalType": "address",
          "name": "operator",
          "type": "address"
        },
        {
          "internalType": "uint256",
          "name": "tokenId",
          "type": "uint256"
        }
      ],
      "name": "ERC721InsufficientApproval",
      "type": "error"
    },
    {
      "inputs": [
        {
          "internalType": "address",
          "name": "approver",
          "type": "address"
        }
      ],
      "name": "ERC721InvalidApprover",
      "type": "error"
    },
    {
      "inputs": [
        {
          "internalType": "address",
          "name": "operator",
          "type": "address"
        }
      ],
      "name": "ERC721InvalidOperator",
      "type": "error"
    },
    {
      "inputs": [
        {
          "internalType": "address",
          "name": "owner",
          "type": "address"
        }
      ],
      "name": "ERC721InvalidOwner",
      "type": "error"
    },
    {
      "inputs": [
        {
          "internalType": "address",
          "name": "receiver",
          "type": "address"
        }
      ],
      "name": "ERC721InvalidReceiver",
      "type": "error"
    },
    {
      "inputs": [
        {
          "internalType": "address",
          "name": "sender",
          "type": "address"
        }
      ],
      "name": "ERC721InvalidSender",
      "type": "error"
    },
    {
      "inputs": [
        {
          "internalType": "uint256",
          "name": "tokenId",
          "type": "uint256"
        }
      ],
      "name": "ERC721NonexistentToken",
      "type": "error"
    },
    {
      "inputs": [
        {
          "internalType": "address",
          "name": "owner",
          "type": "address"
        }
      ],
      "name": "OwnableInvalidOwner",
      "type": "error"
    },
    {
      "inputs": [
        {
          "internalType": "address",
          "name": "account",
          "type": "address"
        }
      ],
      "name": "OwnableUnauthorizedAccount",
      "type": "error"
    },
    {
      "inputs": [],
      "name": "ReentrancyGuardReentrantCall",
      "type": "error"
    },
    {
      "anonymous": false,
      "inputs": [
        {
          "indexed": true,
          "internalType": "address",
          "name": "owner",
          "type": "address"
        },
        {
          "indexed": true,
          "internalType": "address",
          "name": "approved",
          "type": "address"
        },
        {
          "indexed": true,
          "internalType": "uint256",
          "name": "tokenId",
          "type": "uint256"
        }
      ],
      "name": "Approval",
      "type": "event"
    },
    {
      "anonymous": false,
      "inputs": [
        {
          "indexed": true,
          "internalType": "address",
          "name": "owner",
          "type": "address"
        },
        {
          "indexed": true,
          "internalType": "address",
          "name": "operator",
          "type": "address"
        },
        {
          "indexed": false,
          "internalType": "bool",
          "name": "approved",
          "type": "bool"
        }
      ],
      "name": "ApprovalForAll",
      "type": "event"
    },
    {
      "anonymous": false,
      "inputs": [
        {
          "indexed": true,
          "internalType": "address",
          "name": "previousOwner",
          "type": "address"
        },
        {
          "indexed": true,
          "internalType": "address",
          "name": "newOwner",
          "type": "address"
        }
      ],
      "name": "OwnershipTransferred",
      "type": "event"
    },
    {
      "anonymous": false,
      "inputs": [
        {
          "indexed": true,
          "internalType": "uint256",
          "name": "poolId",
          "type": "uint256"
        },
        {
          "indexed": false,
          "internalType": "address",
          "name": "owner",
          "type": "address"
        },
        {
          "indexed": false,
          "internalType": "address",
          "name": "token0",
          "type": "address"
        },
        {
          "indexed": false,
          "internalType": "address",
          "name": "token1",
          "type": "address"
        }
      ],
      "name": "PoolCreated",
      "type": "event"
    },
    {
      "anonymous": false,
      "inputs": [
        {
          "indexed": true,
          "internalType": "uint256",
          "name": "rentalId",
          "type": "uint256"
        },
        {
          "indexed": true,
          "internalType": "uint256",
          "name": "poolId",
          "type": "uint256"
        },
        {
          "indexed": false,
          "internalType": "address",
          "name": "renter",
          "type": "address"
        },
        {
          "indexed": false,
          "internalType": "uint256",
          "name": "duration",
          "type": "uint256"
        }
      ],
      "name": "RentalCreated",
      "type": "event"
    },
    {
      "anonymous": false,
      "inputs": [
        {
          "indexed": true,
          "internalType": "uint256",
          "name": "rentalId",
          "type": "uint256"
        },
        {
          "indexed": false,
          "internalType": "uint256",
          "name": "feesEarned",
          "type": "uint256"
        }
      ],
      "name": "RentalEnded",
      "type": "event"
    },
    {
      "anonymous": false,
      "inputs": [
        {
          "indexed": true,
          "internalType": "uint256",
          "name": "rentalId",
          "type": "uint256"
        },
        {
          "indexed": false,
          "internalType": "uint256",
          "name": "amountIn",
          "type": "uint256"
        },
        {
          "indexed": false,
          "internalType": "uint256",
          "name": "amountOut",
          "type": "uint256"
        }
      ],
      "name": "SwapExecuted",
      "type": "event"
    },
    {
      "anonymous": false,
      "inputs": [
        {
          "indexed": true,
          "internalType": "address",
          "name": "from",
          "type": "address"
        },
        {
          "indexed": true,
          "internalType": "address",
          "name": "to",
          "type": "address"
        },
        {
          "indexed": true,
          "internalType": "uint256",
          "name": "tokenId",
          "type": "uint256"
        }
      ],
      "name": "Transfer",
      "type": "event"
    },
    {
      "inputs": [
        {
          "internalType": "address",
          "name": "to",
          "type": "address"
        },
        {
          "internalType": "uint256",
          "name": "tokenId",
          "type": "uint256"
        }
      ],
      "name": "approve",
      "outputs": [],
      "stateMutability": "nonpayable",
      "type": "function"
    },
    {
      "inputs": [
        {
          "internalType": "address",
          "name": "owner",
          "type": "address"
        }
      ],
      "name": "balanceOf",
      "outputs": [
        {
          "internalType": "uint256",
          "name": "",
          "type": "uint256"
        }
      ],
      "stateMutability": "view",
      "type": "function"
    },
    {
      "inputs": [
        {
          "internalType": "address",
          "name": "token0",
          "type": "address"
        },
        {
          "internalType": "address",
          "name": "token1",
          "type": "address"
        },
        {
          "internalType": "uint256",
          "name": "amount0",
          "type": "uint256"
        },
        {
          "internalType": "uint256",
          "name": "amount1",
          "type": "uint256"
        }
      ],
      "name": "createPool",
      "outputs": [
        {
          "internalType": "uint256",
          "name": "poolId",
          "type": "uint256"
        }
      ],
      "stateMutability": "nonpayable",
      "type": "function"
    },
    {
      "inputs": [
        {
          "internalType": "uint256",
          "name": "rentalId",
          "type": "uint256"
        }
      ],
      "name": "endRental",
      "outputs": [],
      "stateMutability": "nonpayable",
      "type": "function"
    },
    {
      "inputs": [
        {
          "internalType": "uint256",
          "name": "rentalId",
          "type": "uint256"
        },
        {
          "internalType": "address",
          "name": "tokenIn",
          "type": "address"
        },
        {
          "internalType": "uint256",
          "name": "amountIn",
          "type": "uint256"
        },
        {
          "internalType": "uint256",
          "name": "minOut",
          "type": "uint256"
        }
      ],
      "name": "executeSwap",
      "outputs": [
        {
          "internalType": "uint256",
          "name": "amountOut",
          "type": "uint256"
        }
      ],
      "stateMutability": "nonpayable",
      "type": "function"
    },
    {
      "inputs": [
        {
          "internalType": "uint256",
          "name": "tokenId",
          "type": "uint256"
        }
      ],
      "name": "getApproved",
      "outputs": [
        {
          "internalType": "address",
          "name": "",
          "type": "address"
        }
      ],
      "stateMutability": "view",
      "type": "function"
    },
    {
      "inputs": [
        {
          "internalType": "address",
          "name": "owner",
          "type": "address"
        }
      ],
      "name": "getOwnerPools",
      "outputs": [
        {
          "internalType": "uint256[]",
          "name": "",
          "type": "uint256[]"
        }
      ],
      "stateMutability": "view",
      "type": "function"
    },
    {
      "inputs": [
        {
          "internalType": "uint256",
          "name": "poolId",
          "type": "uint256"
        }
      ],
      "name": "getPool",
      "outputs": [
        {
          "components": [
            {
              "internalType": "address",
              "name": "owner",
              "type": "address"
            },
            {
              "internalType": "address",
              "name": "token0",
              "type": "address"
            },
            {
              "internalType": "address",
              "name": "token1",
              "type": "address"
            },
            {
              "internalType": "uint256",
              "name": "amount0",
              "type": "uint256"
            },
            {
              "internalType": "uint256",
              "name": "amount1",
              "type": "uint256"
            },
            {
              "internalType": "bool",
              "name": "exists",
              "type": "bool"
            }
          ],
          "internalType": "struct UnifiedFlashLP.Pool",
          "name": "",
          "type": "tuple"
        }
      ],
      "stateMutability": "view",
      "type": "function"
    },
    {
      "inputs": [
        {
          "internalType": "uint256",
          "name": "rentalId",
          "type": "uint256"
        }
      ],
      "name": "getRental",
      "outputs": [
        {
          "components": [
            {
              "internalType": "uint256",
              "name": "poolId",
              "type": "uint256"
            },
            {
              "internalType": "address",
              "name": "renter",
              "type": "address"
            },
            {
              "internalType": "address",
              "name": "poolOwner",
              "type": "address"
            },
            {
              "internalType": "uint256",
              "name": "startTime",
              "type": "uint256"
            },
            {
              "internalType": "uint256",
              "name": "endTime",
              "type": "uint256"
            },
            {
              "internalType": "uint256",
              "name": "pricePerSecond",
              "type": "uint256"
            },
            {
              "internalType": "uint256",
              "name": "collateral",
              "type": "uint256"
            },
            {
              "internalType": "bool",
              "name": "isActive",
              "type": "bool"
            },
            {
              "internalType": "uint256",
              "name": "swapCount",
              "type": "uint256"
            },
            {
              "internalType": "uint256",
              "name": "feesEarned",
              "type": "uint256"
            },
            {
              "internalType": "bytes32",
              "name": "channelId",
              "type": "bytes32"
            }
          ],
          "internalType": "struct UnifiedFlashLP.Rental",
          "name": "",
          "type": "tuple"
        }
      ],
      "stateMutability": "view",
      "type": "function"
    },
    {
      "inputs": [
        {
          "internalType": "address",
          "name": "renter",
          "type": "address"
        }
      ],
      "name": "getRenterRentals",
      "outputs": [
        {
          "internalType": "uint256[]",
          "name": "",
          "type": "uint256[]"
        }
      ],
      "stateMutability": "view",
      "type": "function"
    },
    {
      "inputs": [
        {
          "internalType": "address",
          "name": "owner",
          "type": "address"
        },
        {
          "internalType": "address",
          "name": "operator",
          "type": "address"
        }
      ],
      "name": "isApprovedForAll",
      "outputs": [
        {
          "internalType": "bool",
          "name": "",
          "type": "bool"
        }
      ],
      "stateMutability": "view",
      "type": "function"
    },
    {
      "inputs": [],
      "name": "name",
      "outputs": [
        {
          "internalType": "string",
          "name": "",
          "type": "string"
        }
      ],
      "stateMutability": "view",
      "type": "function"
    },
    {
      "inputs": [],
      "name": "owner",
      "outputs": [
        {
          "internalType": "address",
          "name": "",
          "type": "address"
        }
      ],
      "stateMutability": "view",
      "type": "function"
    },
    {
      "inputs": [
        {
          "internalType": "uint256",
          "name": "tokenId",
          "type": "uint256"
        }
      ],
      "name": "ownerOf",
      "outputs": [
        {
          "internalType": "address",
          "name": "",
          "type": "address"
        }
      ],
      "stateMutability": "view",
      "type": "function"
    },
    {
      "inputs": [
        {
          "internalType": "address",
          "name": "",
          "type": "address"
        },
        {
          "internalType": "uint256",
          "name": "",
          "type": "uint256"
        }
      ],
      "name": "ownerPools",
      "outputs": [
        {
          "internalType": "uint256",
          "name": "",
          "type": "uint256"
        }
      ],
      "stateMutability": "view",
      "type": "function"
    },
    {
      "inputs": [],
      "name": "platformFeeBps",
      "outputs": [
        {
          "internalType": "uint256",
          "name": "",
          "type": "uint256"
        }
      ],
      "stateMutability": "view",
      "type": "function"
    },
    {
      "inputs": [
        {
          "internalType": "uint256",
          "name": "",
          "type": "uint256"
        }
      ],
      "name": "pools",
      "outputs": [
        {
          "internalType": "address",
          "name": "owner",
          "type": "address"
        },
        {
          "internalType": "address",
          "name": "token0",
          "type": "address"
        },
        {
          "internalType": "address",
          "name": "token1",
          "type": "address"
        },
        {
          "internalType": "uint256",
          "name": "amount0",
          "type": "uint256"
        },
        {
          "internalType": "uint256",
          "name": "amount1",
          "type": "uint256"
        },
        {
          "internalType": "bool",
          "name": "exists",
          "type": "bool"
        }
      ],
      "stateMutability": "view",
      "type": "function"
    },
    {
      "inputs": [],
      "name": "renounceOwnership",
      "outputs": [],
      "stateMutability": "nonpayable",
      "type": "function"
    },
    {
      "inputs": [
        {
          "internalType": "uint256",
          "name": "poolId",
          "type": "uint256"
        },
        {
          "internalType": "uint256",
          "name": "duration",
          "type": "uint256"
        },
        {
          "internalType": "uint256",
          "name": "pricePerSecond",
          "type": "uint256"
        },
        {
          "internalType": "bytes32",
          "name": "channelId",
          "type": "bytes32"
        }
      ],
      "name": "rentPool",
      "outputs": [
        {
          "internalType": "uint256",
          "name": "rentalId",
          "type": "uint256"
        }
      ],
      "stateMutability": "payable",
      "type": "function"
    },
    {
      "inputs": [
        {
          "internalType": "uint256",
          "name": "",
          "type": "uint256"
        }
      ],
      "name": "rentals",
      "outputs": [
        {
          "internalType": "uint256",
          "name": "poolId",
          "type": "uint256"
        },
        {
          "internalType": "address",
          "name": "renter",
          "type": "address"
        },
        {
          "internalType": "address",
          "name": "poolOwner",
          "type": "address"
        },
        {
          "internalType": "uint256",
          "name": "startTime",
          "type": "uint256"
        },
        {
          "internalType": "uint256",
          "name": "endTime",
          "type": "uint256"
        },
        {
          "internalType": "uint256",
          "name": "pricePerSecond",
          "type": "uint256"
        },
        {
          "internalType": "uint256",
          "name": "collateral",
          "type": "uint256"
        },
        {
          "internalType": "bool",
          "name": "isActive",
          "type": "bool"
        },
        {
          "internalType": "uint256",
          "name": "swapCount",
          "type": "uint256"
        },
        {
          "internalType": "uint256",
          "name": "feesEarned",
          "type": "uint256"
        },
        {
          "internalType": "bytes32",
          "name": "channelId",
          "type": "bytes32"
        }
      ],
      "stateMutability": "view",
      "type": "function"
    },
    {
      "inputs": [
        {
          "internalType": "address",
          "name": "",
          "type": "address"
        },
        {
          "internalType": "uint256",
          "name": "",
          "type": "uint256"
        }
      ],
      "name": "renterRentals",
      "outputs": [
        {
          "internalType": "uint256",
          "name": "",
          "type": "uint256"
        }
      ],
      "stateMutability": "view",
      "type": "function"
    },
    {
      "inputs": [
        {
          "internalType": "address",
          "name": "from",
          "type": "address"
        },
        {
          "internalType": "address",
          "name": "to",
          "type": "address"
        },
        {
          "internalType": "uint256",
          "name": "tokenId",
          "type": "uint256"
        }
      ],
      "name": "safeTransferFrom",
      "outputs": [],
      "stateMutability": "nonpayable",
      "type": "function"
    },
    {
      "inputs": [
        {
          "internalType": "address",
          "name": "from",
          "type": "address"
        },
        {
          "internalType": "address",
          "name": "to",
          "type": "address"
        },
        {
          "internalType": "uint256",
          "name": "tokenId",
          "type": "uint256"
        },
        {
          "internalType": "bytes",
          "name": "data",
          "type": "bytes"
        }
      ],
      "name": "safeTransferFrom",
      "outputs": [],
      "stateMutability": "nonpayable",
      "type": "function"
    },
    {
      "inputs": [
        {
          "internalType": "address",
          "name": "operator",
          "type": "address"
        },
        {
          "internalType": "bool",
          "name": "approved",
          "type": "bool"
        }
      ],
      "name": "setApprovalForAll",
      "outputs": [],
      "stateMutability": "nonpayable",
      "type": "function"
    },
    {
      "inputs": [
        {
          "internalType": "uint256",
          "name": "newFee",
          "type": "uint256"
        }
      ],
      "name": "setPlatformFee",
      "outputs": [],
      "stateMutability": "nonpayable",
      "type": "function"
    },
    {
      "inputs": [
        {
          "internalType": "address",
          "name": "_newManager",
          "type": "address"
        }
      ],
      "name": "setYellowChannelManager",
      "outputs": [],
      "stateMutability": "nonpayable",
      "type": "function"
    },
    {
      "inputs": [
        {
          "internalType": "uint256",
          "name": "rentalId",
          "type": "uint256"
        },
        {
          "internalType": "uint256",
          "name": "finalBalance1",
          "type": "uint256"
        },
        {
          "internalType": "uint256",
          "name": "finalBalance2",
          "type": "uint256"
        },
        {
          "internalType": "uint256",
          "name": "nonce",
          "type": "uint256"
        },
        {
          "internalType": "bytes",
          "name": "signature1",
          "type": "bytes"
        },
        {
          "internalType": "bytes",
          "name": "signature2",
          "type": "bytes"
        }
      ],
      "name": "settleRentalWithYellow",
      "outputs": [],
      "stateMutability": "nonpayable",
      "type": "function"
    },
    {
      "inputs": [
        {
          "internalType": "uint256",
          "name": "",
          "type": "uint256"
        }
      ],
      "name": "supportedChains",
      "outputs": [
        {
          "internalType": "bool",
          "name": "",
          "type": "bool"
        }
      ],
      "stateMutability": "view",
      "type": "function"
    },
    {
      "inputs": [
        {
          "internalType": "bytes4",
          "name": "interfaceId",
          "type": "bytes4"
        }
      ],
      "name": "supportsInterface",
      "outputs": [
        {
          "internalType": "bool",
          "name": "",
          "type": "bool"
        }
      ],
      "stateMutability": "view",
      "type": "function"
    },
    {
      "inputs": [],
      "name": "symbol",
      "outputs": [
        {
          "internalType": "string",
          "name": "",
          "type": "string"
        }
      ],
      "stateMutability": "view",
      "type": "function"
    },
    {
      "inputs": [
        {
          "internalType": "uint256",
          "name": "tokenId",
          "type": "uint256"
        }
      ],
      "name": "tokenURI",
      "outputs": [
        {
          "internalType": "string",
          "name": "",
          "type": "string"
        }
      ],
      "stateMutability": "view",
      "type": "function"
    },
    {
      "inputs": [
        {
          "internalType": "address",
          "name": "from",
          "type": "address"
        },
        {
          "internalType": "address",
          "name": "to",
          "type": "address"
        },
        {
          "internalType": "uint256",
          "name": "tokenId",
          "type": "uint256"
        }
      ],
      "name": "transferFrom",
      "outputs": [],
      "stateMutability": "nonpayable",
      "type": "function"
    },
    {
      "inputs": [
        {
          "internalType": "address",
          "name": "newOwner",
          "type": "address"
        }
      ],
      "name": "transferOwnership",
      "outputs": [],
      "stateMutability": "nonpayable",
      "type": "function"
    },
    {
      "inputs": [],
      "name": "yellowChannelManager",
      "outputs": [
        {
          "internalType": "contract YellowChannelManager",
          "name": "",
          "type": "address"
        }
      ],
      "stateMutability": "view",
      "type": "function"
    }
  ],
  "bytecode": "0x608060405260c8600a5534801561001557600080fd5b50604051613bb9380380613bb9833981016040819052610034916101b5565b336040518060400160405280600f81526020016e119b185cda0813140814995b9d185b608a1b815250604051806040016040528060048152602001632326282960e11b81525081600090816100899190610284565b5060016100968282610284565b5050506001600160a01b0381166100c757604051631e4fbdf760e01b81526000600482015260240160405180910390fd5b6100d081610163565b5060016007819055600b80546001600160a01b0319166001600160a01b039390931692909217909155600c6020527fbae47782c61057c37fd889fe06144a2ed9ff0809c076f0f53b22edd10a6d39a8805460ff19908116831790915562014a346000527f17bbfc0674498f3551a3f46751af695362e55730db8aed759adb93ad423390a080549091169091179055610342565b600680546001600160a01b038381166001600160a01b0319831681179093556040519116919082907f8be0079c531659141344cd1fd0a4f28419497f9722a3daafe3b4186f6b6457e090600090a35050565b6000602082840312156101c757600080fd5b81516001600160a01b03811681146101de57600080fd5b9392505050565b634e487b7160e01b600052604160045260246000fd5b600181811c9082168061020f57607f821691505b60208210810361022f57634e487b7160e01b600052602260045260246000fd5b50919050565b601f82111561027f57806000526020600020601f840160051c8101602085101561025c5750805b601f840160051c820191505b8181101561027c5760008155600101610268565b50505b505050565b81516001600160401b0381111561029d5761029d6101e5565b6102b1816102ab84546101fb565b84610235565b6020601f8211600181146102e557600083156102cd5750848201515b600019600385901b1c1916600184901b17845561027c565b600084815260208120601f198516915b8281101561031557878501518255602094850194600190920191016102f5565b50848210156103335786840151600019600387901b60f8161c191681555b50505050600190811b01905550565b613868806103516000396000f3fe6080604052600436106102195760003560e01c8063715018a61161011d578063af94a1d1116100b0578063ce685cfe1161007f578063d6e4183a11610064578063d6e4183a1461090f578063e985e9c51461092f578063f2fde38b1461098557600080fd5b8063ce685cfe146108dc578063cf61b51c146108fc57600080fd5b8063af94a1d11461077d578063b5809d1b1461087c578063b88d4fde1461089c578063c87b56dd146108bc57600080fd5b806395d89b41116100ec57806395d89b411461066f57806397491d6f14610684578063a22cb465146106a4578063ac4afa38146106c457600080fd5b8063715018a6146105e2578063884db063146105f75780638da5cb5b146106175780638e5d94701461064257600080fd5b806335f4d72b116101b057806360c352131161017f5780636352211e116101645780636352211e14610575578063652bd29e1461059557806370a08231146105c257600080fd5b806360c3521314610535578063613d367f1461055557600080fd5b806335f4d72b14610498578063375972d7146104c557806342842e0e146104e5578063548d496f1461050557600080fd5b8063095ea7b3116101ec578063095ea7b31461041257806312e8e2c31461043457806322dcd13e1461045457806323b872dd1461047857600080fd5b806301ffc9a71461021e578063068bcd8d1461025357806306fdde03146103ab578063081812fc146103cd575b600080fd5b34801561022a57600080fd5b5061023e610239366004612ffa565b6109a5565b60405190151581526020015b60405180910390f35b34801561025f57600080fd5b5061031b61026e366004613017565b6040805160c081018252600080825260208201819052918101829052606081018290526080810182905260a0810191909152506000908152600d6020908152604091829020825160c081018452815473ffffffffffffffffffffffffffffffffffffffff90811682526001830154811693820193909352600282015490921692820192909252600382015460608201526004820154608082015260059091015460ff16151560a082015290565b60405161024a9190600060c08201905073ffffffffffffffffffffffffffffffffffffffff835116825273ffffffffffffffffffffffffffffffffffffffff602084015116602083015273ffffffffffffffffffffffffffffffffffffffff6040840151166040830152606083015160608301526080830151608083015260a0830151151560a083015292915050565b3480156103b757600080fd5b506103c0610a8a565b60405161024a919061309e565b3480156103d957600080fd5b506103ed6103e8366004613017565b610b1c565b60405173ffffffffffffffffffffffffffffffffffffffff909116815260200161024a565b34801561041e57600080fd5b5061043261042d3660046130da565b610b52565b005b34801561044057600080fd5b5061043261044f366004613017565b610b61565b34801561046057600080fd5b5061046a600a5481565b60405190815260200161024a565b34801561048457600080fd5b50610432610493366004613104565b610bdf565b3480156104a457600080fd5b50600b546103ed9073ffffffffffffffffffffffffffffffffffffffff1681565b3480156104d157600080fd5b5061046a6104e03660046130da565b610cd0565b3480156104f157600080fd5b50610432610500366004613104565b610d01565b34801561051157600080fd5b5061023e610520366004613017565b600c6020526000908152604090205460ff1681565b34801561054157600080fd5b5061046a610550366004613141565b610d21565b34801561056157600080fd5b506104326105703660046131c5565b611147565b34801561058157600080fd5b506103ed610590366004613017565b61150f565b3480156105a157600080fd5b506105b56105b0366004613017565b61151a565b60405161024a9190613260565b3480156105ce57600080fd5b5061046a6105dd366004613320565b611657565b3480156105ee57600080fd5b506104326116d2565b34801561060357600080fd5b5061046a61061236600461333b565b6116e6565b34801561062357600080fd5b5060065473ffffffffffffffffffffffffffffffffffffffff166103ed565b34801561064e57600080fd5b5061066261065d366004613320565b611a46565b60405161024a9190613368565b34801561067b57600080fd5b506103c0611abf565b34801561069057600080fd5b5061043261069f366004613017565b611ace565b3480156106b057600080fd5b506104326106bf3660046133b9565b611e3e565b3480156106d057600080fd5b506107326106df366004613017565b600d6020526000908152604090208054600182015460028301546003840154600485015460059095015473ffffffffffffffffffffffffffffffffffffffff948516959385169490921692909160ff1686565b6040805173ffffffffffffffffffffffffffffffffffffffff9788168152958716602087015293909516928401929092526060830152608082015290151560a082015260c00161024a565b34801561078957600080fd5b5061080e610798366004613017565b600e60205260009081526040902080546001820154600283015460038401546004850154600586015460068701546007880154600889015460098a0154600a909a0154989973ffffffffffffffffffffffffffffffffffffffff988916999890971697959694959394929360ff9092169290918b565b604080519b8c5273ffffffffffffffffffffffffffffffffffffffff9a8b1660208d015298909916978a01979097526060890195909552608088019390935260a087019190915260c0860152151560e08501526101008401526101208301526101408201526101600161024a565b34801561088857600080fd5b50610662610897366004613320565b611e49565b3480156108a857600080fd5b506104326108b736600461341f565b611ec0565b3480156108c857600080fd5b506103c06108d7366004613017565b611ed8565b3480156108e857600080fd5b506104326108f7366004613320565b611f4d565b61046a61090a366004613540565b612019565b34801561091b57600080fd5b5061046a61092a3660046130da565b6123a1565b34801561093b57600080fd5b5061023e61094a366004613572565b73ffffffffffffffffffffffffffffffffffffffff918216600090815260056020908152604080832093909416825291909152205460ff1690565b34801561099157600080fd5b506104326109a0366004613320565b6123bd565b60007fffffffff0000000000000000000000000000000000000000000000000000000082167f80ac58cd000000000000000000000000000000000000000000000000000000001480610a3857507fffffffff0000000000000000000000000000000000000000000000000000000082167f5b5e139f00000000000000000000000000000000000000000000000000000000145b80610a8457507f01ffc9a7000000000000000000000000000000000000000000000000000000007fffffffff000000000000000000000000000000000000000000000000000000008316145b92915050565b606060008054610a99906135a5565b80601f0160208091040260200160405190810160405280929190818152602001828054610ac5906135a5565b8015610b125780601f10610ae757610100808354040283529160200191610b12565b820191906000526020600020905b815481529060010190602001808311610af557829003601f168201915b5050505050905090565b6000610b278261241e565b5060008281526004602052604090205473ffffffffffffffffffffffffffffffffffffffff16610a84565b610b5d82823361247d565b5050565b610b6961248a565b6103e8811115610bda576040517f08c379a000000000000000000000000000000000000000000000000000000000815260206004820152600860248201527f546f6f206869676800000000000000000000000000000000000000000000000060448201526064015b60405180910390fd5b600a55565b73ffffffffffffffffffffffffffffffffffffffff8216610c2f576040517f64a0ae9200000000000000000000000000000000000000000000000000000000815260006004820152602401610bd1565b6000610c3c8383336124dd565b90508373ffffffffffffffffffffffffffffffffffffffff168173ffffffffffffffffffffffffffffffffffffffff1614610cca576040517f64283d7b00000000000000000000000000000000000000000000000000000000815273ffffffffffffffffffffffffffffffffffffffff80861660048301526024820184905282166044820152606401610bd1565b50505050565b60106020528160005260406000208181548110610cec57600080fd5b90600052602060002001600091509150505481565b610d1c83838360405180602001604052806000815250611ec0565b505050565b6000610d2b61265a565b6000858152600e60205260409020600781015460ff16610da7576040517f08c379a000000000000000000000000000000000000000000000000000000000815260206004820152600a60248201527f4e6f7420616374697665000000000000000000000000000000000000000000006044820152606401610bd1565b80600401544210610e14576040517f08c379a000000000000000000000000000000000000000000000000000000000815260206004820152600760248201527f45787069726564000000000000000000000000000000000000000000000000006044820152606401610bd1565b80546000908152600d60205260409020600181015473ffffffffffffffffffffffffffffffffffffffff87811691161480610e6b5750600281015473ffffffffffffffffffffffffffffffffffffffff8781169116145b610ed1576040517f08c379a000000000000000000000000000000000000000000000000000000000815260206004820152600d60248201527f496e76616c696420746f6b656e000000000000000000000000000000000000006044820152606401610bd1565b60006103e8610ee2876103e5613627565b610eec919061363e565b600183015490915073ffffffffffffffffffffffffffffffffffffffff90811690881603610fe457808260030154610f249190613679565b818360040154610f349190613627565b610f3e919061363e565b935084841015610faa576040517f08c379a000000000000000000000000000000000000000000000000000000000815260206004820152600860248201527f536c6970706167650000000000000000000000000000000000000000000000006044820152606401610bd1565b85826003016000828254610fbe9190613679565b9250508190555083826004016000828254610fd9919061368c565b909155506110af9050565b808260040154610ff49190613679565b8183600301546110049190613627565b61100e919061363e565b93508484101561107a576040517f08c379a000000000000000000000000000000000000000000000000000000000815260206004820152600860248201527f536c6970706167650000000000000000000000000000000000000000000000006044820152606401610bd1565b8582600401600082825461108e9190613679565b92505081905550838260030160008282546110a9919061368c565b90915550505b6008830180549060006110c18361369f565b909155506103e890506110d5876003613627565b6110df919061363e565b8360090160008282546110f29190613679565b9091555050604080518781526020810186905289917f4d3257edb95914b701655f9bf4b58e4b422017a7b94dad03a20dae00f4b1cbb7910160405180910390a250505061113f6001600755565b949350505050565b61114f61265a565b6000888152600e60205260409020600781015460ff166111cb576040517f08c379a000000000000000000000000000000000000000000000000000000000815260206004820152600a60248201527f4e6f7420616374697665000000000000000000000000000000000000000000006044820152606401610bd1565b600181015473ffffffffffffffffffffffffffffffffffffffff1633148061120c5750600281015473ffffffffffffffffffffffffffffffffffffffff1633145b611272576040517f08c379a000000000000000000000000000000000000000000000000000000000815260206004820152600e60248201527f4e6f7420617574686f72697a65640000000000000000000000000000000000006044820152606401610bd1565b600a810154806112de576040517f08c379a000000000000000000000000000000000000000000000000000000000815260206004820152601160248201527f4e6f2059656c6c6f77206368616e6e656c0000000000000000000000000000006044820152606401610bd1565b600b546040517f283ffea000000000000000000000000000000000000000000000000000000000815273ffffffffffffffffffffffffffffffffffffffff9091169063283ffea0906113429084908d908d908d908d908d908d908d90600401613720565b600060405180830381600087803b15801561135c57600080fd5b505af1158015611370573d6000803e3d6000fd5b5050506007830180547fffffffffffffffffffffffffffffffffffffffffffffffffffffffffffffff0016905550600a54600090612710906113b2908b613627565b6113bc919061363e565b905060006113ca828b61368c565b9050811561141b5760065460405173ffffffffffffffffffffffffffffffffffffffff9091169083156108fc029084906000818181858888f19350505050158015611419573d6000803e3d6000fd5b505b801561146c57600284015460405173ffffffffffffffffffffffffffffffffffffffff9091169082156108fc029083906000818181858888f1935050505015801561146a573d6000803e3d6000fd5b505b8a156114bd57600184015460405173ffffffffffffffffffffffffffffffffffffffff909116908c156108fc02908d906000818181858888f193505050501580156114bb573d6000803e3d6000fd5b505b8b7fe1f3808c98fd22420231b718eec61ff973b07eb979b8ef9468c59bfac3214bd98b6040516114ef91815260200190565b60405180910390a2505050506115056001600755565b5050505050505050565b6000610a848261241e565b6115a860405180610160016040528060008152602001600073ffffffffffffffffffffffffffffffffffffffff168152602001600073ffffffffffffffffffffffffffffffffffffffff168152602001600081526020016000815260200160008152602001600081526020016000151581526020016000815260200160008152602001600080191681525090565b506000908152600e602090815260409182902082516101608101845281548152600182015473ffffffffffffffffffffffffffffffffffffffff908116938201939093526002820154909216928201929092526003820154606082015260048201546080820152600582015460a0820152600682015460c0820152600782015460ff16151560e082015260088201546101008201526009820154610120820152600a9091015461014082015290565b600073ffffffffffffffffffffffffffffffffffffffff82166116a9576040517f89c62b6400000000000000000000000000000000000000000000000000000000815260006004820152602401610bd1565b5073ffffffffffffffffffffffffffffffffffffffff1660009081526003602052604090205490565b6116da61248a565b6116e4600061269d565b565b60006116f061265a565b73ffffffffffffffffffffffffffffffffffffffff85161580159061172a575073ffffffffffffffffffffffffffffffffffffffff841615155b611790576040517f08c379a000000000000000000000000000000000000000000000000000000000815260206004820152600e60248201527f496e76616c696420746f6b656e730000000000000000000000000000000000006044820152606401610bd1565b8215611835576040517f23b872dd0000000000000000000000000000000000000000000000000000000081523360048201523060248201526044810184905273ffffffffffffffffffffffffffffffffffffffff8616906323b872dd906064016020604051808303816000875af115801561180f573d6000803e3d6000fd5b505050506040513d601f19601f82011682018060405250810190611833919061376e565b505b81156118da576040517f23b872dd0000000000000000000000000000000000000000000000000000000081523360048201523060248201526044810183905273ffffffffffffffffffffffffffffffffffffffff8516906323b872dd906064016020604051808303816000875af11580156118b4573d6000803e3d6000fd5b505050506040513d601f19601f820116820180604052508101906118d8919061376e565b505b6009600081546118e99061369f565b91829055506040805160c0810182523380825273ffffffffffffffffffffffffffffffffffffffff89811660208085018281528b841686880181815260608089018e815260808a018e8152600160a08c0181815260008f8152600d8a528e81209d518e547fffffffffffffffffffffffff0000000000000000000000000000000000000000908116918e16919091178f5598518e840180548b16918e16919091179055955160028e0180549099169b169a909a17909655905160038b01555160048a01559551600590980180547fffffffffffffffffffffffffffffffffffffffffffffffffffffffffffffff001698151598909817909755858752600f8352878720805492830181558752958290200187905585519384528301529281019190915291925082917f070da9921e58d11c5e49283ff7930c3c05239838f04b056bb98b767be6955879910160405180910390a261113f6001600755565b73ffffffffffffffffffffffffffffffffffffffff8116600090815260106020908152604091829020805483518184028101840190945280845260609392830182828015611ab357602002820191906000526020600020905b815481526020019060010190808311611a9f575b50505050509050919050565b606060018054610a99906135a5565b611ad661265a565b6000818152600e60205260409020600781015460ff16611b52576040517f08c379a000000000000000000000000000000000000000000000000000000000815260206004820152600a60248201527f4e6f7420616374697665000000000000000000000000000000000000000000006044820152606401610bd1565b806004015442101580611b7e5750600181015473ffffffffffffffffffffffffffffffffffffffff1633145b80611ba25750600281015473ffffffffffffffffffffffffffffffffffffffff1633145b611c08576040517f08c379a000000000000000000000000000000000000000000000000000000000815260206004820152600e60248201527f4e6f7420617574686f72697a65640000000000000000000000000000000000006044820152606401610bd1565b600081600401544211611c29576003820154611c24904261368c565b611c3d565b81600301548260040154611c3d919061368c565b90506000826005015482611c519190613627565b90506000612710600a548560090154611c6a9190613627565b611c74919061363e565b90506000606485600901546050611c8b9190613627565b611c95919061363e565b90506000606486600901546014611cac9190613627565b611cb6919061363e565b6007870180547fffffffffffffffffffffffffffffffffffffffffffffffffffffffffffffff00169055600287015490915073ffffffffffffffffffffffffffffffffffffffff166108fc611d0b8387613679565b6040518115909202916000818181858888f19350505050158015611d33573d6000803e3d6000fd5b5060065460405173ffffffffffffffffffffffffffffffffffffffff9091169084156108fc029085906000818181858888f19350505050158015611d7b573d6000803e3d6000fd5b50600082858860060154611d8f919061368c565b611d999190613679565b90508015611dec57600187015460405173ffffffffffffffffffffffffffffffffffffffff9091169082156108fc029083906000818181858888f19350505050158015611dea573d6000803e3d6000fd5b505b877fe1f3808c98fd22420231b718eec61ff973b07eb979b8ef9468c59bfac3214bd98860090154604051611e2291815260200190565b60405180910390a250505050505050611e3b6001600755565b50565b610b5d338383612714565b73ffffffffffffffffffffffffffffffffffffffff81166000908152600f6020908152604091829020805483518184028101840190945280845260609392830182828015611ab35760200282019190600052602060002090815481526020019060010190808311611a9f5750505050509050919050565b611ecb848484610bdf565b610cca3385858585612811565b6060611ee38261241e565b506000611efb60408051602081019091526000815290565b90506000815111611f1b5760405180602001604052806000815250611f46565b80611f2584612a0a565b604051602001611f3692919061378b565b6040516020818303038152906040525b9392505050565b611f5561248a565b73ffffffffffffffffffffffffffffffffffffffff8116611fd2576040517f08c379a000000000000000000000000000000000000000000000000000000000815260206004820152600f60248201527f496e76616c6964206164647265737300000000000000000000000000000000006044820152606401610bd1565b600b80547fffffffffffffffffffffffff00000000000000000000000000000000000000001673ffffffffffffffffffffffffffffffffffffffff92909216919091179055565b600061202361265a565b6000858152600d60205260409020600581015460ff1661209f576040517f08c379a000000000000000000000000000000000000000000000000000000000815260206004820152601360248201527f506f6f6c20646f6573206e6f74206578697374000000000000000000000000006044820152606401610bd1565b610e1085101580156120b4575062278d008511155b61211a576040517f08c379a000000000000000000000000000000000000000000000000000000000815260206004820152601060248201527f496e76616c6964206475726174696f6e000000000000000000000000000000006044820152606401610bd1565b60006121268587613627565b9050600061271061213983612ee0613627565b612143919061363e565b9050803410156121af576040517f08c379a000000000000000000000000000000000000000000000000000000000815260206004820152601760248201527f496e73756666696369656e7420636f6c6c61746572616c0000000000000000006044820152606401610bd1565b6008600081546121be9061369f565b918290555093506121cf3385612ac8565b6040805161016081018252898152336020820152845473ffffffffffffffffffffffffffffffffffffffff16918101919091524260608201819052608082019061221a908a90613679565b8152602080820189905234604080840191909152600160608085018290526000608080870182905260a080880183905260c09788018e90528c8352600e8752858320895181558988015181870180547fffffffffffffffffffffffff000000000000000000000000000000000000000090811673ffffffffffffffffffffffffffffffffffffffff938416179091558b8901516002840180549092169216919091179055938901516003850155908801516004840155870151600583015594860151600682015560e08601516007820180547fffffffffffffffffffffffffffffffffffffffffffffffffffffffffffffff00169115159190911790556101008601516008820155610120860151600982015561014090950151600a9095019490945533808452601083528184208054958601815584529282902090930187905582519182528101899052899186917fe0d43dbe5bc09dcaa2b7b4f404b20c81f0dcd8e4edafa0a0ecfca7e07fd0de1c910160405180910390a350505061113f6001600755565b600f6020528160005260406000208181548110610cec57600080fd5b6123c561248a565b73ffffffffffffffffffffffffffffffffffffffff8116612415576040517f1e4fbdf700000000000000000000000000000000000000000000000000000000815260006004820152602401610bd1565b611e3b8161269d565b60008181526002602052604081205473ffffffffffffffffffffffffffffffffffffffff1680610a84576040517f7e27328900000000000000000000000000000000000000000000000000000000815260048101849052602401610bd1565b610d1c8383836001612ae2565b60065473ffffffffffffffffffffffffffffffffffffffff1633146116e4576040517f118cdaa7000000000000000000000000000000000000000000000000000000008152336004820152602401610bd1565b60008281526002602052604081205473ffffffffffffffffffffffffffffffffffffffff9081169083161561251757612517818486612cad565b73ffffffffffffffffffffffffffffffffffffffff81161561258d57612541600085600080612ae2565b73ffffffffffffffffffffffffffffffffffffffff8116600090815260036020526040902080547fffffffffffffffffffffffffffffffffffffffffffffffffffffffffffffffff0190555b73ffffffffffffffffffffffffffffffffffffffff8516156125d65773ffffffffffffffffffffffffffffffffffffffff85166000908152600360205260409020805460010190555b60008481526002602052604080822080547fffffffffffffffffffffffff00000000000000000000000000000000000000001673ffffffffffffffffffffffffffffffffffffffff89811691821790925591518793918516917fddf252ad1be2c89b69c2b068fc378daa952ba7f163c4a11628f55a4df523b3ef91a4949350505050565b600260075403612696576040517f3ee5aeb500000000000000000000000000000000000000000000000000000000815260040160405180910390fd5b6002600755565b6006805473ffffffffffffffffffffffffffffffffffffffff8381167fffffffffffffffffffffffff0000000000000000000000000000000000000000831681179093556040519116919082907f8be0079c531659141344cd1fd0a4f28419497f9722a3daafe3b4186f6b6457e090600090a35050565b73ffffffffffffffffffffffffffffffffffffffff8216612779576040517f5b08ba1800000000000000000000000000000000000000000000000000000000815273ffffffffffffffffffffffffffffffffffffffff83166004820152602401610bd1565b73ffffffffffffffffffffffffffffffffffffffff83811660008181526005602090815260408083209487168084529482529182902080547fffffffffffffffffffffffffffffffffffffffffffffffffffffffffffffff001686151590811790915591519182527f17307eab39ab6107e8899845ad3d59bd9653f200f220920489ca2b5937696c31910160405180910390a3505050565b73ffffffffffffffffffffffffffffffffffffffff83163b15612a03576040517f150b7a0200000000000000000000000000000000000000000000000000000000815273ffffffffffffffffffffffffffffffffffffffff84169063150b7a02906128869088908890879087906004016137ba565b6020604051808303816000875af19250505080156128df575060408051601f3d9081017fffffffffffffffffffffffffffffffffffffffffffffffffffffffffffffffe01682019092526128dc91810190613815565b60015b61296e573d80801561290d576040519150601f19603f3d011682016040523d82523d6000602084013e612912565b606091505b508051600003612966576040517f64a0ae9200000000000000000000000000000000000000000000000000000000815273ffffffffffffffffffffffffffffffffffffffff85166004820152602401610bd1565b805160208201fd5b7fffffffff0000000000000000000000000000000000000000000000000000000081167f150b7a020000000000000000000000000000000000000000000000000000000014612a01576040517f64a0ae9200000000000000000000000000000000000000000000000000000000815273ffffffffffffffffffffffffffffffffffffffff85166004820152602401610bd1565b505b5050505050565b60606000612a1783612d5d565b600101905060008167ffffffffffffffff811115612a3757612a376133f0565b6040519080825280601f01601f191660200182016040528015612a61576020820181803683370190505b5090508181016020015b7fffffffffffffffffffffffffffffffffffffffffffffffffffffffffffffffff017f3031323334353637383961626364656600000000000000000000000000000000600a86061a8153600a8504945084612a6b57509392505050565b610b5d828260405180602001604052806000815250612e3f565b8080612b03575073ffffffffffffffffffffffffffffffffffffffff821615155b15612c58576000612b138461241e565b905073ffffffffffffffffffffffffffffffffffffffff831615801590612b6657508273ffffffffffffffffffffffffffffffffffffffff168173ffffffffffffffffffffffffffffffffffffffff1614155b8015612ba5575073ffffffffffffffffffffffffffffffffffffffff80821660009081526005602090815260408083209387168352929052205460ff16155b15612bf4576040517fa9fbf51f00000000000000000000000000000000000000000000000000000000815273ffffffffffffffffffffffffffffffffffffffff84166004820152602401610bd1565b8115612c5657838573ffffffffffffffffffffffffffffffffffffffff168273ffffffffffffffffffffffffffffffffffffffff167f8c5be1e5ebec7d5bd14f71427d1e84f3dd0314c0f7b2291e5b200ac8c7c3b92560405160405180910390a45b505b5050600090815260046020526040902080547fffffffffffffffffffffffff00000000000000000000000000000000000000001673ffffffffffffffffffffffffffffffffffffffff92909216919091179055565b612cb8838383612e57565b610d1c5773ffffffffffffffffffffffffffffffffffffffff8316612d0c576040517f7e27328900000000000000000000000000000000000000000000000000000000815260048101829052602401610bd1565b6040517f177e802f00000000000000000000000000000000000000000000000000000000815273ffffffffffffffffffffffffffffffffffffffff8316600482015260248101829052604401610bd1565b6000807a184f03e93ff9f4daa797ed6e38ed64bf6a1f0100000000000000008310612da6577a184f03e93ff9f4daa797ed6e38ed64bf6a1f010000000000000000830492506040015b6d04ee2d6d415b85acef81000000008310612dd2576d04ee2d6d415b85acef8100000000830492506020015b662386f26fc100008310612df057662386f26fc10000830492506010015b6305f5e1008310612e08576305f5e100830492506008015b6127108310612e1c57612710830492506004015b60648310612e2e576064830492506002015b600a8310610a845760010192915050565b612e498383612f1b565b610d1c336000858585612811565b600073ffffffffffffffffffffffffffffffffffffffff83161580159061113f57508273ffffffffffffffffffffffffffffffffffffffff168473ffffffffffffffffffffffffffffffffffffffff161480612ee5575073ffffffffffffffffffffffffffffffffffffffff80851660009081526005602090815260408083209387168352929052205460ff165b8061113f57505060009081526004602052604090205473ffffffffffffffffffffffffffffffffffffffff908116911614919050565b73ffffffffffffffffffffffffffffffffffffffff8216612f6b576040517f64a0ae9200000000000000000000000000000000000000000000000000000000815260006004820152602401610bd1565b6000612f79838360006124dd565b905073ffffffffffffffffffffffffffffffffffffffff811615610d1c576040517f73c6ac6e00000000000000000000000000000000000000000000000000000000815260006004820152602401610bd1565b7fffffffff0000000000000000000000000000000000000000000000000000000081168114611e3b57600080fd5b60006020828403121561300c57600080fd5b8135611f4681612fcc565b60006020828403121561302957600080fd5b5035919050565b60005b8381101561304b578181015183820152602001613033565b50506000910152565b6000815180845261306c816020860160208601613030565b601f017fffffffffffffffffffffffffffffffffffffffffffffffffffffffffffffffe0169290920160200192915050565b602081526000611f466020830184613054565b803573ffffffffffffffffffffffffffffffffffffffff811681146130d557600080fd5b919050565b600080604083850312156130ed57600080fd5b6130f6836130b1565b946020939093013593505050565b60008060006060848603121561311957600080fd5b613122846130b1565b9250613130602085016130b1565b929592945050506040919091013590565b6000806000806080858703121561315757600080fd5b84359350613167602086016130b1565b93969395505050506040820135916060013590565b60008083601f84011261318e57600080fd5b50813567ffffffffffffffff8111156131a657600080fd5b6020830191508360208285010111156131be57600080fd5b9250929050565b60008060008060008060008060c0898b0312156131e157600080fd5b88359750602089013596506040890135955060608901359450608089013567ffffffffffffffff81111561321457600080fd5b6132208b828c0161317c565b90955093505060a089013567ffffffffffffffff81111561324057600080fd5b61324c8b828c0161317c565b999c989b5096995094979396929594505050565b815181526020808301516101608301916132919084018273ffffffffffffffffffffffffffffffffffffffff169052565b5060408301516132b9604084018273ffffffffffffffffffffffffffffffffffffffff169052565b50606083015160608301526080830151608083015260a083015160a083015260c083015160c083015260e08301516132f560e084018215159052565b5061010083015161010083015261012083015161012083015261014083015161014083015292915050565b60006020828403121561333257600080fd5b611f46826130b1565b6000806000806080858703121561335157600080fd5b61335a856130b1565b9350613167602086016130b1565b602080825282518282018190526000918401906040840190835b818110156133a0578351835260209384019390920191600101613382565b509095945050505050565b8015158114611e3b57600080fd5b600080604083850312156133cc57600080fd5b6133d5836130b1565b915060208301356133e5816133ab565b809150509250929050565b7f4e487b7100000000000000000000000000000000000000000000000000000000600052604160045260246000fd5b6000806000806080858703121561343557600080fd5b61343e856130b1565b935061344c602086016130b1565b925060408501359150606085013567ffffffffffffffff81111561346f57600080fd5b8501601f8101871361348057600080fd5b803567ffffffffffffffff81111561349a5761349a6133f0565b6040517fffffffffffffffffffffffffffffffffffffffffffffffffffffffffffffffe0603f7fffffffffffffffffffffffffffffffffffffffffffffffffffffffffffffffe0601f8501160116810181811067ffffffffffffffff82111715613506576135066133f0565b60405281815282820160200189101561351e57600080fd5b8160208401602083013760006020838301015280935050505092959194509250565b6000806000806080858703121561355657600080fd5b5050823594602084013594506040840135936060013592509050565b6000806040838503121561358557600080fd5b61358e836130b1565b915061359c602084016130b1565b90509250929050565b600181811c908216806135b957607f821691505b6020821081036135f2577f4e487b7100000000000000000000000000000000000000000000000000000000600052602260045260246000fd5b50919050565b7f4e487b7100000000000000000000000000000000000000000000000000000000600052601160045260246000fd5b8082028115828204841417610a8457610a846135f8565b600082613674577f4e487b7100000000000000000000000000000000000000000000000000000000600052601260045260246000fd5b500490565b80820180821115610a8457610a846135f8565b81810381811115610a8457610a846135f8565b60007fffffffffffffffffffffffffffffffffffffffffffffffffffffffffffffffff82036136d0576136d06135f8565b5060010190565b8183528181602085013750600060208284010152600060207fffffffffffffffffffffffffffffffffffffffffffffffffffffffffffffffe0601f840116840101905092915050565b88815287602082015286604082015285606082015260c06080820152600061374c60c0830186886136d7565b82810360a084015261375f8185876136d7565b9b9a5050505050505050505050565b60006020828403121561378057600080fd5b8151611f46816133ab565b6000835161379d818460208801613030565b8351908301906137b1818360208801613030565b01949350505050565b73ffffffffffffffffffffffffffffffffffffffff8516815273ffffffffffffffffffffffffffffffffffffffff8416602082015282604082015260806060820152600061380b6080830184613054565b9695505050505050565b60006020828403121561382757600080fd5b8151611f4681612fcc56fea2646970667358221220699e688d0b1cc7a8627df36dc743fad2af5c9c3e023f2084fea4d24695b011a064736f6c634300081a0033",
  "linkReferences": {},
  "deployedLinkReferences": {}
}