{
  "_format": "hh-sol-artifact-1",
  "contractName": "StateLibrary",
  "sourceName": "@uniswap/v4-core/src/libraries/StateLibrary.sol",
  "abi": [
    {
      "inputs": [],
      "name": "FEE_GROWTH_GLOBAL0_OFFSET",
      "outputs": [
        {
          "internalType": "uint256",
          "name": "",
          "type": "uint256"
        }
      ],
      "stateMutability": "view",
      "type": "function"
    },
    {
      "inputs": [],
      "name": "LIQUIDITY_OFFSET",
      "outputs": [
        {
          "internalType": "uint256",
          "name": "",
          "type": "uint256"
        }
      ],
      "stateMutability": "view",
      "type": "function"
    },
    {
      "inputs": [],
      "name": "POOLS_SLOT",
      "outputs": [
        {
          "internalType": "bytes32",
          "name": "",
          "type": "bytes32"
        }
      ],
      "stateMutability": "view",
      "type": "function"
    },
    {
      "inputs": [],
      "name": "POSITIONS_OFFSET",
      "outputs": [
        {
          "internalType": "uint256",
          "name": "",
          "type": "uint256"
        }
      ],
      "stateMutability": "view",
      "type": "function"
    },
    {
      "inputs": [],
      "name": "TICKS_OFFSET",
      "outputs": [
        {
          "internalType": "uint256",
          "name": "",
          "type": "uint256"
        }
      ],
      "stateMutability": "view",
      "type": "function"
    },
    {
      "inputs": [],
      "name": "TICK_BITMAP_OFFSET",
      "outputs": [
        {
          "internalType": "uint256",
          "name": "",
          "type": "uint256"
        }
      ],
      "stateMutability": "view",
      "type": "function"
    }
  ],
  "bytecode": "0x60e4610038600b82828239805160001a607314602b57634e487b7160e01b600052600060045260246000fd5b30600052607381538281f3fe730000000000000000000000000000000000000000301460806040526004361060745760003560e01c80637d35604a1160555780637d35604a146099578063b432004a1460a0578063ca24e3b51460a757600080fd5b80632ba31c5314607957806357eb1da7146079578063769323e3146092575b600080fd5b6080600681565b60405190815260200160405180910390f35b6080600481565b6080600581565b6080600381565b608060018156fea2646970667358221220171fccc0770cfccd71080e7b412f5252d3411b65e7024055c1f3858be2895f8564736f6c634300081a0033",
  "linkReferences": {},
  "deployedLinkReferences": {}
}