{
  "_format": "hh-sol-artifact-1",
  "contractName": "RentalManager",
  "sourceName": "contracts/src/RentalManager.sol",
  "abi": [
    {
      "inputs": [
        {
          "internalType": "address",
          "name": "_yellowChannelManager",
          "type": "address"
        },
        {
          "internalType": "address",
          "name": "_rentalVault",
          "type": "address"
        }
      ],
      "stateMutability": "nonpayable",
      "type": "constructor"
    },
    {
      "inputs": [],
      "name": "EnforcedPause",
      "type": "error"
    },
    {
      "inputs": [],
      "name": "ExpectedPause",
      "type": "error"
    },
    {
      "inputs": [],
      "name": "InsufficientCollateral",
      "type": "error"
    },
    {
      "inputs": [],
      "name": "InvalidCollateralBps",
      "type": "error"
    },
    {
      "inputs": [],
      "name": "InvalidDuration",
      "type": "error"
    },
    {
      "inputs": [],
      "name": "InvalidFee",
      "type": "error"
    },
    {
      "inputs": [],
      "name": "InvalidPrice",
      "type": "error"
    },
    {
      "inputs": [],
      "name": "NoActiveChannel",
      "type": "error"
    },
    {
      "inputs": [
        {
          "internalType": "address",
          "name": "owner",
          "type": "address"
        }
      ],
      "name": "OwnableInvalidOwner",
      "type": "error"
    },
    {
      "inputs": [
        {
          "internalType": "address",
          "name": "account",
          "type": "address"
        }
      ],
      "name": "OwnableUnauthorizedAccount",
      "type": "error"
    },
    {
      "inputs": [],
      "name": "PositionAlreadyRented",
      "type": "error"
    },
    {
      "inputs": [],
      "name": "ReentrancyGuardReentrantCall",
      "type": "error"
    },
    {
      "inputs": [],
      "name": "RentalExpired",
      "type": "error"
    },
    {
      "inputs": [],
      "name": "RentalNotFound",
      "type": "error"
    },
    {
      "inputs": [],
      "name": "RentalStillActive",
      "type": "error"
    },
    {
      "inputs": [],
      "name": "Unauthorized",
      "type": "error"
    },
    {
      "inputs": [],
      "name": "ZeroAddress",
      "type": "error"
    },
    {
      "anonymous": false,
      "inputs": [
        {
          "indexed": false,
          "internalType": "uint256",
          "name": "newBps",
          "type": "uint256"
        }
      ],
      "name": "CollateralRequirementUpdated",
      "type": "event"
    },
    {
      "anonymous": false,
      "inputs": [
        {
          "indexed": true,
          "internalType": "bytes32",
          "name": "rentalId",
          "type": "bytes32"
        },
        {
          "indexed": true,
          "internalType": "address",
          "name": "closer",
          "type": "address"
        },
        {
          "indexed": false,
          "internalType": "uint256",
          "name": "penalty",
          "type": "uint256"
        }
      ],
      "name": "EmergencyClose",
      "type": "event"
    },
    {
      "anonymous": false,
      "inputs": [
        {
          "indexed": true,
          "internalType": "address",
          "name": "previousOwner",
          "type": "address"
        },
        {
          "indexed": true,
          "internalType": "address",
          "name": "newOwner",
          "type": "address"
        }
      ],
      "name": "OwnershipTransferred",
      "type": "event"
    },
    {
      "anonymous": false,
      "inputs": [
        {
          "indexed": false,
          "internalType": "address",
          "name": "account",
          "type": "address"
        }
      ],
      "name": "Paused",
      "type": "event"
    },
    {
      "anonymous": false,
      "inputs": [
        {
          "indexed": false,
          "internalType": "uint256",
          "name": "newFeeBps",
          "type": "uint256"
        }
      ],
      "name": "PlatformFeeUpdated",
      "type": "event"
    },
    {
      "anonymous": false,
      "inputs": [
        {
          "indexed": true,
          "internalType": "bytes32",
          "name": "rentalId",
          "type": "bytes32"
        },
        {
          "indexed": true,
          "internalType": "bytes32",
          "name": "positionId",
          "type": "bytes32"
        },
        {
          "indexed": true,
          "internalType": "address",
          "name": "renter",
          "type": "address"
        },
        {
          "indexed": false,
          "internalType": "address",
          "name": "owner",
          "type": "address"
        },
        {
          "indexed": false,
          "internalType": "uint256",
          "name": "duration",
          "type": "uint256"
        },
        {
          "indexed": false,
          "internalType": "uint256",
          "name": "pricePerSecond",
          "type": "uint256"
        },
        {
          "indexed": false,
          "internalType": "uint256",
          "name": "collateral",
          "type": "uint256"
        }
      ],
      "name": "RentalCreated",
      "type": "event"
    },
    {
      "anonymous": false,
      "inputs": [
        {
          "indexed": true,
          "internalType": "bytes32",
          "name": "rentalId",
          "type": "bytes32"
        },
        {
          "indexed": false,
          "internalType": "uint256",
          "name": "totalFee",
          "type": "uint256"
        },
        {
          "indexed": false,
          "internalType": "uint256",
          "name": "actualDuration",
          "type": "uint256"
        },
        {
          "indexed": false,
          "internalType": "uint256",
          "name": "refund",
          "type": "uint256"
        }
      ],
      "name": "RentalEnded",
      "type": "event"
    },
    {
      "anonymous": false,
      "inputs": [
        {
          "indexed": true,
          "internalType": "bytes32",
          "name": "rentalId",
          "type": "bytes32"
        },
        {
          "indexed": false,
          "internalType": "uint256",
          "name": "newEndTime",
          "type": "uint256"
        },
        {
          "indexed": false,
          "internalType": "uint256",
          "name": "additionalCollateral",
          "type": "uint256"
        }
      ],
      "name": "RentalExtended",
      "type": "event"
    },
    {
      "anonymous": false,
      "inputs": [
        {
          "indexed": false,
          "internalType": "address",
          "name": "account",
          "type": "address"
        }
      ],
      "name": "Unpaused",
      "type": "event"
    },
    {
      "inputs": [],
      "name": "MAX_PLATFORM_FEE",
      "outputs": [
        {
          "internalType": "uint256",
          "name": "",
          "type": "uint256"
        }
      ],
      "stateMutability": "view",
      "type": "function"
    },
    {
      "inputs": [],
      "name": "MAX_RENTAL_DURATION",
      "outputs": [
        {
          "internalType": "uint256",
          "name": "",
          "type": "uint256"
        }
      ],
      "stateMutability": "view",
      "type": "function"
    },
    {
      "inputs": [],
      "name": "MIN_RENTAL_DURATION",
      "outputs": [
        {
          "internalType": "uint256",
          "name": "",
          "type": "uint256"
        }
      ],
      "stateMutability": "view",
      "type": "function"
    },
    {
      "inputs": [
        {
          "internalType": "bytes32",
          "name": "rentalId",
          "type": "bytes32"
        }
      ],
      "name": "calculateCurrentFees",
      "outputs": [
        {
          "internalType": "uint256",
          "name": "",
          "type": "uint256"
        }
      ],
      "stateMutability": "view",
      "type": "function"
    },
    {
      "inputs": [
        {
          "internalType": "bytes32",
          "name": "positionId",
          "type": "bytes32"
        },
        {
          "internalType": "address",
          "name": "owner",
          "type": "address"
        },
        {
          "internalType": "uint256",
          "name": "duration",
          "type": "uint256"
        },
        {
          "internalType": "uint256",
          "name": "pricePerSecond",
          "type": "uint256"
        },
        {
          "internalType": "bytes32",
          "name": "channelId",
          "type": "bytes32"
        }
      ],
      "name": "createRental",
      "outputs": [
        {
          "internalType": "bytes32",
          "name": "rentalId",
          "type": "bytes32"
        }
      ],
      "stateMutability": "payable",
      "type": "function"
    },
    {
      "inputs": [
        {
          "internalType": "bytes32",
          "name": "rentalId",
          "type": "bytes32"
        }
      ],
      "name": "emergencyClose",
      "outputs": [],
      "stateMutability": "nonpayable",
      "type": "function"
    },
    {
      "inputs": [
        {
          "internalType": "bytes32",
          "name": "rentalId",
          "type": "bytes32"
        }
      ],
      "name": "endRental",
      "outputs": [],
      "stateMutability": "nonpayable",
      "type": "function"
    },
    {
      "inputs": [
        {
          "internalType": "bytes32",
          "name": "rentalId",
          "type": "bytes32"
        },
        {
          "internalType": "uint256",
          "name": "additionalDuration",
          "type": "uint256"
        }
      ],
      "name": "extendRental",
      "outputs": [],
      "stateMutability": "payable",
      "type": "function"
    },
    {
      "inputs": [
        {
          "internalType": "bytes32",
          "name": "rentalId",
          "type": "bytes32"
        }
      ],
      "name": "getRental",
      "outputs": [
        {
          "components": [
            {
              "internalType": "address",
              "name": "originalOwner",
              "type": "address"
            },
            {
              "internalType": "address",
              "name": "currentRenter",
              "type": "address"
            },
            {
              "internalType": "uint256",
              "name": "startTime",
              "type": "uint256"
            },
            {
              "internalType": "uint256",
              "name": "endTime",
              "type": "uint256"
            },
            {
              "internalType": "uint256",
              "name": "pricePerSecond",
              "type": "uint256"
            },
            {
              "internalType": "uint256",
              "name": "collateralAmount",
              "type": "uint256"
            },
            {
              "internalType": "bool",
              "name": "isActive",
              "type": "bool"
            },
            {
              "internalType": "bytes32",
              "name": "channelId",
              "type": "bytes32"
            },
            {
              "internalType": "bytes32",
              "name": "positionId",
              "type": "bytes32"
            }
          ],
          "internalType": "struct RentalManager.RentalState",
          "name": "",
          "type": "tuple"
        }
      ],
      "stateMutability": "view",
      "type": "function"
    },
    {
      "inputs": [
        {
          "internalType": "address",
          "name": "renter",
          "type": "address"
        }
      ],
      "name": "getRenterRentals",
      "outputs": [
        {
          "internalType": "bytes32[]",
          "name": "",
          "type": "bytes32[]"
        }
      ],
      "stateMutability": "view",
      "type": "function"
    },
    {
      "inputs": [],
      "name": "minCollateralBps",
      "outputs": [
        {
          "internalType": "uint256",
          "name": "",
          "type": "uint256"
        }
      ],
      "stateMutability": "view",
      "type": "function"
    },
    {
      "inputs": [],
      "name": "owner",
      "outputs": [
        {
          "internalType": "address",
          "name": "",
          "type": "address"
        }
      ],
      "stateMutability": "view",
      "type": "function"
    },
    {
      "inputs": [],
      "name": "pause",
      "outputs": [],
      "stateMutability": "nonpayable",
      "type": "function"
    },
    {
      "inputs": [],
      "name": "paused",
      "outputs": [
        {
          "internalType": "bool",
          "name": "",
          "type": "bool"
        }
      ],
      "stateMutability": "view",
      "type": "function"
    },
    {
      "inputs": [],
      "name": "platformFeeBps",
      "outputs": [
        {
          "internalType": "uint256",
          "name": "",
          "type": "uint256"
        }
      ],
      "stateMutability": "view",
      "type": "function"
    },
    {
      "inputs": [
        {
          "internalType": "bytes32",
          "name": "",
          "type": "bytes32"
        }
      ],
      "name": "positionToRental",
      "outputs": [
        {
          "internalType": "bytes32",
          "name": "",
          "type": "bytes32"
        }
      ],
      "stateMutability": "view",
      "type": "function"
    },
    {
      "inputs": [],
      "name": "renounceOwnership",
      "outputs": [],
      "stateMutability": "nonpayable",
      "type": "function"
    },
    {
      "inputs": [],
      "name": "rentalVault",
      "outputs": [
        {
          "internalType": "address",
          "name": "",
          "type": "address"
        }
      ],
      "stateMutability": "view",
      "type": "function"
    },
    {
      "inputs": [
        {
          "internalType": "bytes32",
          "name": "",
          "type": "bytes32"
        }
      ],
      "name": "rentals",
      "outputs": [
        {
          "internalType": "address",
          "name": "originalOwner",
          "type": "address"
        },
        {
          "internalType": "address",
          "name": "currentRenter",
          "type": "address"
        },
        {
          "internalType": "uint256",
          "name": "startTime",
          "type": "uint256"
        },
        {
          "internalType": "uint256",
          "name": "endTime",
          "type": "uint256"
        },
        {
          "internalType": "uint256",
          "name": "pricePerSecond",
          "type": "uint256"
        },
        {
          "internalType": "uint256",
          "name": "collateralAmount",
          "type": "uint256"
        },
        {
          "internalType": "bool",
          "name": "isActive",
          "type": "bool"
        },
        {
          "internalType": "bytes32",
          "name": "channelId",
          "type": "bytes32"
        },
        {
          "internalType": "bytes32",
          "name": "positionId",
          "type": "bytes32"
        }
      ],
      "stateMutability": "view",
      "type": "function"
    },
    {
      "inputs": [
        {
          "internalType": "uint256",
          "name": "newBps",
          "type": "uint256"
        }
      ],
      "name": "setMinCollateral",
      "outputs": [],
      "stateMutability": "nonpayable",
      "type": "function"
    },
    {
      "inputs": [
        {
          "internalType": "uint256",
          "name": "newFeeBps",
          "type": "uint256"
        }
      ],
      "name": "setPlatformFee",
      "outputs": [],
      "stateMutability": "nonpayable",
      "type": "function"
    },
    {
      "inputs": [],
      "name": "totalFeesCollected",
      "outputs": [
        {
          "internalType": "uint256",
          "name": "",
          "type": "uint256"
        }
      ],
      "stateMutability": "view",
      "type": "function"
    },
    {
      "inputs": [],
      "name": "totalRentals",
      "outputs": [
        {
          "internalType": "uint256",
          "name": "",
          "type": "uint256"
        }
      ],
      "stateMutability": "view",
      "type": "function"
    },
    {
      "inputs": [
        {
          "internalType": "address",
          "name": "newOwner",
          "type": "address"
        }
      ],
      "name": "transferOwnership",
      "outputs": [],
      "stateMutability": "nonpayable",
      "type": "function"
    },
    {
      "inputs": [],
      "name": "unpause",
      "outputs": [],
      "stateMutability": "nonpayable",
      "type": "function"
    },
    {
      "inputs": [],
      "name": "yellowChannelManager",
      "outputs": [
        {
          "internalType": "address",
          "name": "",
          "type": "address"
        }
      ],
      "stateMutability": "view",
      "type": "function"
    }
  ],
  "bytecode": "0x608060405260c8600855612ee060095534801561001b57600080fd5b50604051611e33380380611e3383398101604081905261003a91610146565b338061006057604051631e4fbdf760e01b81526000600482015260240160405180910390fd5b610069816100da565b50600180556001600160a01b038216158061008b57506001600160a01b038116155b156100a95760405163d92e233d60e01b815260040160405180910390fd5b600680546001600160a01b039384166001600160a01b03199182161790915560078054929093169116179055610179565b600080546001600160a01b038381166001600160a01b0319831681178455604051919092169283917f8be0079c531659141344cd1fd0a4f28419497f9722a3daafe3b4186f6b6457e09190a35050565b80516001600160a01b038116811461014157600080fd5b919050565b6000806040838503121561015957600080fd5b6101628361012a565b91506101706020840161012a565b90509250929050565b611cab806101886000396000f3fe6080604052600436106101a15760003560e01c80638456cb59116100e1578063b617efe11161008a578063ef3983ec11610064578063ef3983ec14610625578063f2fde38b14610645578063f318019b14610665578063fd8e54d91461067857600080fd5b8063b617efe1146104db578063d978f6ad14610508578063dd4b22d11461060f57600080fd5b80638e5d9470116100bb5780638e5d94701461046157806391837f141461048e578063acc909b1146104bb57600080fd5b80638456cb5914610401578063846321a4146104165780638da5cb5b1461043657600080fd5b80633f4ba83a1161014e57806360c6d8ae1161012857806360c6d8ae146102de578063715018a6146102f45780637d8ce315146103095780637df8768e1461031f57600080fd5b80633f4ba83a1461028f5780634f65473c146102a45780635c975abb146102bb57600080fd5b80632ce7e6671161017f5780632ce7e6671461020757806335f4d72b146102275780633998a6811461027957600080fd5b80630a60d6c8146101a657806312e8e2c3146101cf57806322dcd13e146101f1575b600080fd5b3480156101b257600080fd5b506101bc610e1081565b6040519081526020015b60405180910390f35b3480156101db57600080fd5b506101ef6101ea3660046119e6565b61068b565b005b3480156101fd57600080fd5b506101bc60085481565b34801561021357600080fd5b506101ef6102223660046119e6565b61070b565b34801561023357600080fd5b506006546102549073ffffffffffffffffffffffffffffffffffffffff1681565b60405173ffffffffffffffffffffffffffffffffffffffff90911681526020016101c6565b34801561028557600080fd5b506101bc6101f481565b34801561029b57600080fd5b506101ef610b7a565b3480156102b057600080fd5b506101bc62093a8081565b3480156102c757600080fd5b5060025460ff1660405190151581526020016101c6565b3480156102ea57600080fd5b506101bc600b5481565b34801561030057600080fd5b506101ef610b8c565b34801561031557600080fd5b506101bc60095481565b34801561032b57600080fd5b506103a361033a3660046119e6565b600360208190526000918252604090912080546001820154600283015493830154600484015460058501546006860154600787015460089097015473ffffffffffffffffffffffffffffffffffffffff96871698969095169693949293919260ff909116919089565b6040805173ffffffffffffffffffffffffffffffffffffffff9a8b1681529990981660208a0152968801959095526060870193909352608086019190915260a0850152151560c084015260e0830152610100820152610120016101c6565b34801561040d57600080fd5b506101ef610b9e565b34801561042257600080fd5b506101ef6104313660046119e6565b610bae565b34801561044257600080fd5b5060005473ffffffffffffffffffffffffffffffffffffffff16610254565b34801561046d57600080fd5b5061048161047c366004611a28565b610c33565b6040516101c69190611a4a565b34801561049a57600080fd5b506101bc6104a93660046119e6565b60046020526000908152604090205481565b3480156104c757600080fd5b506101bc6104d63660046119e6565b610cac565b3480156104e757600080fd5b506007546102549073ffffffffffffffffffffffffffffffffffffffff1681565b34801561051457600080fd5b506106026105233660046119e6565b6040805161012081018252600080825260208201819052918101829052606081018290526080810182905260a0810182905260c0810182905260e0810182905261010081019190915250600090815260036020818152604092839020835161012081018552815473ffffffffffffffffffffffffffffffffffffffff90811682526001830154169281019290925260028101549382019390935290820154606082015260048201546080820152600582015460a0820152600682015460ff16151560c0820152600782015460e082015260089091015461010082015290565b6040516101c69190611a8d565b34801561061b57600080fd5b506101bc600a5481565b34801561063157600080fd5b506101ef6106403660046119e6565b610daa565b34801561065157600080fd5b506101ef610660366004611a28565b6110f3565b6101ef610673366004611b28565b611154565b6101bc610686366004611b4a565b611389565b61069361178a565b6101f48111156106cf576040517f58d620b300000000000000000000000000000000000000000000000000000000815260040160405180910390fd5b60088190556040518181527f45610d581145924dd7090a5017e5f2b1d6f42213bb2e95707ff86846bbfcb1ca906020015b60405180910390a150565b6107136117dd565b6000818152600360205260409020600681015460ff1661075f576040517fa6f5723200000000000000000000000000000000000000000000000000000000815260040160405180910390fd5b8060030154421080156107895750805473ffffffffffffffffffffffffffffffffffffffff163314155b156107c0576040517f64f58df000000000000000000000000000000000000000000000000000000000815260040160405180910390fd5b6000816003015442116107e15760028201546107dc9042611bbf565b6107f5565b816002015482600301546107f59190611bbf565b905060008260040154826108099190611bd8565b905060006127106008548361081e9190611bd8565b6108289190611bef565b905060006108368284611bbf565b905060008386600501541161084c57600061085c565b83866005015461085c9190611bbf565b6006870180547fffffffffffffffffffffffffffffffffffffffffffffffffffffffffffffff00169055600887015460009081526004602052604080822082905588549051929350909173ffffffffffffffffffffffffffffffffffffffff9091169084908381818185875af1925050503d80600081146108f9576040519150601f19603f3d011682016040523d82523d6000602084013e6108fe565b606091505b505090508061096e576040517f08c379a000000000000000000000000000000000000000000000000000000000815260206004820152601560248201527f4f776e6572207472616e73666572206661696c6564000000000000000000000060448201526064015b60405180910390fd5b6000805460405173ffffffffffffffffffffffffffffffffffffffff9091169086908381818185875af1925050503d80600081146109c8576040519150601f19603f3d011682016040523d82523d6000602084013e6109cd565b606091505b5050905080610a38576040517f08c379a000000000000000000000000000000000000000000000000000000000815260206004820152601860248201527f506c6174666f726d207472616e73666572206661696c656400000000000000006044820152606401610965565b84600b6000828254610a4a9190611c2a565b90915550508215610b2357600188015460405160009173ffffffffffffffffffffffffffffffffffffffff169085908381818185875af1925050503d8060008114610ab1576040519150601f19603f3d011682016040523d82523d6000602084013e610ab6565b606091505b5050905080610b21576040517f08c379a000000000000000000000000000000000000000000000000000000000815260206004820152601660248201527f526566756e64207472616e73666572206661696c6564000000000000000000006044820152606401610965565b505b604080518781526020810189905290810184905289907fd561be58c432d676bd84c3fa6af45872a590ce66ded04792a1f38a197c54e5579060600160405180910390a25050505050505050610b7760018055565b50565b610b8261178a565b610b8a611820565b565b610b9461178a565b610b8a600061189d565b610ba661178a565b610b8a611912565b610bb661178a565b612710811080610bc75750614e2081115b15610bfe576040517f307050fc00000000000000000000000000000000000000000000000000000000815260040160405180910390fd5b60098190556040518181527fabf063dc43b031b27752f173d69529edb8d93d338bac2553cf03da26f27361d690602001610700565b73ffffffffffffffffffffffffffffffffffffffff8116600090815260056020908152604091829020805483518184028101840190945280845260609392830182828015610ca057602002820191906000526020600020905b815481526020019060010190808311610c8c575b50505050509050919050565b6000818152600360208181526040808420815161012081018352815473ffffffffffffffffffffffffffffffffffffffff90811682526001830154169381019390935260028101549183019190915291820154606082015260048201546080820152600582015460a0820152600682015460ff16151560c08201819052600783015460e083015260089092015461010082015290610d4d5750600092915050565b6000816040015142610d5f9190611bbf565b905081604001518260600151610d759190611bbf565b811115610d935781604001518260600151610d909190611bbf565b90505b6080820151610da29082611bd8565b949350505050565b610db26117dd565b6000818152600360205260409020600681015460ff16610dfe576040517fa6f5723200000000000000000000000000000000000000000000000000000000815260040160405180910390fd5b805473ffffffffffffffffffffffffffffffffffffffff163314610e4e576040517f82b4290000000000000000000000000000000000000000000000000000000000815260040160405180910390fd5b600042826003015411610e62576000610e72565b428260030154610e729190611bbf565b90506000826004015482610e869190611bd8565b90506000612710610e99836103e8611bd8565b610ea39190611bef565b9050600081856005015411610eb9576000610ec9565b818560050154610ec99190611bbf565b6006860180547fffffffffffffffffffffffffffffffffffffffffffffffffffffffffffffff00169055600886015460009081526004602052604081205590508015610fdd57600185015460405160009173ffffffffffffffffffffffffffffffffffffffff169083908381818185875af1925050503d8060008114610f6b576040519150601f19603f3d011682016040523d82523d6000602084013e610f70565b606091505b5050905080610fdb576040517f08c379a000000000000000000000000000000000000000000000000000000000815260206004820152601660248201527f526566756e64207472616e73666572206661696c6564000000000000000000006044820152606401610965565b505b81156110ae57845460405160009173ffffffffffffffffffffffffffffffffffffffff169084908381818185875af1925050503d806000811461103c576040519150601f19603f3d011682016040523d82523d6000602084013e611041565b606091505b50509050806110ac576040517f08c379a000000000000000000000000000000000000000000000000000000000815260206004820152601760248201527f50656e616c7479207472616e73666572206661696c65640000000000000000006044820152606401610965565b505b604051828152339087907fa554c988ba0c7b09831fe69e8f7dab8adeb68f864b292984b57f15eadccaa18a9060200160405180910390a35050505050610b7760018055565b6110fb61178a565b73ffffffffffffffffffffffffffffffffffffffff811661114b576040517f1e4fbdf700000000000000000000000000000000000000000000000000000000815260006004820152602401610965565b610b778161189d565b61115c6117dd565b6000828152600360205260409020600681015460ff166111a8576040517fa6f5723200000000000000000000000000000000000000000000000000000000815260040160405180910390fd5b600181015473ffffffffffffffffffffffffffffffffffffffff1633146111fb576040517f82b4290000000000000000000000000000000000000000000000000000000000815260040160405180910390fd5b80600301544210611238576040517fec89f12000000000000000000000000000000000000000000000000000000000815260040160405180910390fd5b6000828260020154836003015461124f9190611bbf565b6112599190611c2a565b905062093a80811115611298576040517f7616640100000000000000000000000000000000000000000000000000000000815260040160405180910390fd5b60008260040154846112aa9190611bd8565b90506000612710600954836112bf9190611bd8565b6112c99190611bef565b905080341015611305576040517f3a23d82500000000000000000000000000000000000000000000000000000000815260040160405180910390fd5b848460030160008282546113199190611c2a565b92505081905550348460050160008282546113349190611c2a565b909155505060038401546040805191825234602083015287917f3b3fbb74fc41597cddefb1506281692a72d226b0484dea26ea155ab343a05990910160405180910390a25050505061138560018055565b5050565b60006113936117dd565b61139b61196d565b610e108410806113ad575062093a8084115b156113e4576040517f7616640100000000000000000000000000000000000000000000000000000000815260040160405180910390fd5b8260000361141d576040517ebfc92100000000000000000000000000000000000000000000000000000000815260040160405180910390fd5b73ffffffffffffffffffffffffffffffffffffffff851661146a576040517fd92e233d00000000000000000000000000000000000000000000000000000000815260040160405180910390fd5b600086815260046020526040902054156114b0576040517f82b6007100000000000000000000000000000000000000000000000000000000815260040160405180910390fd5b60006114bc8486611bd8565b90506000612710600954836114d19190611bd8565b6114db9190611bef565b905080341015611517576040517f3a23d82500000000000000000000000000000000000000000000000000000000815260040160405180910390fd5b600a546040517fffffffffffffffffffffffffffffffffffffffff0000000000000000000000003360601b166020820152603481018a905242605482015260748101919091526094016040516020818303038152906040528051906020012092506040518061012001604052808873ffffffffffffffffffffffffffffffffffffffff1681526020013373ffffffffffffffffffffffffffffffffffffffff16815260200142815260200187426115ce9190611c2a565b81526020808201889052346040808401919091526001606080850182905260808086018b905260a09586018f905260008a815260038087528582208951815473ffffffffffffffffffffffffffffffffffffffff9182167fffffffffffffffffffffffff00000000000000000000000000000000000000009182161783558b8a015183890180549190931691161790558987015160028201559389015190840155908701516004808401919091559587015160058084019190915560c08801516006840180549115157fffffffffffffffffffffffffffffffffffffffffffffffffffffffffffffff0090921691909117905560e08801516007840155610100909701516008909201919091558d815293835281842088905533845293825282208054938401815582528120909101849055600a80549161170e83611c3d565b90915550506040805173ffffffffffffffffffffffffffffffffffffffff89168152602081018890529081018690523460608201523390899085907fb36c4bef0713f0c0c77cdd8ac3fc21c16f501f36e0932aa3ce99984cfaebaddc9060800160405180910390a4505061178160018055565b95945050505050565b60005473ffffffffffffffffffffffffffffffffffffffff163314610b8a576040517f118cdaa7000000000000000000000000000000000000000000000000000000008152336004820152602401610965565b600260015403611819576040517f3ee5aeb500000000000000000000000000000000000000000000000000000000815260040160405180910390fd5b6002600155565b6118286119aa565b600280547fffffffffffffffffffffffffffffffffffffffffffffffffffffffffffffff001690557f5db9ee0a495bf2e6ff9c91a7834c1ba4fdd244a5e8aa4e537bd38aeae4b073aa335b60405173ffffffffffffffffffffffffffffffffffffffff909116815260200160405180910390a1565b6000805473ffffffffffffffffffffffffffffffffffffffff8381167fffffffffffffffffffffffff0000000000000000000000000000000000000000831681178455604051919092169283917f8be0079c531659141344cd1fd0a4f28419497f9722a3daafe3b4186f6b6457e09190a35050565b61191a61196d565b600280547fffffffffffffffffffffffffffffffffffffffffffffffffffffffffffffff001660011790557f62e78cea01bee320cd4e420270b5ea74000d11b0c9f74754ebdbfc544b05a2586118733390565b60025460ff1615610b8a576040517fd93c066500000000000000000000000000000000000000000000000000000000815260040160405180910390fd5b60025460ff16610b8a576040517f8dfc202b00000000000000000000000000000000000000000000000000000000815260040160405180910390fd5b6000602082840312156119f857600080fd5b5035919050565b803573ffffffffffffffffffffffffffffffffffffffff81168114611a2357600080fd5b919050565b600060208284031215611a3a57600080fd5b611a43826119ff565b9392505050565b602080825282518282018190526000918401906040840190835b81811015611a82578351835260209384019390920191600101611a64565b509095945050505050565b60006101208201905073ffffffffffffffffffffffffffffffffffffffff835116825273ffffffffffffffffffffffffffffffffffffffff602084015116602083015260408301516040830152606083015160608301526080830151608083015260a083015160a083015260c0830151611b0b60c084018215159052565b5060e083015160e083015261010083015161010083015292915050565b60008060408385031215611b3b57600080fd5b50508035926020909101359150565b600080600080600060a08688031215611b6257600080fd5b85359450611b72602087016119ff565b94979496505050506040830135926060810135926080909101359150565b7f4e487b7100000000000000000000000000000000000000000000000000000000600052601160045260246000fd5b81810381811115611bd257611bd2611b90565b92915050565b8082028115828204841417611bd257611bd2611b90565b600082611c25577f4e487b7100000000000000000000000000000000000000000000000000000000600052601260045260246000fd5b500490565b80820180821115611bd257611bd2611b90565b60007fffffffffffffffffffffffffffffffffffffffffffffffffffffffffffffffff8203611c6e57611c6e611b90565b506001019056fea26469706673582212201b2cf170529fedcf0faa747b3e7e1e1987e8376f1e7b1ad80e02bbd0d8a5521864736f6c634300081a0033",
  "linkReferences": {},
  "deployedLinkReferences": {}
}