{
  "_format": "hh-sol-artifact-1",
  "contractName": "YellowChannelManager",
  "sourceName": "contracts/src/YellowChannelManager.sol",
  "abi": [
    {
      "inputs": [],
      "stateMutability": "nonpayable",
      "type": "constructor"
    },
    {
      "inputs": [],
      "name": "ChannelExpired",
      "type": "error"
    },
    {
      "inputs": [],
      "name": "ChannelNotActive",
      "type": "error"
    },
    {
      "inputs": [],
      "name": "ChannelNotFound",
      "type": "error"
    },
    {
      "inputs": [],
      "name": "DisputeNotResolved",
      "type": "error"
    },
    {
      "inputs": [],
      "name": "ECDSAInvalidSignature",
      "type": "error"
    },
    {
      "inputs": [
        {
          "internalType": "uint256",
          "name": "length",
          "type": "uint256"
        }
      ],
      "name": "ECDSAInvalidSignatureLength",
      "type": "error"
    },
    {
      "inputs": [
        {
          "internalType": "bytes32",
          "name": "s",
          "type": "bytes32"
        }
      ],
      "name": "ECDSAInvalidSignatureS",
      "type": "error"
    },
    {
      "inputs": [],
      "name": "InsufficientDeposit",
      "type": "error"
    },
    {
      "inputs": [],
      "name": "InvalidBalances",
      "type": "error"
    },
    {
      "inputs": [],
      "name": "InvalidDuration",
      "type": "error"
    },
    {
      "inputs": [],
      "name": "InvalidNonce",
      "type": "error"
    },
    {
      "inputs": [],
      "name": "InvalidSignature",
      "type": "error"
    },
    {
      "inputs": [
        {
          "internalType": "address",
          "name": "owner",
          "type": "address"
        }
      ],
      "name": "OwnableInvalidOwner",
      "type": "error"
    },
    {
      "inputs": [
        {
          "internalType": "address",
          "name": "account",
          "type": "address"
        }
      ],
      "name": "OwnableUnauthorizedAccount",
      "type": "error"
    },
    {
      "inputs": [],
      "name": "ReentrancyGuardReentrantCall",
      "type": "error"
    },
    {
      "inputs": [],
      "name": "Unauthorized",
      "type": "error"
    },
    {
      "inputs": [],
      "name": "ZeroAddress",
      "type": "error"
    },
    {
      "anonymous": false,
      "inputs": [
        {
          "indexed": true,
          "internalType": "bytes32",
          "name": "channelId",
          "type": "bytes32"
        },
        {
          "indexed": false,
          "internalType": "uint256",
          "name": "finalBalance1",
          "type": "uint256"
        },
        {
          "indexed": false,
          "internalType": "uint256",
          "name": "finalBalance2",
          "type": "uint256"
        }
      ],
      "name": "ChannelClosed",
      "type": "event"
    },
    {
      "anonymous": false,
      "inputs": [
        {
          "indexed": true,
          "internalType": "bytes32",
          "name": "channelId",
          "type": "bytes32"
        },
        {
          "indexed": true,
          "internalType": "address",
          "name": "participant1",
          "type": "address"
        },
        {
          "indexed": true,
          "internalType": "address",
          "name": "participant2",
          "type": "address"
        },
        {
          "indexed": false,
          "internalType": "uint256",
          "name": "deposit",
          "type": "uint256"
        },
        {
          "indexed": false,
          "internalType": "uint256",
          "name": "expiresAt",
          "type": "uint256"
        }
      ],
      "name": "ChannelOpened",
      "type": "event"
    },
    {
      "anonymous": false,
      "inputs": [
        {
          "indexed": true,
          "internalType": "bytes32",
          "name": "channelId",
          "type": "bytes32"
        },
        {
          "indexed": false,
          "internalType": "uint256",
          "name": "balance1",
          "type": "uint256"
        },
        {
          "indexed": false,
          "internalType": "uint256",
          "name": "balance2",
          "type": "uint256"
        },
        {
          "indexed": false,
          "internalType": "uint256",
          "name": "nonce",
          "type": "uint256"
        }
      ],
      "name": "ChannelUpdated",
      "type": "event"
    },
    {
      "anonymous": false,
      "inputs": [
        {
          "indexed": true,
          "internalType": "bytes32",
          "name": "channelId",
          "type": "bytes32"
        },
        {
          "indexed": false,
          "internalType": "bool",
          "name": "success",
          "type": "bool"
        }
      ],
      "name": "DisputeResolved",
      "type": "event"
    },
    {
      "anonymous": false,
      "inputs": [
        {
          "indexed": true,
          "internalType": "bytes32",
          "name": "channelId",
          "type": "bytes32"
        },
        {
          "indexed": true,
          "internalType": "address",
          "name": "initiator",
          "type": "address"
        },
        {
          "indexed": false,
          "internalType": "uint256",
          "name": "timeout",
          "type": "uint256"
        }
      ],
      "name": "DisputeStarted",
      "type": "event"
    },
    {
      "anonymous": false,
      "inputs": [
        {
          "indexed": true,
          "internalType": "address",
          "name": "previousOwner",
          "type": "address"
        },
        {
          "indexed": true,
          "internalType": "address",
          "name": "newOwner",
          "type": "address"
        }
      ],
      "name": "OwnershipTransferred",
      "type": "event"
    },
    {
      "inputs": [],
      "name": "DISPUTE_TIMEOUT",
      "outputs": [
        {
          "internalType": "uint256",
          "name": "",
          "type": "uint256"
        }
      ],
      "stateMutability": "view",
      "type": "function"
    },
    {
      "inputs": [
        {
          "internalType": "bytes32",
          "name": "",
          "type": "bytes32"
        }
      ],
      "name": "channels",
      "outputs": [
        {
          "internalType": "address",
          "name": "participant1",
          "type": "address"
        },
        {
          "internalType": "address",
          "name": "participant2",
          "type": "address"
        },
        {
          "internalType": "uint256",
          "name": "balance1",
          "type": "uint256"
        },
        {
          "internalType": "uint256",
          "name": "balance2",
          "type": "uint256"
        },
        {
          "internalType": "uint256",
          "name": "totalDeposit",
          "type": "uint256"
        },
        {
          "internalType": "uint256",
          "name": "nonce",
          "type": "uint256"
        },
        {
          "internalType": "uint256",
          "name": "timeout",
          "type": "uint256"
        },
        {
          "internalType": "uint256",
          "name": "expiresAt",
          "type": "uint256"
        },
        {
          "internalType": "bool",
          "name": "isActive",
          "type": "bool"
        },
        {
          "internalType": "bool",
          "name": "isDisputed",
          "type": "bool"
        }
      ],
      "stateMutability": "view",
      "type": "function"
    },
    {
      "inputs": [
        {
          "internalType": "bytes32",
          "name": "channelId",
          "type": "bytes32"
        },
        {
          "internalType": "uint256",
          "name": "finalBalance1",
          "type": "uint256"
        },
        {
          "internalType": "uint256",
          "name": "finalBalance2",
          "type": "uint256"
        },
        {
          "internalType": "uint256",
          "name": "nonce",
          "type": "uint256"
        },
        {
          "internalType": "bytes",
          "name": "signature1",
          "type": "bytes"
        },
        {
          "internalType": "bytes",
          "name": "signature2",
          "type": "bytes"
        }
      ],
      "name": "closeChannel",
      "outputs": [],
      "stateMutability": "nonpayable",
      "type": "function"
    },
    {
      "inputs": [
        {
          "internalType": "bytes32",
          "name": "channelId",
          "type": "bytes32"
        }
      ],
      "name": "getChannel",
      "outputs": [
        {
          "components": [
            {
              "internalType": "address",
              "name": "participant1",
              "type": "address"
            },
            {
              "internalType": "address",
              "name": "participant2",
              "type": "address"
            },
            {
              "internalType": "uint256",
              "name": "balance1",
              "type": "uint256"
            },
            {
              "internalType": "uint256",
              "name": "balance2",
              "type": "uint256"
            },
            {
              "internalType": "uint256",
              "name": "totalDeposit",
              "type": "uint256"
            },
            {
              "internalType": "uint256",
              "name": "nonce",
              "type": "uint256"
            },
            {
              "internalType": "uint256",
              "name": "timeout",
              "type": "uint256"
            },
            {
              "internalType": "uint256",
              "name": "expiresAt",
              "type": "uint256"
            },
            {
              "internalType": "bool",
              "name": "isActive",
              "type": "bool"
            },
            {
              "internalType": "bool",
              "name": "isDisputed",
              "type": "bool"
            }
          ],
          "internalType": "struct YellowChannelManager.Channel",
          "name": "",
          "type": "tuple"
        }
      ],
      "stateMutability": "view",
      "type": "function"
    },
    {
      "inputs": [
        {
          "internalType": "address",
          "name": "participant",
          "type": "address"
        }
      ],
      "name": "getParticipantChannels",
      "outputs": [
        {
          "internalType": "bytes32[]",
          "name": "",
          "type": "bytes32[]"
        }
      ],
      "stateMutability": "view",
      "type": "function"
    },
    {
      "inputs": [
        {
          "internalType": "address",
          "name": "participant",
          "type": "address"
        }
      ],
      "name": "hasActiveChannel",
      "outputs": [
        {
          "internalType": "bool",
          "name": "",
          "type": "bool"
        }
      ],
      "stateMutability": "view",
      "type": "function"
    },
    {
      "inputs": [
        {
          "internalType": "address",
          "name": "participant2",
          "type": "address"
        },
        {
          "internalType": "uint256",
          "name": "duration",
          "type": "uint256"
        }
      ],
      "name": "openChannel",
      "outputs": [
        {
          "internalType": "bytes32",
          "name": "channelId",
          "type": "bytes32"
        }
      ],
      "stateMutability": "payable",
      "type": "function"
    },
    {
      "inputs": [],
      "name": "owner",
      "outputs": [
        {
          "internalType": "address",
          "name": "",
          "type": "address"
        }
      ],
      "stateMutability": "view",
      "type": "function"
    },
    {
      "inputs": [],
      "name": "renounceOwnership",
      "outputs": [],
      "stateMutability": "nonpayable",
      "type": "function"
    },
    {
      "inputs": [
        {
          "internalType": "bytes32",
          "name": "channelId",
          "type": "bytes32"
        },
        {
          "internalType": "uint256",
          "name": "finalBalance1",
          "type": "uint256"
        },
        {
          "internalType": "uint256",
          "name": "finalBalance2",
          "type": "uint256"
        }
      ],
      "name": "resolveDispute",
      "outputs": [],
      "stateMutability": "nonpayable",
      "type": "function"
    },
    {
      "inputs": [
        {
          "internalType": "bytes32",
          "name": "channelId",
          "type": "bytes32"
        }
      ],
      "name": "startDispute",
      "outputs": [],
      "stateMutability": "nonpayable",
      "type": "function"
    },
    {
      "inputs": [],
      "name": "totalChannels",
      "outputs": [
        {
          "internalType": "uint256",
          "name": "",
          "type": "uint256"
        }
      ],
      "stateMutability": "view",
      "type": "function"
    },
    {
      "inputs": [
        {
          "internalType": "address",
          "name": "newOwner",
          "type": "address"
        }
      ],
      "name": "transferOwnership",
      "outputs": [],
      "stateMutability": "nonpayable",
      "type": "function"
    },
    {
      "inputs": [
        {
          "internalType": "bytes32",
          "name": "channelId",
          "type": "bytes32"
        },
        {
          "internalType": "uint256",
          "name": "newBalance1",
          "type": "uint256"
        },
        {
          "internalType": "uint256",
          "name": "newBalance2",
          "type": "uint256"
        },
        {
          "internalType": "uint256",
          "name": "nonce",
          "type": "uint256"
        },
        {
          "internalType": "bytes",
          "name": "signature1",
          "type": "bytes"
        },
        {
          "internalType": "bytes",
          "name": "signature2",
          "type": "bytes"
        }
      ],
      "name": "updateChannel",
      "outputs": [],
      "stateMutability": "nonpayable",
      "type": "function"
    }
  ],
  "bytecode": "0x608060405234801561001057600080fd5b50338061003757604051631e4fbdf760e01b81526000600482015260240160405180910390fd5b6100408161004a565b506001805561009a565b600080546001600160a01b038381166001600160a01b0319831681178455604051919092169283917f8be0079c531659141344cd1fd0a4f28419497f9722a3daafe3b4186f6b6457e09190a35050565b611d0b806100a96000396000f3fe6080604052600436106100dd5760003560e01c80637734a9f61161007f5780638da5cb5b116100595780638da5cb5b14610308578063b6de0d361461033d578063b75f18611461035d578063f2fde38b1461037d57600080fd5b80637734a9f6146101d35780637a7ebd7b146101e9578063831c2b82146102db57600080fd5b8063486265c6116100bb578063486265c61461014a5780634f27f47a1461016157806355ee2bed14610191578063715018a6146101be57600080fd5b80631dd8099f146100e257806324f453d114610104578063283ffea01461012a575b600080fd5b3480156100ee57600080fd5b506101026100fd3660046119bf565b61039d565b005b610117610112366004611a7e565b6106a1565b6040519081526020015b60405180910390f35b34801561013657600080fd5b506101026101453660046119bf565b610a18565b34801561015657600080fd5b506101176201518081565b34801561016d57600080fd5b5061018161017c366004611aa8565b610e62565b6040519015158152602001610121565b34801561019d57600080fd5b506101b16101ac366004611aa8565b610f41565b6040516101219190611aca565b3480156101ca57600080fd5b50610102610fba565b3480156101df57600080fd5b5061011760045481565b3480156101f557600080fd5b50610275610204366004611b0e565b600260208190526000918252604090912080546001820154928201546003830154600484015460058501546006860154600787015460089097015473ffffffffffffffffffffffffffffffffffffffff96871698909616969495939492939192909160ff808216916101009004168a565b6040805173ffffffffffffffffffffffffffffffffffffffff9b8c1681529a90991660208b0152978901969096526060880194909452608087019290925260a086015260c085015260e08401521515610100830152151561012082015261014001610121565b3480156102e757600080fd5b506102fb6102f6366004611b0e565b610fce565b6040516101219190611b27565b34801561031457600080fd5b5060005460405173ffffffffffffffffffffffffffffffffffffffff9091168152602001610121565b34801561034957600080fd5b50610102610358366004611b0e565b6110fa565b34801561036957600080fd5b50610102610378366004611bd1565b61123b565b34801561038957600080fd5b50610102610398366004611aa8565b61158e565b6103a56115f2565b6000888152600260205260409020600881015460ff166103f1576040517fac85312300000000000000000000000000000000000000000000000000000000815260040160405180910390fd5b8060050154861161042e576040517f756688fe00000000000000000000000000000000000000000000000000000000815260040160405180910390fd5b806007015442111561046c576040517fbf550cee00000000000000000000000000000000000000000000000000000000815260040160405180910390fd5b600481015461047b888a611c2c565b146104b2576040517f0c0d854c00000000000000000000000000000000000000000000000000000000815260040160405180910390fd5b60408051602081018b905290810189905260608101889052608081018790526000906105259060a0015b604051602081830303815290604052805190602001207f19457468657265756d205369676e6564204d6573736167653a0a3332000000006000908152601c91909152603c902090565b9050600061056b87878080601f01602080910402602001604051908101604052809392919081815260200183838082843760009201919091525086939250506116359050565b905060006105b186868080601f01602080910402602001604051908101604052809392919081815260200183838082843760009201919091525087939250506116359050565b845490915073ffffffffffffffffffffffffffffffffffffffff83811691161415806105fa5750600184015473ffffffffffffffffffffffffffffffffffffffff828116911614155b15610631576040517f8baa579f00000000000000000000000000000000000000000000000000000000815260040160405180910390fd5b600284018b9055600384018a905560058401899055604080518c8152602081018c90529081018a90528c907f2256ced482ba490e0a4ad72acf529ab4dd2481b104c6aa1b47a67d1a2e19c166906060015b60405180910390a25050505061069760018055565b5050505050505050565b60006106ab6115f2565b346000036106e5576040517f0e1eddda00000000000000000000000000000000000000000000000000000000815260040160405180910390fd5b73ffffffffffffffffffffffffffffffffffffffff8316610732576040517fd92e233d00000000000000000000000000000000000000000000000000000000815260040160405180910390fd5b8160000361076c576040517f7616640100000000000000000000000000000000000000000000000000000000815260040160405180910390fd5b6004546040517fffffffffffffffffffffffffffffffffffffffff00000000000000000000000033606090811b8216602084015286901b16603482015242604882015260688101919091526088016040516020818303038152906040528051906020012090506040518061014001604052803373ffffffffffffffffffffffffffffffffffffffff1681526020018473ffffffffffffffffffffffffffffffffffffffff16815260200134815260200160008152602001348152602001600081526020016000815260200183426108439190611c2c565b815260016020808301829052600060409384018190528581526002808352848220865181547fffffffffffffffffffffffff000000000000000000000000000000000000000090811673ffffffffffffffffffffffffffffffffffffffff92831617835588860151838801805490921690831617905587870151928201929092556060870151600380830191909155608088015160048084019190915560a0890151600584015560c0890151600684015560e08901516007840155610100808a015160089094018054610120909b01517fffffffffffffffffffffffffffffffffffffffffffffffffffffffffffff0000909b169415157fffffffffffffffffffffffffffffffffffffffffffffffffffffffffffff00ff169490941799151502989098179091553383528352848220805480860182559083528383200187905588168152928320805492830181558352822001839055815491906109a783611c3f565b909155505073ffffffffffffffffffffffffffffffffffffffff831633827f506f81b7a67b45bfbc6167fd087b3dd9b65b4531a2380ec406aab5b57ac62152346109f18742611c2c565b6040805192835260208301919091520160405180910390a4610a1260018055565b92915050565b610a206115f2565b6000888152600260205260409020600881015460ff16610a6c576040517fac85312300000000000000000000000000000000000000000000000000000000815260040160405180910390fd5b6008810154610100900460ff1615610ab0576040517f8a7dc9ee00000000000000000000000000000000000000000000000000000000815260040160405180910390fd5b6004810154610abf888a611c2c565b14610af6576040517f0c0d854c00000000000000000000000000000000000000000000000000000000815260040160405180910390fd5b60408051602081018b905290810189905260608101889052608081018790527f636c6f736500000000000000000000000000000000000000000000000000000060a0820152600090610b4a9060a5016104dc565b90506000610b9087878080601f01602080910402602001604051908101604052809392919081815260200183838082843760009201919091525086939250506116359050565b90506000610bd686868080601f01602080910402602001604051908101604052809392919081815260200183838082843760009201919091525087939250506116359050565b845490915073ffffffffffffffffffffffffffffffffffffffff8381169116141580610c1f5750600184015473ffffffffffffffffffffffffffffffffffffffff828116911614155b15610c56576040517f8baa579f00000000000000000000000000000000000000000000000000000000815260040160405180910390fd5b6008840180547fffffffffffffffffffffffffffffffffffffffffffffffffffffffffffffff001690558a15610d5657835460405160009173ffffffffffffffffffffffffffffffffffffffff16908d908381818185875af1925050503d8060008114610cdf576040519150601f19603f3d011682016040523d82523d6000602084013e610ce4565b606091505b5050905080610d54576040517f08c379a000000000000000000000000000000000000000000000000000000000815260206004820152601f60248201527f5472616e7366657220746f207061727469636970616e7431206661696c65640060448201526064015b60405180910390fd5b505b8915610e2a57600184015460405160009173ffffffffffffffffffffffffffffffffffffffff16908c908381818185875af1925050503d8060008114610db8576040519150601f19603f3d011682016040523d82523d6000602084013e610dbd565b606091505b5050905080610e28576040517f08c379a000000000000000000000000000000000000000000000000000000000815260206004820152601f60248201527f5472616e7366657220746f207061727469636970616e7432206661696c6564006044820152606401610d4b565b505b604080518c8152602081018c90528d917faee37d46ae7638649199a415cd6d49cc67df520cf2c80210daac017e0df3ab989101610682565b73ffffffffffffffffffffffffffffffffffffffff8116600090815260036020908152604080832080548251818502810185019093528083528493830182828015610ecc57602002820191906000526020600020905b815481526020019060010190808311610eb8575b5050505050905060005b8151811015610f375760026000838381518110610ef557610ef5611c77565b60209081029190910181015182528101919091526040016000206008015460ff1615610f25575060019392505050565b80610f2f81611c3f565b915050610ed6565b5060009392505050565b73ffffffffffffffffffffffffffffffffffffffff8116600090815260036020908152604091829020805483518184028101840190945280845260609392830182828015610fae57602002820191906000526020600020905b815481526020019060010190808311610f9a575b50505050509050919050565b610fc261165f565b610fcc60006116b2565b565b611054604051806101400160405280600073ffffffffffffffffffffffffffffffffffffffff168152602001600073ffffffffffffffffffffffffffffffffffffffff1681526020016000815260200160008152602001600081526020016000815260200160008152602001600081526020016000151581526020016000151581525090565b50600090815260026020818152604092839020835161014081018552815473ffffffffffffffffffffffffffffffffffffffff90811682526001830154169281019290925291820154928101929092526003810154606083015260048101546080830152600581015460a0830152600681015460c0830152600781015460e08301526008015460ff80821615156101008085019190915290910416151561012082015290565b6000818152600260205260409020600881015460ff16611146576040517fac85312300000000000000000000000000000000000000000000000000000000815260040160405180910390fd5b805473ffffffffffffffffffffffffffffffffffffffff1633148015906111875750600181015473ffffffffffffffffffffffffffffffffffffffff163314155b156111be576040517f82b4290000000000000000000000000000000000000000000000000000000000815260040160405180910390fd5b6008810180547fffffffffffffffffffffffffffffffffffffffffffffffffffffffffffff00ff166101001790556111f96201518042611c2c565b60068201819055604051908152339083907f4a23680165005d530007f6f31e6bc086d13a3cf975d5f87a314e806cec5fd7eb9060200160405180910390a35050565b61124361165f565b60008381526002602052604090206008810154610100900460ff16611294576040517f1e07dd9400000000000000000000000000000000000000000000000000000000815260040160405180910390fd5b8060060154421015611302576040517f08c379a000000000000000000000000000000000000000000000000000000000815260206004820152601360248201527f54696d656f7574206e6f742072656163686564000000000000000000000000006044820152606401610d4b565b60048101546113118385611c2c565b14611348576040517f0c0d854c00000000000000000000000000000000000000000000000000000000815260040160405180910390fd5b6008810180547fffffffffffffffffffffffffffffffffffffffffffffffffffffffffffff0000169055821561144357805460405160009173ffffffffffffffffffffffffffffffffffffffff169085908381818185875af1925050503d80600081146113d1576040519150601f19603f3d011682016040523d82523d6000602084013e6113d6565b606091505b5050905080611441576040517f08c379a000000000000000000000000000000000000000000000000000000000815260206004820152601f60248201527f5472616e7366657220746f207061727469636970616e7431206661696c6564006044820152606401610d4b565b505b811561151757600181015460405160009173ffffffffffffffffffffffffffffffffffffffff169084908381818185875af1925050503d80600081146114a5576040519150601f19603f3d011682016040523d82523d6000602084013e6114aa565b606091505b5050905080611515576040517f08c379a000000000000000000000000000000000000000000000000000000000815260206004820152601f60248201527f5472616e7366657220746f207061727469636970616e7432206661696c6564006044820152606401610d4b565b505b6040516001815284907f6309d9f2499864a4f9d4ddb22f2b493afde8c215a1cd2e178647596cffe2efa49060200160405180910390a2604080518481526020810184905285917faee37d46ae7638649199a415cd6d49cc67df520cf2c80210daac017e0df3ab98910160405180910390a250505050565b61159661165f565b73ffffffffffffffffffffffffffffffffffffffff81166115e6576040517f1e4fbdf700000000000000000000000000000000000000000000000000000000815260006004820152602401610d4b565b6115ef816116b2565b50565b60026001540361162e576040517f3ee5aeb500000000000000000000000000000000000000000000000000000000815260040160405180910390fd5b6002600155565b6000806000806116458686611727565b9250925092506116558282611774565b5090949350505050565b60005473ffffffffffffffffffffffffffffffffffffffff163314610fcc576040517f118cdaa7000000000000000000000000000000000000000000000000000000008152336004820152602401610d4b565b6000805473ffffffffffffffffffffffffffffffffffffffff8381167fffffffffffffffffffffffff0000000000000000000000000000000000000000831681178455604051919092169283917f8be0079c531659141344cd1fd0a4f28419497f9722a3daafe3b4186f6b6457e09190a35050565b600080600083516041036117615760208401516040850151606086015160001a6117538882858561187c565b95509550955050505061176d565b50508151600091506002905b9250925092565b600082600381111561178857611788611ca6565b03611791575050565b60018260038111156117a5576117a5611ca6565b036117dc576040517ff645eedf00000000000000000000000000000000000000000000000000000000815260040160405180910390fd5b60028260038111156117f0576117f0611ca6565b0361182a576040517ffce698f700000000000000000000000000000000000000000000000000000000815260048101829052602401610d4b565b600382600381111561183e5761183e611ca6565b03611878576040517fd78bce0c00000000000000000000000000000000000000000000000000000000815260048101829052602401610d4b565b5050565b600080807f7fffffffffffffffffffffffffffffff5d576e7357a4501ddfe92f46681b20a08411156118b7575060009150600390508261196c565b604080516000808252602082018084528a905260ff891692820192909252606081018790526080810186905260019060a0016020604051602081039080840390855afa15801561190b573d6000803e3d6000fd5b50506040517fffffffffffffffffffffffffffffffffffffffffffffffffffffffffffffffe0015191505073ffffffffffffffffffffffffffffffffffffffff81166119625750600092506001915082905061196c565b9250600091508190505b9450945094915050565b60008083601f84011261198857600080fd5b50813567ffffffffffffffff8111156119a057600080fd5b6020830191508360208285010111156119b857600080fd5b9250929050565b60008060008060008060008060c0898b0312156119db57600080fd5b88359750602089013596506040890135955060608901359450608089013567ffffffffffffffff80821115611a0f57600080fd5b611a1b8c838d01611976565b909650945060a08b0135915080821115611a3457600080fd5b50611a418b828c01611976565b999c989b5096995094979396929594505050565b803573ffffffffffffffffffffffffffffffffffffffff81168114611a7957600080fd5b919050565b60008060408385031215611a9157600080fd5b611a9a83611a55565b946020939093013593505050565b600060208284031215611aba57600080fd5b611ac382611a55565b9392505050565b6020808252825182820181905260009190848201906040850190845b81811015611b0257835183529284019291840191600101611ae6565b50909695505050505050565b600060208284031215611b2057600080fd5b5035919050565b815173ffffffffffffffffffffffffffffffffffffffff16815261014081016020830151611b6d602084018273ffffffffffffffffffffffffffffffffffffffff169052565b5060408301516040830152606083015160608301526080830151608083015260a083015160a083015260c083015160c083015260e083015160e083015261010080840151611bbe8285018215159052565b5050610120928301511515919092015290565b600080600060608486031215611be657600080fd5b505081359360208301359350604090920135919050565b7f4e487b7100000000000000000000000000000000000000000000000000000000600052601160045260246000fd5b80820180821115610a1257610a12611bfd565b60007fffffffffffffffffffffffffffffffffffffffffffffffffffffffffffffffff8203611c7057611c70611bfd565b5060010190565b7f4e487b7100000000000000000000000000000000000000000000000000000000600052603260045260246000fd5b7f4e487b7100000000000000000000000000000000000000000000000000000000600052602160045260246000fdfea2646970667358221220b76ce455f7afe5be0a7e9989c6f5789b61fb71576509cddd64fac74ef3256da464736f6c63430008140033",
  "linkReferences": {},
  "deployedLinkReferences": {}
}