{
  "_format": "hh-sol-artifact-1",
  "contractName": "RentalVault",
  "sourceName": "contracts/src/RentalVault.sol",
  "abi": [
    {
      "inputs": [],
      "stateMutability": "nonpayable",
      "type": "constructor"
    },
    {
      "inputs": [],
      "name": "AlreadyListed",
      "type": "error"
    },
    {
      "inputs": [],
      "name": "EnforcedPause",
      "type": "error"
    },
    {
      "inputs": [],
      "name": "ExpectedPause",
      "type": "error"
    },
    {
      "inputs": [],
      "name": "InvalidDuration",
      "type": "error"
    },
    {
      "inputs": [],
      "name": "InvalidPrice",
      "type": "error"
    },
    {
      "inputs": [],
      "name": "NotListed",
      "type": "error"
    },
    {
      "inputs": [
        {
          "internalType": "address",
          "name": "owner",
          "type": "address"
        }
      ],
      "name": "OwnableInvalidOwner",
      "type": "error"
    },
    {
      "inputs": [
        {
          "internalType": "address",
          "name": "account",
          "type": "address"
        }
      ],
      "name": "OwnableUnauthorizedAccount",
      "type": "error"
    },
    {
      "inputs": [],
      "name": "PositionIsLocked",
      "type": "error"
    },
    {
      "inputs": [],
      "name": "PositionNotFound",
      "type": "error"
    },
    {
      "inputs": [],
      "name": "ReentrancyGuardReentrantCall",
      "type": "error"
    },
    {
      "inputs": [],
      "name": "Unauthorized",
      "type": "error"
    },
    {
      "inputs": [],
      "name": "ZeroAddress",
      "type": "error"
    },
    {
      "anonymous": false,
      "inputs": [
        {
          "indexed": true,
          "internalType": "address",
          "name": "previousOwner",
          "type": "address"
        },
        {
          "indexed": true,
          "internalType": "address",
          "name": "newOwner",
          "type": "address"
        }
      ],
      "name": "OwnershipTransferred",
      "type": "event"
    },
    {
      "anonymous": false,
      "inputs": [
        {
          "indexed": false,
          "internalType": "address",
          "name": "account",
          "type": "address"
        }
      ],
      "name": "Paused",
      "type": "event"
    },
    {
      "anonymous": false,
      "inputs": [
        {
          "indexed": true,
          "internalType": "bytes32",
          "name": "positionId",
          "type": "bytes32"
        },
        {
          "indexed": true,
          "internalType": "address",
          "name": "owner",
          "type": "address"
        },
        {
          "indexed": false,
          "internalType": "address",
          "name": "nftContract",
          "type": "address"
        },
        {
          "indexed": false,
          "internalType": "uint256",
          "name": "tokenId",
          "type": "uint256"
        }
      ],
      "name": "PositionDeposited",
      "type": "event"
    },
    {
      "anonymous": false,
      "inputs": [
        {
          "indexed": true,
          "internalType": "bytes32",
          "name": "positionId",
          "type": "bytes32"
        },
        {
          "indexed": false,
          "internalType": "uint256",
          "name": "pricePerSecond",
          "type": "uint256"
        },
        {
          "indexed": false,
          "internalType": "uint256",
          "name": "minDuration",
          "type": "uint256"
        },
        {
          "indexed": false,
          "internalType": "uint256",
          "name": "maxDuration",
          "type": "uint256"
        }
      ],
      "name": "PositionListed",
      "type": "event"
    },
    {
      "anonymous": false,
      "inputs": [
        {
          "indexed": true,
          "internalType": "bytes32",
          "name": "positionId",
          "type": "bytes32"
        }
      ],
      "name": "PositionLocked",
      "type": "event"
    },
    {
      "anonymous": false,
      "inputs": [
        {
          "indexed": true,
          "internalType": "bytes32",
          "name": "positionId",
          "type": "bytes32"
        }
      ],
      "name": "PositionUnlisted",
      "type": "event"
    },
    {
      "anonymous": false,
      "inputs": [
        {
          "indexed": true,
          "internalType": "bytes32",
          "name": "positionId",
          "type": "bytes32"
        }
      ],
      "name": "PositionUnlocked",
      "type": "event"
    },
    {
      "anonymous": false,
      "inputs": [
        {
          "indexed": true,
          "internalType": "bytes32",
          "name": "positionId",
          "type": "bytes32"
        },
        {
          "indexed": true,
          "internalType": "address",
          "name": "owner",
          "type": "address"
        }
      ],
      "name": "PositionWithdrawn",
      "type": "event"
    },
    {
      "anonymous": false,
      "inputs": [
        {
          "indexed": false,
          "internalType": "address",
          "name": "account",
          "type": "address"
        }
      ],
      "name": "Unpaused",
      "type": "event"
    },
    {
      "inputs": [
        {
          "internalType": "address",
          "name": "nftContract",
          "type": "address"
        },
        {
          "internalType": "uint256",
          "name": "tokenId",
          "type": "uint256"
        }
      ],
      "name": "depositPosition",
      "outputs": [
        {
          "internalType": "bytes32",
          "name": "positionId",
          "type": "bytes32"
        }
      ],
      "stateMutability": "nonpayable",
      "type": "function"
    },
    {
      "inputs": [
        {
          "internalType": "address",
          "name": "owner",
          "type": "address"
        }
      ],
      "name": "getOwnerPositions",
      "outputs": [
        {
          "internalType": "bytes32[]",
          "name": "",
          "type": "bytes32[]"
        }
      ],
      "stateMutability": "view",
      "type": "function"
    },
    {
      "inputs": [
        {
          "internalType": "bytes32",
          "name": "positionId",
          "type": "bytes32"
        }
      ],
      "name": "getPosition",
      "outputs": [
        {
          "components": [
            {
              "internalType": "address",
              "name": "owner",
              "type": "address"
            },
            {
              "internalType": "address",
              "name": "nftContract",
              "type": "address"
            },
            {
              "internalType": "uint256",
              "name": "tokenId",
              "type": "uint256"
            },
            {
              "internalType": "uint256",
              "name": "pricePerSecond",
              "type": "uint256"
            },
            {
              "internalType": "bool",
              "name": "isListed",
              "type": "bool"
            },
            {
              "internalType": "bool",
              "name": "isLocked",
              "type": "bool"
            },
            {
              "internalType": "uint256",
              "name": "minRentalDuration",
              "type": "uint256"
            },
            {
              "internalType": "uint256",
              "name": "maxRentalDuration",
              "type": "uint256"
            }
          ],
          "internalType": "struct RentalVault.Position",
          "name": "",
          "type": "tuple"
        }
      ],
      "stateMutability": "view",
      "type": "function"
    },
    {
      "inputs": [
        {
          "internalType": "bytes32",
          "name": "positionId",
          "type": "bytes32"
        },
        {
          "internalType": "uint256",
          "name": "pricePerSecond",
          "type": "uint256"
        },
        {
          "internalType": "uint256",
          "name": "minDuration",
          "type": "uint256"
        },
        {
          "internalType": "uint256",
          "name": "maxDuration",
          "type": "uint256"
        }
      ],
      "name": "listPosition",
      "outputs": [],
      "stateMutability": "nonpayable",
      "type": "function"
    },
    {
      "inputs": [
        {
          "internalType": "bytes32",
          "name": "positionId",
          "type": "bytes32"
        }
      ],
      "name": "lockPosition",
      "outputs": [],
      "stateMutability": "nonpayable",
      "type": "function"
    },
    {
      "inputs": [
        {
          "internalType": "address",
          "name": "",
          "type": "address"
        },
        {
          "internalType": "address",
          "name": "",
          "type": "address"
        },
        {
          "internalType": "uint256",
          "name": "",
          "type": "uint256"
        },
        {
          "internalType": "bytes",
          "name": "",
          "type": "bytes"
        }
      ],
      "name": "onERC721Received",
      "outputs": [
        {
          "internalType": "bytes4",
          "name": "",
          "type": "bytes4"
        }
      ],
      "stateMutability": "pure",
      "type": "function"
    },
    {
      "inputs": [],
      "name": "owner",
      "outputs": [
        {
          "internalType": "address",
          "name": "",
          "type": "address"
        }
      ],
      "stateMutability": "view",
      "type": "function"
    },
    {
      "inputs": [],
      "name": "pause",
      "outputs": [],
      "stateMutability": "nonpayable",
      "type": "function"
    },
    {
      "inputs": [],
      "name": "paused",
      "outputs": [
        {
          "internalType": "bool",
          "name": "",
          "type": "bool"
        }
      ],
      "stateMutability": "view",
      "type": "function"
    },
    {
      "inputs": [
        {
          "internalType": "bytes32",
          "name": "",
          "type": "bytes32"
        }
      ],
      "name": "positions",
      "outputs": [
        {
          "internalType": "address",
          "name": "owner",
          "type": "address"
        },
        {
          "internalType": "address",
          "name": "nftContract",
          "type": "address"
        },
        {
          "internalType": "uint256",
          "name": "tokenId",
          "type": "uint256"
        },
        {
          "internalType": "uint256",
          "name": "pricePerSecond",
          "type": "uint256"
        },
        {
          "internalType": "bool",
          "name": "isListed",
          "type": "bool"
        },
        {
          "internalType": "bool",
          "name": "isLocked",
          "type": "bool"
        },
        {
          "internalType": "uint256",
          "name": "minRentalDuration",
          "type": "uint256"
        },
        {
          "internalType": "uint256",
          "name": "maxRentalDuration",
          "type": "uint256"
        }
      ],
      "stateMutability": "view",
      "type": "function"
    },
    {
      "inputs": [],
      "name": "renounceOwnership",
      "outputs": [],
      "stateMutability": "nonpayable",
      "type": "function"
    },
    {
      "inputs": [],
      "name": "totalPositions",
      "outputs": [
        {
          "internalType": "uint256",
          "name": "",
          "type": "uint256"
        }
      ],
      "stateMutability": "view",
      "type": "function"
    },
    {
      "inputs": [
        {
          "internalType": "address",
          "name": "newOwner",
          "type": "address"
        }
      ],
      "name": "transferOwnership",
      "outputs": [],
      "stateMutability": "nonpayable",
      "type": "function"
    },
    {
      "inputs": [
        {
          "internalType": "bytes32",
          "name": "positionId",
          "type": "bytes32"
        }
      ],
      "name": "unlistPosition",
      "outputs": [],
      "stateMutability": "nonpayable",
      "type": "function"
    },
    {
      "inputs": [
        {
          "internalType": "bytes32",
          "name": "positionId",
          "type": "bytes32"
        }
      ],
      "name": "unlockPosition",
      "outputs": [],
      "stateMutability": "nonpayable",
      "type": "function"
    },
    {
      "inputs": [],
      "name": "unpause",
      "outputs": [],
      "stateMutability": "nonpayable",
      "type": "function"
    },
    {
      "inputs": [
        {
          "internalType": "bytes32",
          "name": "positionId",
          "type": "bytes32"
        }
      ],
      "name": "withdrawPosition",
      "outputs": [],
      "stateMutability": "nonpayable",
      "type": "function"
    }
  ],
  "bytecode": "0x6080604052348015600f57600080fd5b503380603557604051631e4fbdf760e01b81526000600482015260240160405180910390fd5b603c816045565b50600180556095565b600080546001600160a01b038381166001600160a01b0319831681178455604051919092169283917f8be0079c531659141344cd1fd0a4f28419497f9722a3daafe3b4186f6b6457e09190a35050565b6116e0806100a46000396000f3fe608060405234801561001057600080fd5b506004361061011b5760003560e01c8063715018a6116100b2578063cae45ed611610081578063f4d5ab0b11610066578063f4d5ab0b1461035b578063fda1fa5f1461036e578063ffcb09b41461037757600080fd5b8063cae45ed614610335578063f2fde38b1461034857600080fd5b8063715018a6146102dd5780638456cb59146102e5578063845e1259146102ed5780638da5cb5b1461030d57600080fd5b80633f4ba83a116100ee5780633f4ba83a146101e4578063514ea4bf146101ec5780635c975abb146102b4578063677e79ea146102ca57600080fd5b8063150b7a021461012057806318ec47c41461018e5780631928b3cb146101af5780633baded20146101cf575b600080fd5b61015861012e366004611395565b7f150b7a020000000000000000000000000000000000000000000000000000000095945050505050565b6040517fffffffff0000000000000000000000000000000000000000000000000000000090911681526020015b60405180910390f35b6101a161019c366004611432565b61038a565b604051908152602001610185565b6101c26101bd36600461145c565b610744565b6040516101859190611475565b6101e26101dd366004611506565b61084c565b005b6101e2610a46565b61025d6101fa36600461145c565b6003602081905260009182526040909120805460018201546002830154938301546004840154600585015460069095015473ffffffffffffffffffffffffffffffffffffffff948516969490931694919260ff8083169361010090930416919088565b6040805173ffffffffffffffffffffffffffffffffffffffff998a16815298909716602089015295870194909452606086019290925215156080850152151560a084015260c083015260e082015261010001610185565b60025460ff166040519015158152602001610185565b6101e26102d836600461145c565b610a58565b6101e2610b15565b6101e2610b27565b6103006102fb366004611538565b610b37565b604051610185919061155a565b60005460405173ffffffffffffffffffffffffffffffffffffffff9091168152602001610185565b6101e261034336600461145c565b610bb0565b6101e2610356366004611538565b610c71565b6101e261036936600461145c565b610cda565b6101a160055481565b6101e261038536600461145c565b610e21565b600061039461103f565b61039c611082565b73ffffffffffffffffffffffffffffffffffffffff83166103e9576040517fd92e233d00000000000000000000000000000000000000000000000000000000815260040160405180910390fd5b6040517f42842e0e0000000000000000000000000000000000000000000000000000000081523360048201523060248201526044810183905273ffffffffffffffffffffffffffffffffffffffff8416906342842e0e90606401600060405180830381600087803b15801561045d57600080fd5b505af1158015610471573d6000803e3d6000fd5b50506005546040517fffffffffffffffffffffffffffffffffffffffff00000000000000000000000033606090811b8216602084015288901b16603482015260488101869052426068820152608881019190915260a80191506104d19050565b6040516020818303038152906040528051906020012090506040518061010001604052803373ffffffffffffffffffffffffffffffffffffffff1681526020018473ffffffffffffffffffffffffffffffffffffffff168152602001838152602001600081526020016000151581526020016000151581526020016000815260200160008152506003600083815260200190815260200160002060008201518160000160006101000a81548173ffffffffffffffffffffffffffffffffffffffff021916908373ffffffffffffffffffffffffffffffffffffffff16021790555060208201518160010160006101000a81548173ffffffffffffffffffffffffffffffffffffffff021916908373ffffffffffffffffffffffffffffffffffffffff160217905550604082015181600201556060820151816003015560808201518160040160006101000a81548160ff02191690831515021790555060a08201518160040160016101000a81548160ff02191690831515021790555060c0820151816005015560e08201518160060155905050600460003373ffffffffffffffffffffffffffffffffffffffff1673ffffffffffffffffffffffffffffffffffffffff168152602001908152602001600020819080600181540180825580915050600190039060005260206000200160009091909190915055600560008154809291906106dd906115cc565b90915550506040805173ffffffffffffffffffffffffffffffffffffffff8516815260208101849052339183917fb2107f3d0e60e06aed3e19367ea31f6fbd0386eaf5ecf1c36949f04599496256910160405180910390a361073e60018055565b92915050565b6040805161010081018252600080825260208201819052918101829052606081018290526080810182905260a0810182905260c0810182905260e081019190915260008281526003602081815260409283902083516101008082018652825473ffffffffffffffffffffffffffffffffffffffff908116808452600185015490911694830194909452600283015495820195909552928101546060840152600481015460ff80821615156080860152949004909316151560a0830152600583015460c083015260069092015460e08201529061073e576040517f6ec9be1100000000000000000000000000000000000000000000000000000000815260040160405180910390fd5b61085461103f565b6000848152600360205260409020805473ffffffffffffffffffffffffffffffffffffffff1633146108b2576040517f82b4290000000000000000000000000000000000000000000000000000000000815260040160405180910390fd5b6004810154610100900460ff16156108f6576040517fbdc9917100000000000000000000000000000000000000000000000000000000815260040160405180910390fd5b600481015460ff1615610935576040517fa3d582ec00000000000000000000000000000000000000000000000000000000815260040160405180910390fd5b8360000361096e576040517ebfc92100000000000000000000000000000000000000000000000000000000815260040160405180910390fd5b82158061097a57508282105b156109b1576040517f7616640100000000000000000000000000000000000000000000000000000000815260040160405180910390fd5b6003810184905560058101839055600681018290556004810180547fffffffffffffffffffffffffffffffffffffffffffffffffffffffffffffff00166001179055604080518581526020810185905290810183905285907fc99d8d42348448cec71a42d15c5dd83f4b7faaf44f54b02606cf4001a9c34e779060600160405180910390a250610a4060018055565b50505050565b610a4e6110bf565b610a56611112565b565b610a606110bf565b6000818152600360205260409020805473ffffffffffffffffffffffffffffffffffffffff16610abc576040517f6ec9be1100000000000000000000000000000000000000000000000000000000815260040160405180910390fd5b6004810180547fffffffffffffffffffffffffffffffffffffffffffffffffffffffffffff00ff16905560405182907f09a6a24228c1b2dd32be64c4bd404bd970c25e0c0ce94a57abc12f980fcf4d7e90600090a25050565b610b1d6110bf565b610a56600061118f565b610b2f6110bf565b610a56611204565b73ffffffffffffffffffffffffffffffffffffffff8116600090815260046020908152604091829020805483518184028101840190945280845260609392830182828015610ba457602002820191906000526020600020905b815481526020019060010190808311610b90575b50505050509050919050565b610bb86110bf565b6000818152600360205260409020805473ffffffffffffffffffffffffffffffffffffffff16610c14576040517f6ec9be1100000000000000000000000000000000000000000000000000000000815260040160405180910390fd5b6004810180547fffffffffffffffffffffffffffffffffffffffffffffffffffffffffffff00ff1661010017905560405182907f7af458538e5c803d5244c2a5d64795658fc3f839994a4073f0d13bcbeb0aed1190600090a25050565b610c796110bf565b73ffffffffffffffffffffffffffffffffffffffff8116610cce576040517f1e4fbdf7000000000000000000000000000000000000000000000000000000008152600060048201526024015b60405180910390fd5b610cd78161118f565b50565b610ce261103f565b6000818152600360205260409020805473ffffffffffffffffffffffffffffffffffffffff163314610d40576040517f82b4290000000000000000000000000000000000000000000000000000000000815260040160405180910390fd5b6004810154610100900460ff1615610d84576040517fbdc9917100000000000000000000000000000000000000000000000000000000815260040160405180910390fd5b600481015460ff16610dc2576040517f665c1c5700000000000000000000000000000000000000000000000000000000815260040160405180910390fd5b6004810180547fffffffffffffffffffffffffffffffffffffffffffffffffffffffffffffff0016905560405182907fd62c4954c442fec350ef5862ef47eb268546b4ebaf79b67d388a59fa6c6c268790600090a250610cd760018055565b610e2961103f565b6000818152600360205260409020805473ffffffffffffffffffffffffffffffffffffffff163314610e87576040517f82b4290000000000000000000000000000000000000000000000000000000000815260040160405180910390fd5b6004810154610100900460ff1615610ecb576040517fbdc9917100000000000000000000000000000000000000000000000000000000815260040160405180910390fd5b600181015460028201546040517f42842e0e000000000000000000000000000000000000000000000000000000008152306004820152336024820152604481019190915273ffffffffffffffffffffffffffffffffffffffff909116906342842e0e90606401600060405180830381600087803b158015610f4b57600080fd5b505af1158015610f5f573d6000803e3d6000fd5b50505050610f6d338361125f565b6000828152600360208190526040822080547fffffffffffffffffffffffff000000000000000000000000000000000000000090811682556001820180549091169055600281018390559081018290556004810180547fffffffffffffffffffffffffffffffffffffffffffffffffffffffffffff00001690556005808201839055600690910182905580549161100383611604565b9091555050604051339083907f4cd28739960e4ea2541475296d8d63632791c1326da36965bb5ffc96b0cc0f0490600090a350610cd760018055565b60026001540361107b576040517f3ee5aeb500000000000000000000000000000000000000000000000000000000815260040160405180910390fd5b6002600155565b60025460ff1615610a56576040517fd93c066500000000000000000000000000000000000000000000000000000000815260040160405180910390fd5b60005473ffffffffffffffffffffffffffffffffffffffff163314610a56576040517f118cdaa7000000000000000000000000000000000000000000000000000000008152336004820152602401610cc5565b61111a611330565b600280547fffffffffffffffffffffffffffffffffffffffffffffffffffffffffffffff001690557f5db9ee0a495bf2e6ff9c91a7834c1ba4fdd244a5e8aa4e537bd38aeae4b073aa335b60405173ffffffffffffffffffffffffffffffffffffffff909116815260200160405180910390a1565b6000805473ffffffffffffffffffffffffffffffffffffffff8381167fffffffffffffffffffffffff0000000000000000000000000000000000000000831681178455604051919092169283917f8be0079c531659141344cd1fd0a4f28419497f9722a3daafe3b4186f6b6457e09190a35050565b61120c611082565b600280547fffffffffffffffffffffffffffffffffffffffffffffffffffffffffffffff001660011790557f62e78cea01bee320cd4e420270b5ea74000d11b0c9f74754ebdbfc544b05a2586111653390565b73ffffffffffffffffffffffffffffffffffffffff82166000908152600460205260408120905b8154811015610a4057828282815481106112a2576112a2611639565b90600052602060002001540361132857815482906112c290600190611668565b815481106112d2576112d2611639565b90600052602060002001548282815481106112ef576112ef611639565b90600052602060002001819055508180548061130d5761130d61167b565b60019003818190600052602060002001600090559055610a40565b600101611286565b60025460ff16610a56576040517f8dfc202b00000000000000000000000000000000000000000000000000000000815260040160405180910390fd5b803573ffffffffffffffffffffffffffffffffffffffff8116811461139057600080fd5b919050565b6000806000806000608086880312156113ad57600080fd5b6113b68661136c565b94506113c46020870161136c565b935060408601359250606086013567ffffffffffffffff8111156113e757600080fd5b8601601f810188136113f857600080fd5b803567ffffffffffffffff81111561140f57600080fd5b88602082840101111561142157600080fd5b959894975092955050506020019190565b6000806040838503121561144557600080fd5b61144e8361136c565b946020939093013593505050565b60006020828403121561146e57600080fd5b5035919050565b60006101008201905073ffffffffffffffffffffffffffffffffffffffff835116825273ffffffffffffffffffffffffffffffffffffffff6020840151166020830152604083015160408301526060830151606083015260808301511515608083015260a08301516114eb60a084018215159052565b5060c083015160c083015260e083015160e083015292915050565b6000806000806080858703121561151c57600080fd5b5050823594602084013594506040840135936060013592509050565b60006020828403121561154a57600080fd5b6115538261136c565b9392505050565b602080825282518282018190526000918401906040840190835b81811015611592578351835260209384019390920191600101611574565b509095945050505050565b7f4e487b7100000000000000000000000000000000000000000000000000000000600052601160045260246000fd5b60007fffffffffffffffffffffffffffffffffffffffffffffffffffffffffffffffff82036115fd576115fd61159d565b5060010190565b6000816116135761161361159d565b507fffffffffffffffffffffffffffffffffffffffffffffffffffffffffffffffff0190565b7f4e487b7100000000000000000000000000000000000000000000000000000000600052603260045260246000fd5b8181038181111561073e5761073e61159d565b7f4e487b7100000000000000000000000000000000000000000000000000000000600052603160045260246000fdfea26469706673582212204eede35c652ae18a50da3d9393595f016feff65ef2dbae98a4bce5e3d5e644eb64736f6c634300081a0033",
  "linkReferences": {},
  "deployedLinkReferences": {}
}