{
  "_format": "hh-sol-artifact-1",
  "contractName": "FlashLP",
  "sourceName": "contracts/src/FlashLP.sol",
  "abi": [
    {
      "inputs": [],
      "stateMutability": "nonpayable",
      "type": "constructor"
    },
    {
      "inputs": [
        {
          "internalType": "address",
          "name": "sender",
          "type": "address"
        },
        {
          "internalType": "uint256",
          "name": "tokenId",
          "type": "uint256"
        },
        {
          "internalType": "address",
          "name": "owner",
          "type": "address"
        }
      ],
      "name": "ERC721IncorrectOwner",
      "type": "error"
    },
    {
      "inputs": [
        {
          "internalType": "address",
          "name": "operator",
          "type": "address"
        },
        {
          "internalType": "uint256",
          "name": "tokenId",
          "type": "uint256"
        }
      ],
      "name": "ERC721InsufficientApproval",
      "type": "error"
    },
    {
      "inputs": [
        {
          "internalType": "address",
          "name": "approver",
          "type": "address"
        }
      ],
      "name": "ERC721InvalidApprover",
      "type": "error"
    },
    {
      "inputs": [
        {
          "internalType": "address",
          "name": "operator",
          "type": "address"
        }
      ],
      "name": "ERC721InvalidOperator",
      "type": "error"
    },
    {
      "inputs": [
        {
          "internalType": "address",
          "name": "owner",
          "type": "address"
        }
      ],
      "name": "ERC721InvalidOwner",
      "type": "error"
    },
    {
      "inputs": [
        {
          "internalType": "address",
          "name": "receiver",
          "type": "address"
        }
      ],
      "name": "ERC721InvalidReceiver",
      "type": "error"
    },
    {
      "inputs": [
        {
          "internalType": "address",
          "name": "sender",
          "type": "address"
        }
      ],
      "name": "ERC721InvalidSender",
      "type": "error"
    },
    {
      "inputs": [
        {
          "internalType": "uint256",
          "name": "tokenId",
          "type": "uint256"
        }
      ],
      "name": "ERC721NonexistentToken",
      "type": "error"
    },
    {
      "inputs": [
        {
          "internalType": "address",
          "name": "owner",
          "type": "address"
        }
      ],
      "name": "OwnableInvalidOwner",
      "type": "error"
    },
    {
      "inputs": [
        {
          "internalType": "address",
          "name": "account",
          "type": "address"
        }
      ],
      "name": "OwnableUnauthorizedAccount",
      "type": "error"
    },
    {
      "inputs": [],
      "name": "ReentrancyGuardReentrantCall",
      "type": "error"
    },
    {
      "anonymous": false,
      "inputs": [
        {
          "indexed": true,
          "internalType": "address",
          "name": "owner",
          "type": "address"
        },
        {
          "indexed": true,
          "internalType": "address",
          "name": "approved",
          "type": "address"
        },
        {
          "indexed": true,
          "internalType": "uint256",
          "name": "tokenId",
          "type": "uint256"
        }
      ],
      "name": "Approval",
      "type": "event"
    },
    {
      "anonymous": false,
      "inputs": [
        {
          "indexed": true,
          "internalType": "address",
          "name": "owner",
          "type": "address"
        },
        {
          "indexed": true,
          "internalType": "address",
          "name": "operator",
          "type": "address"
        },
        {
          "indexed": false,
          "internalType": "bool",
          "name": "approved",
          "type": "bool"
        }
      ],
      "name": "ApprovalForAll",
      "type": "event"
    },
    {
      "anonymous": false,
      "inputs": [
        {
          "indexed": true,
          "internalType": "address",
          "name": "previousOwner",
          "type": "address"
        },
        {
          "indexed": true,
          "internalType": "address",
          "name": "newOwner",
          "type": "address"
        }
      ],
      "name": "OwnershipTransferred",
      "type": "event"
    },
    {
      "anonymous": false,
      "inputs": [
        {
          "indexed": true,
          "internalType": "uint256",
          "name": "poolId",
          "type": "uint256"
        },
        {
          "indexed": true,
          "internalType": "address",
          "name": "owner",
          "type": "address"
        },
        {
          "indexed": false,
          "internalType": "address",
          "name": "token0",
          "type": "address"
        },
        {
          "indexed": false,
          "internalType": "address",
          "name": "token1",
          "type": "address"
        },
        {
          "indexed": false,
          "internalType": "uint256",
          "name": "amount0",
          "type": "uint256"
        },
        {
          "indexed": false,
          "internalType": "uint256",
          "name": "amount1",
          "type": "uint256"
        },
        {
          "indexed": false,
          "internalType": "uint256",
          "name": "chainId",
          "type": "uint256"
        }
      ],
      "name": "PoolCreated",
      "type": "event"
    },
    {
      "anonymous": false,
      "inputs": [
        {
          "indexed": true,
          "internalType": "uint256",
          "name": "rentalId",
          "type": "uint256"
        },
        {
          "indexed": true,
          "internalType": "address",
          "name": "renter",
          "type": "address"
        },
        {
          "indexed": false,
          "internalType": "uint256",
          "name": "amount",
          "type": "uint256"
        }
      ],
      "name": "ProfitWithdrawn",
      "type": "event"
    },
    {
      "anonymous": false,
      "inputs": [
        {
          "indexed": true,
          "internalType": "uint256",
          "name": "rentalId",
          "type": "uint256"
        },
        {
          "indexed": true,
          "internalType": "uint256",
          "name": "poolId",
          "type": "uint256"
        },
        {
          "indexed": true,
          "internalType": "address",
          "name": "renter",
          "type": "address"
        },
        {
          "indexed": false,
          "internalType": "uint256",
          "name": "duration",
          "type": "uint256"
        },
        {
          "indexed": false,
          "internalType": "uint256",
          "name": "pricePerSecond",
          "type": "uint256"
        },
        {
          "indexed": false,
          "internalType": "uint256",
          "name": "collateral",
          "type": "uint256"
        }
      ],
      "name": "RentalCreated",
      "type": "event"
    },
    {
      "anonymous": false,
      "inputs": [
        {
          "indexed": true,
          "internalType": "uint256",
          "name": "rentalId",
          "type": "uint256"
        },
        {
          "indexed": false,
          "internalType": "uint256",
          "name": "totalSwaps",
          "type": "uint256"
        },
        {
          "indexed": false,
          "internalType": "uint256",
          "name": "totalFeesEarned",
          "type": "uint256"
        },
        {
          "indexed": false,
          "internalType": "uint256",
          "name": "netProfit",
          "type": "uint256"
        }
      ],
      "name": "RentalEnded",
      "type": "event"
    },
    {
      "anonymous": false,
      "inputs": [
        {
          "indexed": true,
          "internalType": "uint256",
          "name": "swapId",
          "type": "uint256"
        },
        {
          "indexed": true,
          "internalType": "uint256",
          "name": "rentalId",
          "type": "uint256"
        },
        {
          "indexed": true,
          "internalType": "address",
          "name": "swapper",
          "type": "address"
        },
        {
          "indexed": false,
          "internalType": "uint256",
          "name": "amountIn",
          "type": "uint256"
        },
        {
          "indexed": false,
          "internalType": "uint256",
          "name": "amountOut",
          "type": "uint256"
        },
        {
          "indexed": false,
          "internalType": "uint256",
          "name": "feeCharged",
          "type": "uint256"
        },
        {
          "indexed": false,
          "internalType": "bool",
          "name": "isCrossChain",
          "type": "bool"
        }
      ],
      "name": "SwapExecuted",
      "type": "event"
    },
    {
      "anonymous": false,
      "inputs": [
        {
          "indexed": true,
          "internalType": "address",
          "name": "from",
          "type": "address"
        },
        {
          "indexed": true,
          "internalType": "address",
          "name": "to",
          "type": "address"
        },
        {
          "indexed": true,
          "internalType": "uint256",
          "name": "tokenId",
          "type": "uint256"
        }
      ],
      "name": "Transfer",
      "type": "event"
    },
    {
      "inputs": [
        {
          "internalType": "uint256",
          "name": "chainId",
          "type": "uint256"
        }
      ],
      "name": "addSupportedChain",
      "outputs": [],
      "stateMutability": "nonpayable",
      "type": "function"
    },
    {
      "inputs": [
        {
          "internalType": "address",
          "name": "to",
          "type": "address"
        },
        {
          "internalType": "uint256",
          "name": "tokenId",
          "type": "uint256"
        }
      ],
      "name": "approve",
      "outputs": [],
      "stateMutability": "nonpayable",
      "type": "function"
    },
    {
      "inputs": [
        {
          "internalType": "address",
          "name": "owner",
          "type": "address"
        }
      ],
      "name": "balanceOf",
      "outputs": [
        {
          "internalType": "uint256",
          "name": "",
          "type": "uint256"
        }
      ],
      "stateMutability": "view",
      "type": "function"
    },
    {
      "inputs": [
        {
          "internalType": "address",
          "name": "token0",
          "type": "address"
        },
        {
          "internalType": "address",
          "name": "token1",
          "type": "address"
        },
        {
          "internalType": "uint256",
          "name": "amount0",
          "type": "uint256"
        },
        {
          "internalType": "uint256",
          "name": "amount1",
          "type": "uint256"
        }
      ],
      "name": "createPool",
      "outputs": [
        {
          "internalType": "uint256",
          "name": "poolId",
          "type": "uint256"
        }
      ],
      "stateMutability": "nonpayable",
      "type": "function"
    },
    {
      "inputs": [
        {
          "internalType": "uint256",
          "name": "rentalId",
          "type": "uint256"
        }
      ],
      "name": "endRental",
      "outputs": [],
      "stateMutability": "nonpayable",
      "type": "function"
    },
    {
      "inputs": [
        {
          "internalType": "uint256",
          "name": "rentalId",
          "type": "uint256"
        },
        {
          "internalType": "address",
          "name": "tokenIn",
          "type": "address"
        },
        {
          "internalType": "uint256",
          "name": "amountIn",
          "type": "uint256"
        },
        {
          "internalType": "uint256",
          "name": "minOut",
          "type": "uint256"
        }
      ],
      "name": "executeSwap",
      "outputs": [
        {
          "internalType": "uint256",
          "name": "amountOut",
          "type": "uint256"
        }
      ],
      "stateMutability": "nonpayable",
      "type": "function"
    },
    {
      "inputs": [
        {
          "internalType": "uint256",
          "name": "tokenId",
          "type": "uint256"
        }
      ],
      "name": "getApproved",
      "outputs": [
        {
          "internalType": "address",
          "name": "",
          "type": "address"
        }
      ],
      "stateMutability": "view",
      "type": "function"
    },
    {
      "inputs": [
        {
          "internalType": "address",
          "name": "owner",
          "type": "address"
        }
      ],
      "name": "getOwnerPools",
      "outputs": [
        {
          "internalType": "uint256[]",
          "name": "",
          "type": "uint256[]"
        }
      ],
      "stateMutability": "view",
      "type": "function"
    },
    {
      "inputs": [
        {
          "internalType": "uint256",
          "name": "poolId",
          "type": "uint256"
        }
      ],
      "name": "getPoolDetails",
      "outputs": [
        {
          "components": [
            {
              "internalType": "address",
              "name": "owner",
              "type": "address"
            },
            {
              "internalType": "address",
              "name": "token0",
              "type": "address"
            },
            {
              "internalType": "address",
              "name": "token1",
              "type": "address"
            },
            {
              "internalType": "uint256",
              "name": "amount0",
              "type": "uint256"
            },
            {
              "internalType": "uint256",
              "name": "amount1",
              "type": "uint256"
            },
            {
              "internalType": "uint256",
              "name": "chainId",
              "type": "uint256"
            },
            {
              "internalType": "bool",
              "name": "exists",
              "type": "bool"
            },
            {
              "internalType": "uint256",
              "name": "totalSwaps",
              "type": "uint256"
            },
            {
              "internalType": "uint256",
              "name": "totalFeesCollected",
              "type": "uint256"
            }
          ],
          "internalType": "struct FlashLP.Pool",
          "name": "",
          "type": "tuple"
        }
      ],
      "stateMutability": "view",
      "type": "function"
    },
    {
      "inputs": [
        {
          "internalType": "uint256",
          "name": "poolId",
          "type": "uint256"
        }
      ],
      "name": "getPoolRentals",
      "outputs": [
        {
          "internalType": "uint256[]",
          "name": "",
          "type": "uint256[]"
        }
      ],
      "stateMutability": "view",
      "type": "function"
    },
    {
      "inputs": [
        {
          "internalType": "uint256",
          "name": "rentalId",
          "type": "uint256"
        }
      ],
      "name": "getRental",
      "outputs": [
        {
          "components": [
            {
              "internalType": "uint256",
              "name": "poolId",
              "type": "uint256"
            },
            {
              "internalType": "address",
              "name": "renter",
              "type": "address"
            },
            {
              "internalType": "address",
              "name": "poolOwner",
              "type": "address"
            },
            {
              "internalType": "uint256",
              "name": "startTime",
              "type": "uint256"
            },
            {
              "internalType": "uint256",
              "name": "endTime",
              "type": "uint256"
            },
            {
              "internalType": "uint256",
              "name": "pricePerSecond",
              "type": "uint256"
            },
            {
              "internalType": "uint256",
              "name": "collateral",
              "type": "uint256"
            },
            {
              "internalType": "bool",
              "name": "isActive",
              "type": "bool"
            },
            {
              "internalType": "uint256",
              "name": "swapCount",
              "type": "uint256"
            },
            {
              "internalType": "uint256",
              "name": "totalVolume",
              "type": "uint256"
            },
            {
              "internalType": "uint256",
              "name": "totalFeesEarned",
              "type": "uint256"
            },
            {
              "internalType": "uint256",
              "name": "totalGasCost",
              "type": "uint256"
            }
          ],
          "internalType": "struct FlashLP.Rental",
          "name": "",
          "type": "tuple"
        }
      ],
      "stateMutability": "view",
      "type": "function"
    },
    {
      "inputs": [
        {
          "internalType": "uint256",
          "name": "rentalId",
          "type": "uint256"
        }
      ],
      "name": "getRentalDetails",
      "outputs": [
        {
          "components": [
            {
              "internalType": "uint256",
              "name": "poolId",
              "type": "uint256"
            },
            {
              "internalType": "address",
              "name": "renter",
              "type": "address"
            },
            {
              "internalType": "address",
              "name": "poolOwner",
              "type": "address"
            },
            {
              "internalType": "uint256",
              "name": "startTime",
              "type": "uint256"
            },
            {
              "internalType": "uint256",
              "name": "endTime",
              "type": "uint256"
            },
            {
              "internalType": "uint256",
              "name": "pricePerSecond",
              "type": "uint256"
            },
            {
              "internalType": "uint256",
              "name": "collateral",
              "type": "uint256"
            },
            {
              "internalType": "bool",
              "name": "isActive",
              "type": "bool"
            },
            {
              "internalType": "uint256",
              "name": "swapCount",
              "type": "uint256"
            },
            {
              "internalType": "uint256",
              "name": "totalVolume",
              "type": "uint256"
            },
            {
              "internalType": "uint256",
              "name": "totalFeesEarned",
              "type": "uint256"
            },
            {
              "internalType": "uint256",
              "name": "totalGasCost",
              "type": "uint256"
            }
          ],
          "internalType": "struct FlashLP.Rental",
          "name": "rental",
          "type": "tuple"
        },
        {
          "components": [
            {
              "internalType": "uint256",
              "name": "totalFeesEarned",
              "type": "uint256"
            },
            {
              "internalType": "uint256",
              "name": "rentalCostPaid",
              "type": "uint256"
            },
            {
              "internalType": "uint256",
              "name": "gasCostEstimate",
              "type": "uint256"
            },
            {
              "internalType": "uint256",
              "name": "grossProfit",
              "type": "uint256"
            },
            {
              "internalType": "uint256",
              "name": "netProfit",
              "type": "uint256"
            },
            {
              "internalType": "uint256",
              "name": "roi",
              "type": "uint256"
            }
          ],
          "internalType": "struct FlashLP.ProfitBreakdown",
          "name": "profits",
          "type": "tuple"
        },
        {
          "internalType": "uint256",
          "name": "swapCount",
          "type": "uint256"
        }
      ],
      "stateMutability": "view",
      "type": "function"
    },
    {
      "inputs": [
        {
          "internalType": "uint256",
          "name": "rentalId",
          "type": "uint256"
        }
      ],
      "name": "getRentalProfits",
      "outputs": [
        {
          "components": [
            {
              "internalType": "uint256",
              "name": "totalFeesEarned",
              "type": "uint256"
            },
            {
              "internalType": "uint256",
              "name": "rentalCostPaid",
              "type": "uint256"
            },
            {
              "internalType": "uint256",
              "name": "gasCostEstimate",
              "type": "uint256"
            },
            {
              "internalType": "uint256",
              "name": "grossProfit",
              "type": "uint256"
            },
            {
              "internalType": "uint256",
              "name": "netProfit",
              "type": "uint256"
            },
            {
              "internalType": "uint256",
              "name": "roi",
              "type": "uint256"
            }
          ],
          "internalType": "struct FlashLP.ProfitBreakdown",
          "name": "",
          "type": "tuple"
        }
      ],
      "stateMutability": "view",
      "type": "function"
    },
    {
      "inputs": [
        {
          "internalType": "address",
          "name": "renter",
          "type": "address"
        }
      ],
      "name": "getRenterRentals",
      "outputs": [
        {
          "internalType": "uint256[]",
          "name": "",
          "type": "uint256[]"
        }
      ],
      "stateMutability": "view",
      "type": "function"
    },
    {
      "inputs": [
        {
          "internalType": "uint256",
          "name": "rentalId",
          "type": "uint256"
        }
      ],
      "name": "getSwapHistory",
      "outputs": [
        {
          "components": [
            {
              "internalType": "uint256",
              "name": "rentalId",
              "type": "uint256"
            },
            {
              "internalType": "uint256",
              "name": "timestamp",
              "type": "uint256"
            },
            {
              "internalType": "address",
              "name": "swapper",
              "type": "address"
            },
            {
              "internalType": "address",
              "name": "tokenIn",
              "type": "address"
            },
            {
              "internalType": "address",
              "name": "tokenOut",
              "type": "address"
            },
            {
              "internalType": "uint256",
              "name": "amountIn",
              "type": "uint256"
            },
            {
              "internalType": "uint256",
              "name": "amountOut",
              "type": "uint256"
            },
            {
              "internalType": "uint256",
              "name": "gasPrice",
              "type": "uint256"
            },
            {
              "internalType": "uint256",
              "name": "feeCharged",
              "type": "uint256"
            },
            {
              "internalType": "uint256",
              "name": "sourceChain",
              "type": "uint256"
            },
            {
              "internalType": "uint256",
              "name": "destChain",
              "type": "uint256"
            },
            {
              "internalType": "bool",
              "name": "isCrossChain",
              "type": "bool"
            }
          ],
          "internalType": "struct FlashLP.SwapDetail[]",
          "name": "",
          "type": "tuple[]"
        }
      ],
      "stateMutability": "view",
      "type": "function"
    },
    {
      "inputs": [
        {
          "internalType": "address",
          "name": "owner",
          "type": "address"
        },
        {
          "internalType": "address",
          "name": "operator",
          "type": "address"
        }
      ],
      "name": "isApprovedForAll",
      "outputs": [
        {
          "internalType": "bool",
          "name": "",
          "type": "bool"
        }
      ],
      "stateMutability": "view",
      "type": "function"
    },
    {
      "inputs": [],
      "name": "name",
      "outputs": [
        {
          "internalType": "string",
          "name": "",
          "type": "string"
        }
      ],
      "stateMutability": "view",
      "type": "function"
    },
    {
      "inputs": [],
      "name": "owner",
      "outputs": [
        {
          "internalType": "address",
          "name": "",
          "type": "address"
        }
      ],
      "stateMutability": "view",
      "type": "function"
    },
    {
      "inputs": [
        {
          "internalType": "uint256",
          "name": "tokenId",
          "type": "uint256"
        }
      ],
      "name": "ownerOf",
      "outputs": [
        {
          "internalType": "address",
          "name": "",
          "type": "address"
        }
      ],
      "stateMutability": "view",
      "type": "function"
    },
    {
      "inputs": [
        {
          "internalType": "address",
          "name": "",
          "type": "address"
        },
        {
          "internalType": "uint256",
          "name": "",
          "type": "uint256"
        }
      ],
      "name": "ownerPools",
      "outputs": [
        {
          "internalType": "uint256",
          "name": "",
          "type": "uint256"
        }
      ],
      "stateMutability": "view",
      "type": "function"
    },
    {
      "inputs": [],
      "name": "platformFeeBps",
      "outputs": [
        {
          "internalType": "uint256",
          "name": "",
          "type": "uint256"
        }
      ],
      "stateMutability": "view",
      "type": "function"
    },
    {
      "inputs": [
        {
          "internalType": "uint256",
          "name": "",
          "type": "uint256"
        },
        {
          "internalType": "uint256",
          "name": "",
          "type": "uint256"
        }
      ],
      "name": "poolRentals",
      "outputs": [
        {
          "internalType": "uint256",
          "name": "",
          "type": "uint256"
        }
      ],
      "stateMutability": "view",
      "type": "function"
    },
    {
      "inputs": [
        {
          "internalType": "uint256",
          "name": "",
          "type": "uint256"
        }
      ],
      "name": "pools",
      "outputs": [
        {
          "internalType": "address",
          "name": "owner",
          "type": "address"
        },
        {
          "internalType": "address",
          "name": "token0",
          "type": "address"
        },
        {
          "internalType": "address",
          "name": "token1",
          "type": "address"
        },
        {
          "internalType": "uint256",
          "name": "amount0",
          "type": "uint256"
        },
        {
          "internalType": "uint256",
          "name": "amount1",
          "type": "uint256"
        },
        {
          "internalType": "uint256",
          "name": "chainId",
          "type": "uint256"
        },
        {
          "internalType": "bool",
          "name": "exists",
          "type": "bool"
        },
        {
          "internalType": "uint256",
          "name": "totalSwaps",
          "type": "uint256"
        },
        {
          "internalType": "uint256",
          "name": "totalFeesCollected",
          "type": "uint256"
        }
      ],
      "stateMutability": "view",
      "type": "function"
    },
    {
      "inputs": [
        {
          "internalType": "uint256",
          "name": "chainId",
          "type": "uint256"
        }
      ],
      "name": "removeSupportedChain",
      "outputs": [],
      "stateMutability": "nonpayable",
      "type": "function"
    },
    {
      "inputs": [],
      "name": "renounceOwnership",
      "outputs": [],
      "stateMutability": "nonpayable",
      "type": "function"
    },
    {
      "inputs": [
        {
          "internalType": "uint256",
          "name": "poolId",
          "type": "uint256"
        },
        {
          "internalType": "uint256",
          "name": "duration",
          "type": "uint256"
        },
        {
          "internalType": "uint256",
          "name": "pricePerSecond",
          "type": "uint256"
        }
      ],
      "name": "rentPool",
      "outputs": [
        {
          "internalType": "uint256",
          "name": "rentalId",
          "type": "uint256"
        }
      ],
      "stateMutability": "payable",
      "type": "function"
    },
    {
      "inputs": [
        {
          "internalType": "uint256",
          "name": "",
          "type": "uint256"
        },
        {
          "internalType": "uint256",
          "name": "",
          "type": "uint256"
        }
      ],
      "name": "rentalSwaps",
      "outputs": [
        {
          "internalType": "uint256",
          "name": "",
          "type": "uint256"
        }
      ],
      "stateMutability": "view",
      "type": "function"
    },
    {
      "inputs": [
        {
          "internalType": "uint256",
          "name": "",
          "type": "uint256"
        }
      ],
      "name": "rentals",
      "outputs": [
        {
          "internalType": "uint256",
          "name": "poolId",
          "type": "uint256"
        },
        {
          "internalType": "address",
          "name": "renter",
          "type": "address"
        },
        {
          "internalType": "address",
          "name": "poolOwner",
          "type": "address"
        },
        {
          "internalType": "uint256",
          "name": "startTime",
          "type": "uint256"
        },
        {
          "internalType": "uint256",
          "name": "endTime",
          "type": "uint256"
        },
        {
          "internalType": "uint256",
          "name": "pricePerSecond",
          "type": "uint256"
        },
        {
          "internalType": "uint256",
          "name": "collateral",
          "type": "uint256"
        },
        {
          "internalType": "bool",
          "name": "isActive",
          "type": "bool"
        },
        {
          "internalType": "uint256",
          "name": "swapCount",
          "type": "uint256"
        },
        {
          "internalType": "uint256",
          "name": "totalVolume",
          "type": "uint256"
        },
        {
          "internalType": "uint256",
          "name": "totalFeesEarned",
          "type": "uint256"
        },
        {
          "internalType": "uint256",
          "name": "totalGasCost",
          "type": "uint256"
        }
      ],
      "stateMutability": "view",
      "type": "function"
    },
    {
      "inputs": [
        {
          "internalType": "address",
          "name": "",
          "type": "address"
        },
        {
          "internalType": "uint256",
          "name": "",
          "type": "uint256"
        }
      ],
      "name": "renterRentals",
      "outputs": [
        {
          "internalType": "uint256",
          "name": "",
          "type": "uint256"
        }
      ],
      "stateMutability": "view",
      "type": "function"
    },
    {
      "inputs": [
        {
          "internalType": "address",
          "name": "from",
          "type": "address"
        },
        {
          "internalType": "address",
          "name": "to",
          "type": "address"
        },
        {
          "internalType": "uint256",
          "name": "tokenId",
          "type": "uint256"
        }
      ],
      "name": "safeTransferFrom",
      "outputs": [],
      "stateMutability": "nonpayable",
      "type": "function"
    },
    {
      "inputs": [
        {
          "internalType": "address",
          "name": "from",
          "type": "address"
        },
        {
          "internalType": "address",
          "name": "to",
          "type": "address"
        },
        {
          "internalType": "uint256",
          "name": "tokenId",
          "type": "uint256"
        },
        {
          "internalType": "bytes",
          "name": "data",
          "type": "bytes"
        }
      ],
      "name": "safeTransferFrom",
      "outputs": [],
      "stateMutability": "nonpayable",
      "type": "function"
    },
    {
      "inputs": [
        {
          "internalType": "address",
          "name": "operator",
          "type": "address"
        },
        {
          "internalType": "bool",
          "name": "approved",
          "type": "bool"
        }
      ],
      "name": "setApprovalForAll",
      "outputs": [],
      "stateMutability": "nonpayable",
      "type": "function"
    },
    {
      "inputs": [
        {
          "internalType": "uint256",
          "name": "newFee",
          "type": "uint256"
        }
      ],
      "name": "setPlatformFee",
      "outputs": [],
      "stateMutability": "nonpayable",
      "type": "function"
    },
    {
      "inputs": [
        {
          "internalType": "uint256",
          "name": "",
          "type": "uint256"
        }
      ],
      "name": "supportedChains",
      "outputs": [
        {
          "internalType": "bool",
          "name": "",
          "type": "bool"
        }
      ],
      "stateMutability": "view",
      "type": "function"
    },
    {
      "inputs": [
        {
          "internalType": "bytes4",
          "name": "interfaceId",
          "type": "bytes4"
        }
      ],
      "name": "supportsInterface",
      "outputs": [
        {
          "internalType": "bool",
          "name": "",
          "type": "bool"
        }
      ],
      "stateMutability": "view",
      "type": "function"
    },
    {
      "inputs": [
        {
          "internalType": "uint256",
          "name": "",
          "type": "uint256"
        }
      ],
      "name": "swaps",
      "outputs": [
        {
          "internalType": "uint256",
          "name": "rentalId",
          "type": "uint256"
        },
        {
          "internalType": "uint256",
          "name": "timestamp",
          "type": "uint256"
        },
        {
          "internalType": "address",
          "name": "swapper",
          "type": "address"
        },
        {
          "internalType": "address",
          "name": "tokenIn",
          "type": "address"
        },
        {
          "internalType": "address",
          "name": "tokenOut",
          "type": "address"
        },
        {
          "internalType": "uint256",
          "name": "amountIn",
          "type": "uint256"
        },
        {
          "internalType": "uint256",
          "name": "amountOut",
          "type": "uint256"
        },
        {
          "internalType": "uint256",
          "name": "gasPrice",
          "type": "uint256"
        },
        {
          "internalType": "uint256",
          "name": "feeCharged",
          "type": "uint256"
        },
        {
          "internalType": "uint256",
          "name": "sourceChain",
          "type": "uint256"
        },
        {
          "internalType": "uint256",
          "name": "destChain",
          "type": "uint256"
        },
        {
          "internalType": "bool",
          "name": "isCrossChain",
          "type": "bool"
        }
      ],
      "stateMutability": "view",
      "type": "function"
    },
    {
      "inputs": [],
      "name": "symbol",
      "outputs": [
        {
          "internalType": "string",
          "name": "",
          "type": "string"
        }
      ],
      "stateMutability": "view",
      "type": "function"
    },
    {
      "inputs": [
        {
          "internalType": "uint256",
          "name": "tokenId",
          "type": "uint256"
        }
      ],
      "name": "tokenURI",
      "outputs": [
        {
          "internalType": "string",
          "name": "",
          "type": "string"
        }
      ],
      "stateMutability": "view",
      "type": "function"
    },
    {
      "inputs": [
        {
          "internalType": "address",
          "name": "from",
          "type": "address"
        },
        {
          "internalType": "address",
          "name": "to",
          "type": "address"
        },
        {
          "internalType": "uint256",
          "name": "tokenId",
          "type": "uint256"
        }
      ],
      "name": "transferFrom",
      "outputs": [],
      "stateMutability": "nonpayable",
      "type": "function"
    },
    {
      "inputs": [
        {
          "internalType": "address",
          "name": "newOwner",
          "type": "address"
        }
      ],
      "name": "transferOwnership",
      "outputs": [],
      "stateMutability": "nonpayable",
      "type": "function"
    }
  ],
  "bytecode": "0x608060405260c8600b5534801561001557600080fd5b50336040518060400160405280601881526020017f466c617368204c502052656e74616c20506f736974696f6e0000000000000000815250604051806040016040528060048152602001632326282960e11b8152508160009081610079919061024c565b506001610086828261024c565b5050506001600160a01b0381166100b757604051631e4fbdf760e01b81526000600482015260240160405180910390fd5b6100c08161015b565b5060016007819055600c6020527fbae47782c61057c37fd889fe06144a2ed9ff0809c076f0f53b22edd10a6d39a8805460ff1990811683179091557f17bbfc0674498f3551a3f46751af695362e55730db8aed759adb93ad423390a0805482168317905562aa37dc6000527fb1bdde0d1396477f89fcc3fac34dd60d9cb8a4b8c2df21efb03c0f72ee30223a8054909116909117905561030a565b600680546001600160a01b038381166001600160a01b0319831681179093556040519116919082907f8be0079c531659141344cd1fd0a4f28419497f9722a3daafe3b4186f6b6457e090600090a35050565b634e487b7160e01b600052604160045260246000fd5b600181811c908216806101d757607f821691505b6020821081036101f757634e487b7160e01b600052602260045260246000fd5b50919050565b601f82111561024757806000526020600020601f840160051c810160208510156102245750805b601f840160051c820191505b818110156102445760008155600101610230565b50505b505050565b81516001600160401b03811115610265576102656101ad565b6102798161027384546101c3565b846101fd565b6020601f8211600181146102ad57600083156102955750848201515b600019600385901b1c1916600184901b178455610244565b600084815260208120601f198516915b828110156102dd57878501518255602094850194600190920191016102bd565b50848210156102fb5786840151600019600387901b60f8161c191681555b50505050600190811b01905550565b61464c806103196000396000f3fe6080604052600436106102bb5760003560e01c8063715018a61161016e578063af94a1d1116100cb578063d6e4183a1161007f578063e985e9c511610064578063e985e9c51461099f578063f09c5829146109f5578063f2fde38b14610b0457600080fd5b8063d6e4183a1461095f578063dacbfc5a1461097f57600080fd5b8063b8764c39116100b0578063b8764c39146108f2578063b88d4fde1461091f578063c87b56dd1461093f57600080fd5b8063af94a1d1146107c6578063b5809d1b146108d257600080fd5b80638e5d94701161012257806397491d6f1161010757806397491d6f1461069d578063a22cb465146106bd578063ac4afa38146106dd57600080fd5b80638e5d94701461066857806395d89b411461068857600080fd5b806387188a001161015357806387188a00146105fd578063884db0631461061d5780638da5cb5b1461063d57600080fd5b8063715018a6146105bb57806386c56502146105d057600080fd5b806322dcd13e1161021c578063548d496f116101d05780636352211e116101b55780636352211e1461054e578063652bd29e1461056e57806370a082311461059b57600080fd5b8063548d496f146104fe57806360c352131461052e57600080fd5b806325f63f7e1161020157806325f63f7e1461049e578063375972d7146104be57806342842e0e146104de57600080fd5b806322dcd13e1461046857806323b872dd1461047e57600080fd5b80630b78a2c81161027357806312e8e2c31161025857806312e8e2c3146103ec57806317088b341461040c5780631acd65921461043b57600080fd5b80630b78a2c81461039f5780630c4844aa146103cc57600080fd5b8063081812fc116102a4578063081812fc14610317578063095ea7b31461035c5780630b24095c1461037e57600080fd5b806301ffc9a7146102c057806306fdde03146102f5575b600080fd5b3480156102cc57600080fd5b506102e06102db366004613bfc565b610b24565b60405190151581526020015b60405180910390f35b34801561030157600080fd5b5061030a610c09565b6040516102ec9190613c87565b34801561032357600080fd5b50610337610332366004613c9a565b610c9b565b60405173ffffffffffffffffffffffffffffffffffffffff90911681526020016102ec565b34801561036857600080fd5b5061037c610377366004613cdc565b610cd1565b005b61039161038c366004613d06565b610ce0565b6040519081526020016102ec565b3480156103ab57600080fd5b506103bf6103ba366004613c9a565b6110a2565b6040516102ec9190613d32565b3480156103d857600080fd5b5061037c6103e7366004613c9a565b6112bd565b3480156103f857600080fd5b5061037c610407366004613c9a565b6112fb565b34801561041857600080fd5b5061042c610427366004613c9a565b611374565b6040516102ec93929190613f1c565b34801561044757600080fd5b5061045b610456366004613c9a565b611583565b6040516102ec9190613f75565b34801561047457600080fd5b50610391600b5481565b34801561048a57600080fd5b5061037c610499366004613fb8565b611728565b3480156104aa57600080fd5b506103916104b9366004613ff5565b611819565b3480156104ca57600080fd5b506103916104d9366004613cdc565b61184a565b3480156104ea57600080fd5b5061037c6104f9366004613fb8565b611866565b34801561050a57600080fd5b506102e0610519366004613c9a565b600c6020526000908152604090205460ff1681565b34801561053a57600080fd5b50610391610549366004614017565b611886565b34801561055a57600080fd5b50610337610569366004613c9a565b611f74565b34801561057a57600080fd5b5061058e610589366004613c9a565b611f7f565b6040516102ec9190614052565b3480156105a757600080fd5b506103916105b6366004614061565b6120cb565b3480156105c757600080fd5b5061037c612146565b3480156105dc57600080fd5b506105f06105eb366004613c9a565b61215a565b6040516102ec919061407c565b34801561060957600080fd5b5061037c610618366004613c9a565b6121bc565b34801561062957600080fd5b506103916106383660046140b4565b6121fd565b34801561064957600080fd5b5060065473ffffffffffffffffffffffffffffffffffffffff16610337565b34801561067457600080fd5b506105f0610683366004614061565b612735565b34801561069457600080fd5b5061030a6127ac565b3480156106a957600080fd5b5061037c6106b8366004613c9a565b6127bb565b3480156106c957600080fd5b5061037c6106d83660046140ef565b612b63565b3480156106e957600080fd5b506107626106f8366004613c9a565b600d6020526000908152604090208054600182015460028301546003840154600485015460058601546006870154600788015460089098015473ffffffffffffffffffffffffffffffffffffffff97881698968816979095169593949293919260ff909116919089565b6040805173ffffffffffffffffffffffffffffffffffffffff9a8b168152988a1660208a015296909816958701959095526060860193909352608085019190915260a0840152151560c083015260e0820152610100810191909152610120016102ec565b3480156107d257600080fd5b5061085e6107e1366004613c9a565b600e60205260009081526040902080546001820154600283015460038401546004850154600586015460068701546007880154600889015460098a0154600a8b0154600b909b0154999a73ffffffffffffffffffffffffffffffffffffffff998a169a9890991698969795969495939460ff90931693919290918c565b604080519c8d5273ffffffffffffffffffffffffffffffffffffffff9b8c1660208e015299909a16988b019890985260608a0196909652608089019490945260a088019290925260c0870152151560e0860152610100850152610120840152610140830152610160820152610180016102ec565b3480156108de57600080fd5b506105f06108ed366004614061565b612b6e565b3480156108fe57600080fd5b5061091261090d366004613c9a565b612be5565b6040516102ec9190614126565b34801561092b57600080fd5b5061037c61093a36600461425d565b612d13565b34801561094b57600080fd5b5061030a61095a366004613c9a565b612d2b565b34801561096b57600080fd5b5061039161097a366004613cdc565b612d9f565b34801561098b57600080fd5b5061039161099a366004613ff5565b612dbb565b3480156109ab57600080fd5b506102e06109ba366004614340565b73ffffffffffffffffffffffffffffffffffffffff918216600090815260056020908152604080832093909416825291909152205460ff1690565b348015610a0157600080fd5b50610a8d610a10366004613c9a565b600f60205260009081526040902080546001820154600283015460038401546004850154600586015460068701546007880154600889015460098a0154600a8b0154600b909b0154999a989973ffffffffffffffffffffffffffffffffffffffff9889169997891698909616969495939492939192909160ff168c565b604080519c8d5260208d019b909b5273ffffffffffffffffffffffffffffffffffffffff998a169a8c019a909a5296881660608b015296909416608089015260a088019290925260c087015260e08601526101008501526101208401919091526101408301521515610160820152610180016102ec565b348015610b1057600080fd5b5061037c610b1f366004614061565b612dd7565b60007fffffffff0000000000000000000000000000000000000000000000000000000082167f80ac58cd000000000000000000000000000000000000000000000000000000001480610bb757507fffffffff0000000000000000000000000000000000000000000000000000000082167f5b5e139f00000000000000000000000000000000000000000000000000000000145b80610c0357507f01ffc9a7000000000000000000000000000000000000000000000000000000007fffffffff000000000000000000000000000000000000000000000000000000008316145b92915050565b606060008054610c1890614373565b80601f0160208091040260200160405190810160405280929190818152602001828054610c4490614373565b8015610c915780601f10610c6657610100808354040283529160200191610c91565b820191906000526020600020905b815481529060010190602001808311610c7457829003601f168201915b5050505050905090565b6000610ca682612e38565b5060008281526004602052604090205473ffffffffffffffffffffffffffffffffffffffff16610c03565b610cdc828233612e97565b5050565b6000610cea612ea4565b6000848152600d60205260409020600681015460ff16610d6b576040517f08c379a000000000000000000000000000000000000000000000000000000000815260206004820152601360248201527f506f6f6c20646f6573206e6f742065786973740000000000000000000000000060448201526064015b60405180910390fd5b610e108410158015610d80575062278d008411155b610de6576040517f08c379a000000000000000000000000000000000000000000000000000000000815260206004820152601060248201527f496e76616c6964206475726174696f6e000000000000000000000000000000006044820152606401610d62565b6000610df284866143f5565b90506000612710610e0583612ee06143f5565b610e0f919061440c565b905080341015610e7b576040517f08c379a000000000000000000000000000000000000000000000000000000000815260206004820152601760248201527f496e73756666696369656e7420636f6c6c61746572616c0000000000000000006044820152606401610d62565b600860008154610e8a90614447565b91829055509350610e9b3385612ee7565b6040805161018081018252888152336020820152845473ffffffffffffffffffffffffffffffffffffffff169181019190915242606082018190526080820190610ee690899061447f565b81526020808201889052346040808401829052600160608086018290526000608080880182905260a080890183905260c0808a0184905260e0998a018490528e8452600e89528684208b5181558b8a015181880180547fffffffffffffffffffffffff000000000000000000000000000000000000000090811673ffffffffffffffffffffffffffffffffffffffff938416179091558d8a015160028401805490921692169190911790558b8601516003820155928b01516004840155908a015160058301558901516006820155968801516007880180547fffffffffffffffffffffffffffffffffffffffffffffffffffffffffffffff001691151591909117905561010088015160088801556101208801516009880155610140880151600a88015561016090970151600b90960195909555338087526011855282872080548084018255908852858820018b90558d875260128552828720805492830181558752958490200189905580518b81529283018a9052820152899187917fa3a156a6833fd6e69757347f5cfc2540ba6cb63d26af4ac5de269c8ac81c8255910160405180910390a450505061109b6001600755565b9392505050565b600081815260136020526040812080546060929067ffffffffffffffff8111156110ce576110ce6141df565b6040519080825280602002602001820160405280156111a757816020015b6111946040518061018001604052806000815260200160008152602001600073ffffffffffffffffffffffffffffffffffffffff168152602001600073ffffffffffffffffffffffffffffffffffffffff168152602001600073ffffffffffffffffffffffffffffffffffffffff1681526020016000815260200160008152602001600081526020016000815260200160008152602001600081526020016000151581525090565b8152602001906001900390816110ec5790505b50905060005b82548110156112b557600f60008483815481106111cc576111cc614492565b60009182526020808320909101548352828101939093526040918201902081516101808101835281548152600182015493810193909352600281015473ffffffffffffffffffffffffffffffffffffffff9081169284019290925260038101548216606084015260048101549091166080830152600581015460a0830152600681015460c0830152600781015460e083015260088101546101008301526009810154610120830152600a810154610140830152600b015460ff16151561016082015282518390839081106112a2576112a2614492565b60209081029190910101526001016111ad565b509392505050565b6112c5612f01565b6000908152600c6020526040902080547fffffffffffffffffffffffffffffffffffffffffffffffffffffffffffffff00169055565b611303612f01565b6103e881111561136f576040517f08c379a000000000000000000000000000000000000000000000000000000000815260206004820152600c60248201527f46656520746f6f206869676800000000000000000000000000000000000000006044820152606401610d62565b600b55565b61140660405180610180016040528060008152602001600073ffffffffffffffffffffffffffffffffffffffff168152602001600073ffffffffffffffffffffffffffffffffffffffff16815260200160008152602001600081526020016000815260200160008152602001600015158152602001600081526020016000815260200160008152602001600081525090565b61143f6040518060c001604052806000815260200160008152602001600081526020016000815260200160008152602001600081525090565b6000838152600e6020908152604080832081516101808101835281548152600182015473ffffffffffffffffffffffffffffffffffffffff90811694820194909452600282015490931683830152600381015460608401526004808201546080850152600582015460a0850152600682015460c0850152600782015460ff16151560e085015260088201546101008501526009820154610120850152600a820154610140850152600b9091015461016084015290517f1acd65920000000000000000000000000000000000000000000000000000000081529081018690529093503090631acd65929060240160c060405180830381865afa158015611548573d6000803e3d6000fd5b505050506040513d601f19601f8201168201806040525081019061156c91906144c1565b600094855260136020526040909420549294915050565b6115bc6040518060c001604052806000815260200160008152602001600081526020016000815260200160008152602001600081525090565b6000828152600e60205260408120600481015490919042116115ec5760038201546115e7904261453f565b611600565b81600301548260040154611600919061453f565b9050600082600501548261161491906143f5565b90506000612710600b5485600a015461162d91906143f5565b611637919061440c565b90506000606485600a0154601461164e91906143f5565b611658919061440c565b90506000818387600a015461166d919061453f565b611677919061453f565b90506000848211611689576000611693565b611693858361453f565b9050600087600b015482116116a95760006116b8565b600b8801546116b8908361453f565b905060008087116116ca5760006116e1565b866116d7836127106143f5565b6116e1919061440c565b90506040518060c001604052808a600a015481526020018881526020018a600b01548152602001848152602001838152602001828152509950505050505050505050919050565b73ffffffffffffffffffffffffffffffffffffffff8216611778576040517f64a0ae9200000000000000000000000000000000000000000000000000000000815260006004820152602401610d62565b6000611785838333612f54565b90508373ffffffffffffffffffffffffffffffffffffffff168173ffffffffffffffffffffffffffffffffffffffff1614611813576040517f64283d7b00000000000000000000000000000000000000000000000000000000815273ffffffffffffffffffffffffffffffffffffffff80861660048301526024820184905282166044820152606401610d62565b50505050565b6012602052816000526040600020818154811061183557600080fd5b90600052602060002001600091509150505481565b6011602052816000526040600020818154811061183557600080fd5b61188183838360405180602001604052806000815250612d13565b505050565b6000611890612ea4565b6000858152600e60205260409020600781015460ff1661190c576040517f08c379a000000000000000000000000000000000000000000000000000000000815260206004820152601160248201527f52656e74616c206e6f74206163746976650000000000000000000000000000006044820152606401610d62565b80600401544210611979576040517f08c379a000000000000000000000000000000000000000000000000000000000815260206004820152600e60248201527f52656e74616c20657870697265640000000000000000000000000000000000006044820152606401610d62565b80546000908152600d60205260409020600181015473ffffffffffffffffffffffffffffffffffffffff878116911614806119d05750600281015473ffffffffffffffffffffffffffffffffffffffff8781169116145b611a36576040517f08c379a000000000000000000000000000000000000000000000000000000000815260206004820152600d60248201527f496e76616c696420746f6b656e000000000000000000000000000000000000006044820152606401610d62565b60005a6040517f23b872dd0000000000000000000000000000000000000000000000000000000081523360048201523060248201526044810188905290915073ffffffffffffffffffffffffffffffffffffffff8816906323b872dd906064016020604051808303816000875af1158015611ab5573d6000803e3d6000fd5b505050506040513d601f19601f82011682018060405250810190611ad99190614552565b50611ae6828888886130d1565b600183015490945060009073ffffffffffffffffffffffffffffffffffffffff898116911614611b3057600183015473ffffffffffffffffffffffffffffffffffffffff16611b4c565b600283015473ffffffffffffffffffffffffffffffffffffffff165b6040517fa9059cbb0000000000000000000000000000000000000000000000000000000081523360048201526024810187905290915073ffffffffffffffffffffffffffffffffffffffff82169063a9059cbb906044016020604051808303816000875af1158015611bc2573d6000803e3d6000fd5b505050506040513d601f19601f82011682018060405250810190611be69190614552565b5060005a611bf4908461453f565b905060006103e8611c068a60036143f5565b611c10919061440c565b90506000856005015446141590506000600a60008154611c2f90614447565b91905081905590506040518061018001604052808e81526020014281526020013373ffffffffffffffffffffffffffffffffffffffff1681526020018d73ffffffffffffffffffffffffffffffffffffffff1681526020018673ffffffffffffffffffffffffffffffffffffffff1681526020018c81526020018a81526020013a815260200184815260200146815260200188600501548152602001831515815250600f6000838152602001908152602001600020600082015181600001556020820151816001015560408201518160020160006101000a81548173ffffffffffffffffffffffffffffffffffffffff021916908373ffffffffffffffffffffffffffffffffffffffff16021790555060608201518160030160006101000a81548173ffffffffffffffffffffffffffffffffffffffff021916908373ffffffffffffffffffffffffffffffffffffffff16021790555060808201518160040160006101000a81548173ffffffffffffffffffffffffffffffffffffffff021916908373ffffffffffffffffffffffffffffffffffffffff16021790555060a0820151816005015560c0820151816006015560e082015181600701556101008201518160080155610120820151816009015561014082015181600a015561016082015181600b0160006101000a81548160ff021916908315150217905550905050601360008e8152602001908152602001600020819080600181540180825580915050600190039060005260206000200160009091909190915055876008016000815480929190611e7f90614447565b919050555088886009016000828254611e98919061447f565b925050819055508288600a016000828254611eb3919061447f565b90915550611ec390503a856143f5565b88600b016000828254611ed6919061447f565b9091555050600787018054906000611eed83614447565b919050555082876008016000828254611f06919061447f565b9091555050604080518c8152602081018b9052908101849052821515606082015233908e9083907f128b072517ecee8bc75d52d5c11f321a45a5b090a33c403771dfba061caec4a19060800160405180910390a45050505050505050611f6c6001600755565b949350505050565b6000610c0382612e38565b61201160405180610180016040528060008152602001600073ffffffffffffffffffffffffffffffffffffffff168152602001600073ffffffffffffffffffffffffffffffffffffffff16815260200160008152602001600081526020016000815260200160008152602001600015158152602001600081526020016000815260200160008152602001600081525090565b506000908152600e602090815260409182902082516101808101845281548152600182015473ffffffffffffffffffffffffffffffffffffffff908116938201939093526002820154909216928201929092526003820154606082015260048201546080820152600582015460a0820152600682015460c0820152600782015460ff16151560e082015260088201546101008201526009820154610120820152600a820154610140820152600b9091015461016082015290565b600073ffffffffffffffffffffffffffffffffffffffff821661211d576040517f89c62b6400000000000000000000000000000000000000000000000000000000815260006004820152602401610d62565b5073ffffffffffffffffffffffffffffffffffffffff1660009081526003602052604090205490565b61214e612f01565b61215860006132b9565b565b6000818152601260209081526040918290208054835181840281018401909452808452606093928301828280156121b057602002820191906000526020600020905b81548152602001906001019080831161219c575b50505050509050919050565b6121c4612f01565b6000908152600c6020526040902080547fffffffffffffffffffffffffffffffffffffffffffffffffffffffffffffff00166001179055565b6000612207612ea4565b73ffffffffffffffffffffffffffffffffffffffff851615801590612241575073ffffffffffffffffffffffffffffffffffffffff841615155b6122a7576040517f08c379a000000000000000000000000000000000000000000000000000000000815260206004820152600e60248201527f496e76616c696420746f6b656e730000000000000000000000000000000000006044820152606401610d62565b6000831180156122b75750600082115b61231d576040517f08c379a000000000000000000000000000000000000000000000000000000000815260206004820152600f60248201527f496e76616c696420616d6f756e747300000000000000000000000000000000006044820152606401610d62565b6040517f23b872dd0000000000000000000000000000000000000000000000000000000081523360048201523060248201526044810184905273ffffffffffffffffffffffffffffffffffffffff8616906323b872dd906064016020604051808303816000875af1158015612396573d6000803e3d6000fd5b505050506040513d601f19601f820116820180604052508101906123ba9190614552565b506040517f23b872dd0000000000000000000000000000000000000000000000000000000081523360048201523060248201526044810183905273ffffffffffffffffffffffffffffffffffffffff8516906323b872dd906064016020604051808303816000875af1158015612434573d6000803e3d6000fd5b505050506040513d601f19601f820116820180604052508101906124589190614552565b5060096000815461246890614447565b91905081905590506040518061012001604052803373ffffffffffffffffffffffffffffffffffffffff1681526020018673ffffffffffffffffffffffffffffffffffffffff1681526020018573ffffffffffffffffffffffffffffffffffffffff168152602001848152602001838152602001468152602001600115158152602001600081526020016000815250600d600083815260200190815260200160002060008201518160000160006101000a81548173ffffffffffffffffffffffffffffffffffffffff021916908373ffffffffffffffffffffffffffffffffffffffff16021790555060208201518160010160006101000a81548173ffffffffffffffffffffffffffffffffffffffff021916908373ffffffffffffffffffffffffffffffffffffffff16021790555060408201518160020160006101000a81548173ffffffffffffffffffffffffffffffffffffffff021916908373ffffffffffffffffffffffffffffffffffffffff160217905550606082015181600301556080820151816004015560a0820151816005015560c08201518160060160006101000a81548160ff02191690831515021790555060e082015181600701556101008201518160080155905050601060003373ffffffffffffffffffffffffffffffffffffffff1673ffffffffffffffffffffffffffffffffffffffff1681526020019081526020016000208190806001815401808255809150506001900390600052602060002001600090919091909150553373ffffffffffffffffffffffffffffffffffffffff16817ffaa88043e191d038f4479816a3808d1597f728d52b2dd3c21467aa1b45322fdb878787874660405161272395949392919073ffffffffffffffffffffffffffffffffffffffff958616815293909416602084015260408301919091526060820152608081019190915260a00190565b60405180910390a3611f6c6001600755565b73ffffffffffffffffffffffffffffffffffffffff81166000908152601160209081526040918290208054835181840281018401909452808452606093928301828280156121b0576020028201919060005260206000209081548152602001906001019080831161219c5750505050509050919050565b606060018054610c1890614373565b6127c3612ea4565b6000818152600e60205260409020600781015460ff1661283f576040517f08c379a000000000000000000000000000000000000000000000000000000000815260206004820152600a60248201527f4e6f7420616374697665000000000000000000000000000000000000000000006044820152606401610d62565b80600401544210158061286b5750600181015473ffffffffffffffffffffffffffffffffffffffff1633145b8061288f5750600281015473ffffffffffffffffffffffffffffffffffffffff1633145b6128f5576040517f08c379a000000000000000000000000000000000000000000000000000000000815260206004820152600e60248201527f4e6f7420617574686f72697a65640000000000000000000000000000000000006044820152606401610d62565b6007810180547fffffffffffffffffffffffffffffffffffffffffffffffffffffffffffffff001690556004810154600090421161294157600382015461293c904261453f565b612955565b81600301548260040154612955919061453f565b9050600082600501548261296991906143f5565b90506000612710600b5485600a015461298291906143f5565b61298c919061440c565b90506000606485600a015460146129a391906143f5565b6129ad919061440c565b90506000818387600a01546129c2919061453f565b6129cc919061453f565b905060008482116129de5760006129e8565b6129e8858361453f565b90508415612a4257600287015473ffffffffffffffffffffffffffffffffffffffff166108fc612a18858861447f565b6040518115909202916000818181858888f19350505050158015612a40573d6000803e3d6000fd5b505b8315612a915760065460405173ffffffffffffffffffffffffffffffffffffffff9091169085156108fc029086906000818181858888f19350505050158015612a8f573d6000803e3d6000fd5b505b600082868960060154612aa4919061453f565b612aae919061447f565b90508015612b0157600188015460405173ffffffffffffffffffffffffffffffffffffffff9091169082156108fc029083906000818181858888f19350505050158015612aff573d6000803e3d6000fd5b505b6008880154600a890154604080519283526020830191909152810183905289907fec0cb25dc54733b3ec7bb57f3b2b874dd55d8be28577d00e10274526bf8c288a9060600160405180910390a25050505050505050612b606001600755565b50565b610cdc338383613330565b73ffffffffffffffffffffffffffffffffffffffff81166000908152601060209081526040918290208054835181840281018401909452808452606093928301828280156121b0576020028201919060005260206000209081548152602001906001019080831161219c5750505050509050919050565b612c78604051806101200160405280600073ffffffffffffffffffffffffffffffffffffffff168152602001600073ffffffffffffffffffffffffffffffffffffffff168152602001600073ffffffffffffffffffffffffffffffffffffffff16815260200160008152602001600081526020016000815260200160001515815260200160008152602001600081525090565b506000908152600d6020908152604091829020825161012081018452815473ffffffffffffffffffffffffffffffffffffffff908116825260018301548116938201939093526002820154909216928201929092526003820154606082015260048201546080820152600582015460a0820152600682015460ff16151560c0820152600782015460e082015260089091015461010082015290565b612d1e848484611728565b611813338585858561342d565b6060612d3682612e38565b506000612d4e60408051602081019091526000815290565b90506000815111612d6e576040518060200160405280600081525061109b565b80612d7884613626565b604051602001612d8992919061456f565b6040516020818303038152906040529392505050565b6010602052816000526040600020818154811061183557600080fd5b6013602052816000526040600020818154811061183557600080fd5b612ddf612f01565b73ffffffffffffffffffffffffffffffffffffffff8116612e2f576040517f1e4fbdf700000000000000000000000000000000000000000000000000000000815260006004820152602401610d62565b612b60816132b9565b60008181526002602052604081205473ffffffffffffffffffffffffffffffffffffffff1680610c03576040517f7e27328900000000000000000000000000000000000000000000000000000000815260048101849052602401610d62565b61188183838360016136e4565b600260075403612ee0576040517f3ee5aeb500000000000000000000000000000000000000000000000000000000815260040160405180910390fd5b6002600755565b610cdc8282604051806020016040528060008152506138af565b60065473ffffffffffffffffffffffffffffffffffffffff163314612158576040517f118cdaa7000000000000000000000000000000000000000000000000000000008152336004820152602401610d62565b60008281526002602052604081205473ffffffffffffffffffffffffffffffffffffffff90811690831615612f8e57612f8e8184866138c7565b73ffffffffffffffffffffffffffffffffffffffff81161561300457612fb86000856000806136e4565b73ffffffffffffffffffffffffffffffffffffffff8116600090815260036020526040902080547fffffffffffffffffffffffffffffffffffffffffffffffffffffffffffffffff0190555b73ffffffffffffffffffffffffffffffffffffffff85161561304d5773ffffffffffffffffffffffffffffffffffffffff85166000908152600360205260409020805460010190555b60008481526002602052604080822080547fffffffffffffffffffffffff00000000000000000000000000000000000000001673ffffffffffffffffffffffffffffffffffffffff89811691821790925591518793918516917fddf252ad1be2c89b69c2b068fc378daa952ba7f163c4a11628f55a4df523b3ef91a4949350505050565b6000806103e86130e3856103e56143f5565b6130ed919061440c565b600187015490915073ffffffffffffffffffffffffffffffffffffffff908116908616036131e557808660030154613125919061447f565b81876004015461313591906143f5565b61313f919061440c565b9150828210156131ab576040517f08c379a000000000000000000000000000000000000000000000000000000000815260206004820152601160248201527f536c6970706167652065786365656465640000000000000000000000000000006044820152606401610d62565b838660030160008282546131bf919061447f565b92505081905550818660040160008282546131da919061453f565b909155506132b09050565b8086600401546131f5919061447f565b81876003015461320591906143f5565b61320f919061440c565b91508282101561327b576040517f08c379a000000000000000000000000000000000000000000000000000000000815260206004820152601160248201527f536c6970706167652065786365656465640000000000000000000000000000006044820152606401610d62565b8386600401600082825461328f919061447f565b92505081905550818660030160008282546132aa919061453f565b90915550505b50949350505050565b6006805473ffffffffffffffffffffffffffffffffffffffff8381167fffffffffffffffffffffffff0000000000000000000000000000000000000000831681179093556040519116919082907f8be0079c531659141344cd1fd0a4f28419497f9722a3daafe3b4186f6b6457e090600090a35050565b73ffffffffffffffffffffffffffffffffffffffff8216613395576040517f5b08ba1800000000000000000000000000000000000000000000000000000000815273ffffffffffffffffffffffffffffffffffffffff83166004820152602401610d62565b73ffffffffffffffffffffffffffffffffffffffff83811660008181526005602090815260408083209487168084529482529182902080547fffffffffffffffffffffffffffffffffffffffffffffffffffffffffffffff001686151590811790915591519182527f17307eab39ab6107e8899845ad3d59bd9653f200f220920489ca2b5937696c31910160405180910390a3505050565b73ffffffffffffffffffffffffffffffffffffffff83163b1561361f576040517f150b7a0200000000000000000000000000000000000000000000000000000000815273ffffffffffffffffffffffffffffffffffffffff84169063150b7a02906134a290889088908790879060040161459e565b6020604051808303816000875af19250505080156134fb575060408051601f3d9081017fffffffffffffffffffffffffffffffffffffffffffffffffffffffffffffffe01682019092526134f8918101906145f9565b60015b61358a573d808015613529576040519150601f19603f3d011682016040523d82523d6000602084013e61352e565b606091505b508051600003613582576040517f64a0ae9200000000000000000000000000000000000000000000000000000000815273ffffffffffffffffffffffffffffffffffffffff85166004820152602401610d62565b805160208201fd5b7fffffffff0000000000000000000000000000000000000000000000000000000081167f150b7a02000000000000000000000000000000000000000000000000000000001461361d576040517f64a0ae9200000000000000000000000000000000000000000000000000000000815273ffffffffffffffffffffffffffffffffffffffff85166004820152602401610d62565b505b5050505050565b6060600061363383613977565b600101905060008167ffffffffffffffff811115613653576136536141df565b6040519080825280601f01601f19166020018201604052801561367d576020820181803683370190505b5090508181016020015b7fffffffffffffffffffffffffffffffffffffffffffffffffffffffffffffffff017f3031323334353637383961626364656600000000000000000000000000000000600a86061a8153600a850494508461368757509392505050565b8080613705575073ffffffffffffffffffffffffffffffffffffffff821615155b1561385a57600061371584612e38565b905073ffffffffffffffffffffffffffffffffffffffff83161580159061376857508273ffffffffffffffffffffffffffffffffffffffff168173ffffffffffffffffffffffffffffffffffffffff1614155b80156137a7575073ffffffffffffffffffffffffffffffffffffffff80821660009081526005602090815260408083209387168352929052205460ff16155b156137f6576040517fa9fbf51f00000000000000000000000000000000000000000000000000000000815273ffffffffffffffffffffffffffffffffffffffff84166004820152602401610d62565b811561385857838573ffffffffffffffffffffffffffffffffffffffff168273ffffffffffffffffffffffffffffffffffffffff167f8c5be1e5ebec7d5bd14f71427d1e84f3dd0314c0f7b2291e5b200ac8c7c3b92560405160405180910390a45b505b5050600090815260046020526040902080547fffffffffffffffffffffffff00000000000000000000000000000000000000001673ffffffffffffffffffffffffffffffffffffffff92909216919091179055565b6138b98383613a59565b61188133600085858561342d565b6138d2838383613b0a565b6118815773ffffffffffffffffffffffffffffffffffffffff8316613926576040517f7e27328900000000000000000000000000000000000000000000000000000000815260048101829052602401610d62565b6040517f177e802f00000000000000000000000000000000000000000000000000000000815273ffffffffffffffffffffffffffffffffffffffff8316600482015260248101829052604401610d62565b6000807a184f03e93ff9f4daa797ed6e38ed64bf6a1f01000000000000000083106139c0577a184f03e93ff9f4daa797ed6e38ed64bf6a1f010000000000000000830492506040015b6d04ee2d6d415b85acef810000000083106139ec576d04ee2d6d415b85acef8100000000830492506020015b662386f26fc100008310613a0a57662386f26fc10000830492506010015b6305f5e1008310613a22576305f5e100830492506008015b6127108310613a3657612710830492506004015b60648310613a48576064830492506002015b600a8310610c035760010192915050565b73ffffffffffffffffffffffffffffffffffffffff8216613aa9576040517f64a0ae9200000000000000000000000000000000000000000000000000000000815260006004820152602401610d62565b6000613ab783836000612f54565b905073ffffffffffffffffffffffffffffffffffffffff811615611881576040517f73c6ac6e00000000000000000000000000000000000000000000000000000000815260006004820152602401610d62565b600073ffffffffffffffffffffffffffffffffffffffff831615801590611f6c57508273ffffffffffffffffffffffffffffffffffffffff168473ffffffffffffffffffffffffffffffffffffffff161480613b98575073ffffffffffffffffffffffffffffffffffffffff80851660009081526005602090815260408083209387168352929052205460ff165b80611f6c57505060009081526004602052604090205473ffffffffffffffffffffffffffffffffffffffff908116911614919050565b7fffffffff0000000000000000000000000000000000000000000000000000000081168114612b6057600080fd5b600060208284031215613c0e57600080fd5b813561109b81613bce565b60005b83811015613c34578181015183820152602001613c1c565b50506000910152565b60008151808452613c55816020860160208601613c19565b601f017fffffffffffffffffffffffffffffffffffffffffffffffffffffffffffffffe0169290920160200192915050565b60208152600061109b6020830184613c3d565b600060208284031215613cac57600080fd5b5035919050565b803573ffffffffffffffffffffffffffffffffffffffff81168114613cd757600080fd5b919050565b60008060408385031215613cef57600080fd5b613cf883613cb3565b946020939093013593505050565b600080600060608486031215613d1b57600080fd5b505081359360208301359350604090920135919050565b602080825282518282018190526000918401906040840190835b81811015613e4d57835180518452602081015160208501526040810151613d8b604086018273ffffffffffffffffffffffffffffffffffffffff169052565b506060810151613db3606086018273ffffffffffffffffffffffffffffffffffffffff169052565b506080810151613ddb608086018273ffffffffffffffffffffffffffffffffffffffff169052565b5060a081015160a085015260c081015160c085015260e081015160e08501526101008101516101008501526101208101516101208501526101408101516101408501526101608101519050613e3561016085018215159052565b50602093909301926101809290920191600101613d4c565b509095945050505050565b805182526020810151613e83602084018273ffffffffffffffffffffffffffffffffffffffff169052565b506040810151613eab604084018273ffffffffffffffffffffffffffffffffffffffff169052565b50606081015160608301526080810151608083015260a081015160a083015260c081015160c083015260e0810151613ee760e084018215159052565b506101008101516101008301526101208101516101208301526101408101516101408301526101608101516101608301525050565b6102608101613f2b8286613e58565b835161018083015260208401516101a083015260408401516101c083015260608401516101e0830152608084015161020083015260a0909301516102208201526102400152919050565b60c08101610c038284805182526020810151602083015260408101516040830152606081015160608301526080810151608083015260a081015160a08301525050565b600080600060608486031215613fcd57600080fd5b613fd684613cb3565b9250613fe460208501613cb3565b929592945050506040919091013590565b6000806040838503121561400857600080fd5b50508035926020909101359150565b6000806000806080858703121561402d57600080fd5b8435935061403d60208601613cb3565b93969395505050506040820135916060013590565b6101808101610c038284613e58565b60006020828403121561407357600080fd5b61109b82613cb3565b602080825282518282018190526000918401906040840190835b81811015613e4d578351835260209384019390920191600101614096565b600080600080608085870312156140ca57600080fd5b6140d385613cb3565b935061403d60208601613cb3565b8015158114612b6057600080fd5b6000806040838503121561410257600080fd5b61410b83613cb3565b9150602083013561411b816140e1565b809150509250929050565b60006101208201905073ffffffffffffffffffffffffffffffffffffffff835116825273ffffffffffffffffffffffffffffffffffffffff60208401511660208301526040830151614190604084018273ffffffffffffffffffffffffffffffffffffffff169052565b50606083015160608301526080830151608083015260a083015160a083015260c08301516141c260c084018215159052565b5060e083015160e083015261010083015161010083015292915050565b7f4e487b7100000000000000000000000000000000000000000000000000000000600052604160045260246000fd5b604051601f82017fffffffffffffffffffffffffffffffffffffffffffffffffffffffffffffffe016810167ffffffffffffffff81118282101715614255576142556141df565b604052919050565b6000806000806080858703121561427357600080fd5b61427c85613cb3565b935061428a60208601613cb3565b925060408501359150606085013567ffffffffffffffff8111156142ad57600080fd5b8501601f810187136142be57600080fd5b803567ffffffffffffffff8111156142d8576142d86141df565b61430960207fffffffffffffffffffffffffffffffffffffffffffffffffffffffffffffffe0601f8401160161420e565b81815288602083850101111561431e57600080fd5b8160208401602083013760006020838301015280935050505092959194509250565b6000806040838503121561435357600080fd5b61435c83613cb3565b915061436a60208401613cb3565b90509250929050565b600181811c9082168061438757607f821691505b6020821081036143c0577f4e487b7100000000000000000000000000000000000000000000000000000000600052602260045260246000fd5b50919050565b7f4e487b7100000000000000000000000000000000000000000000000000000000600052601160045260246000fd5b8082028115828204841417610c0357610c036143c6565b600082614442577f4e487b7100000000000000000000000000000000000000000000000000000000600052601260045260246000fd5b500490565b60007fffffffffffffffffffffffffffffffffffffffffffffffffffffffffffffffff8203614478576144786143c6565b5060010190565b80820180821115610c0357610c036143c6565b7f4e487b7100000000000000000000000000000000000000000000000000000000600052603260045260246000fd5b600060c08284031280156144d457600080fd5b5060405160009060c0810167ffffffffffffffff811182821017156144fb576144fb6141df565b604090815284518252602080860151908301528481015190820152606080850151908201526080808501519082015260a09384015193810193909352509092915050565b81810381811115610c0357610c036143c6565b60006020828403121561456457600080fd5b815161109b816140e1565b60008351614581818460208801613c19565b835190830190614595818360208801613c19565b01949350505050565b73ffffffffffffffffffffffffffffffffffffffff8516815273ffffffffffffffffffffffffffffffffffffffff841660208201528260408201526080606082015260006145ef6080830184613c3d565b9695505050505050565b60006020828403121561460b57600080fd5b815161109b81613bce56fea2646970667358221220a881e2327d1b797624f272d13b92a455805a0964146befae94cee7f9e29f12de64736f6c634300081a0033",
  "linkReferences": {},
  "deployedLinkReferences": {}
}