{
  "_format": "hh-sol-artifact-1",
  "contractName": "YellowChannelManager",
  "sourceName": "contracts/src/YellowChannelManager.sol",
  "abi": [
    {
      "inputs": [],
      "stateMutability": "nonpayable",
      "type": "constructor"
    },
    {
      "inputs": [],
      "name": "ChannelExpired",
      "type": "error"
    },
    {
      "inputs": [],
      "name": "ChannelNotActive",
      "type": "error"
    },
    {
      "inputs": [],
      "name": "ChannelNotFound",
      "type": "error"
    },
    {
      "inputs": [],
      "name": "DisputeNotResolved",
      "type": "error"
    },
    {
      "inputs": [],
      "name": "ECDSAInvalidSignature",
      "type": "error"
    },
    {
      "inputs": [
        {
          "internalType": "uint256",
          "name": "length",
          "type": "uint256"
        }
      ],
      "name": "ECDSAInvalidSignatureLength",
      "type": "error"
    },
    {
      "inputs": [
        {
          "internalType": "bytes32",
          "name": "s",
          "type": "bytes32"
        }
      ],
      "name": "ECDSAInvalidSignatureS",
      "type": "error"
    },
    {
      "inputs": [],
      "name": "InsufficientDeposit",
      "type": "error"
    },
    {
      "inputs": [],
      "name": "InvalidBalances",
      "type": "error"
    },
    {
      "inputs": [],
      "name": "InvalidDuration",
      "type": "error"
    },
    {
      "inputs": [],
      "name": "InvalidNonce",
      "type": "error"
    },
    {
      "inputs": [],
      "name": "InvalidSignature",
      "type": "error"
    },
    {
      "inputs": [
        {
          "internalType": "address",
          "name": "owner",
          "type": "address"
        }
      ],
      "name": "OwnableInvalidOwner",
      "type": "error"
    },
    {
      "inputs": [
        {
          "internalType": "address",
          "name": "account",
          "type": "address"
        }
      ],
      "name": "OwnableUnauthorizedAccount",
      "type": "error"
    },
    {
      "inputs": [],
      "name": "ReentrancyGuardReentrantCall",
      "type": "error"
    },
    {
      "inputs": [],
      "name": "Unauthorized",
      "type": "error"
    },
    {
      "inputs": [],
      "name": "ZeroAddress",
      "type": "error"
    },
    {
      "anonymous": false,
      "inputs": [
        {
          "indexed": true,
          "internalType": "bytes32",
          "name": "channelId",
          "type": "bytes32"
        },
        {
          "indexed": false,
          "internalType": "uint256",
          "name": "finalBalance1",
          "type": "uint256"
        },
        {
          "indexed": false,
          "internalType": "uint256",
          "name": "finalBalance2",
          "type": "uint256"
        }
      ],
      "name": "ChannelClosed",
      "type": "event"
    },
    {
      "anonymous": false,
      "inputs": [
        {
          "indexed": true,
          "internalType": "bytes32",
          "name": "channelId",
          "type": "bytes32"
        },
        {
          "indexed": true,
          "internalType": "address",
          "name": "participant1",
          "type": "address"
        },
        {
          "indexed": true,
          "internalType": "address",
          "name": "participant2",
          "type": "address"
        },
        {
          "indexed": false,
          "internalType": "uint256",
          "name": "deposit",
          "type": "uint256"
        },
        {
          "indexed": false,
          "internalType": "uint256",
          "name": "expiresAt",
          "type": "uint256"
        }
      ],
      "name": "ChannelOpened",
      "type": "event"
    },
    {
      "anonymous": false,
      "inputs": [
        {
          "indexed": true,
          "internalType": "bytes32",
          "name": "channelId",
          "type": "bytes32"
        },
        {
          "indexed": false,
          "internalType": "uint256",
          "name": "balance1",
          "type": "uint256"
        },
        {
          "indexed": false,
          "internalType": "uint256",
          "name": "balance2",
          "type": "uint256"
        },
        {
          "indexed": false,
          "internalType": "uint256",
          "name": "nonce",
          "type": "uint256"
        }
      ],
      "name": "ChannelUpdated",
      "type": "event"
    },
    {
      "anonymous": false,
      "inputs": [
        {
          "indexed": true,
          "internalType": "bytes32",
          "name": "channelId",
          "type": "bytes32"
        },
        {
          "indexed": false,
          "internalType": "bool",
          "name": "success",
          "type": "bool"
        }
      ],
      "name": "DisputeResolved",
      "type": "event"
    },
    {
      "anonymous": false,
      "inputs": [
        {
          "indexed": true,
          "internalType": "bytes32",
          "name": "channelId",
          "type": "bytes32"
        },
        {
          "indexed": true,
          "internalType": "address",
          "name": "initiator",
          "type": "address"
        },
        {
          "indexed": false,
          "internalType": "uint256",
          "name": "timeout",
          "type": "uint256"
        }
      ],
      "name": "DisputeStarted",
      "type": "event"
    },
    {
      "anonymous": false,
      "inputs": [
        {
          "indexed": true,
          "internalType": "address",
          "name": "previousOwner",
          "type": "address"
        },
        {
          "indexed": true,
          "internalType": "address",
          "name": "newOwner",
          "type": "address"
        }
      ],
      "name": "OwnershipTransferred",
      "type": "event"
    },
    {
      "inputs": [],
      "name": "DISPUTE_TIMEOUT",
      "outputs": [
        {
          "internalType": "uint256",
          "name": "",
          "type": "uint256"
        }
      ],
      "stateMutability": "view",
      "type": "function"
    },
    {
      "inputs": [
        {
          "internalType": "bytes32",
          "name": "",
          "type": "bytes32"
        }
      ],
      "name": "channels",
      "outputs": [
        {
          "internalType": "address",
          "name": "participant1",
          "type": "address"
        },
        {
          "internalType": "address",
          "name": "participant2",
          "type": "address"
        },
        {
          "internalType": "uint256",
          "name": "balance1",
          "type": "uint256"
        },
        {
          "internalType": "uint256",
          "name": "balance2",
          "type": "uint256"
        },
        {
          "internalType": "uint256",
          "name": "totalDeposit",
          "type": "uint256"
        },
        {
          "internalType": "uint256",
          "name": "nonce",
          "type": "uint256"
        },
        {
          "internalType": "uint256",
          "name": "timeout",
          "type": "uint256"
        },
        {
          "internalType": "uint256",
          "name": "expiresAt",
          "type": "uint256"
        },
        {
          "internalType": "bool",
          "name": "isActive",
          "type": "bool"
        },
        {
          "internalType": "bool",
          "name": "isDisputed",
          "type": "bool"
        }
      ],
      "stateMutability": "view",
      "type": "function"
    },
    {
      "inputs": [
        {
          "internalType": "bytes32",
          "name": "channelId",
          "type": "bytes32"
        },
        {
          "internalType": "uint256",
          "name": "finalBalance1",
          "type": "uint256"
        },
        {
          "internalType": "uint256",
          "name": "finalBalance2",
          "type": "uint256"
        },
        {
          "internalType": "uint256",
          "name": "nonce",
          "type": "uint256"
        },
        {
          "internalType": "bytes",
          "name": "signature1",
          "type": "bytes"
        },
        {
          "internalType": "bytes",
          "name": "signature2",
          "type": "bytes"
        }
      ],
      "name": "closeChannel",
      "outputs": [],
      "stateMutability": "nonpayable",
      "type": "function"
    },
    {
      "inputs": [
        {
          "internalType": "uint256",
          "name": "rentalId",
          "type": "uint256"
        },
        {
          "internalType": "address",
          "name": "renter",
          "type": "address"
        },
        {
          "internalType": "address",
          "name": "owner",
          "type": "address"
        },
        {
          "internalType": "uint256",
          "name": "duration",
          "type": "uint256"
        }
      ],
      "name": "createRentalChannel",
      "outputs": [
        {
          "internalType": "bytes32",
          "name": "channelId",
          "type": "bytes32"
        }
      ],
      "stateMutability": "payable",
      "type": "function"
    },
    {
      "inputs": [
        {
          "internalType": "bytes32",
          "name": "channelId",
          "type": "bytes32"
        }
      ],
      "name": "getChannel",
      "outputs": [
        {
          "components": [
            {
              "internalType": "address",
              "name": "participant1",
              "type": "address"
            },
            {
              "internalType": "address",
              "name": "participant2",
              "type": "address"
            },
            {
              "internalType": "uint256",
              "name": "balance1",
              "type": "uint256"
            },
            {
              "internalType": "uint256",
              "name": "balance2",
              "type": "uint256"
            },
            {
              "internalType": "uint256",
              "name": "totalDeposit",
              "type": "uint256"
            },
            {
              "internalType": "uint256",
              "name": "nonce",
              "type": "uint256"
            },
            {
              "internalType": "uint256",
              "name": "timeout",
              "type": "uint256"
            },
            {
              "internalType": "uint256",
              "name": "expiresAt",
              "type": "uint256"
            },
            {
              "internalType": "bool",
              "name": "isActive",
              "type": "bool"
            },
            {
              "internalType": "bool",
              "name": "isDisputed",
              "type": "bool"
            }
          ],
          "internalType": "struct YellowChannelManager.Channel",
          "name": "",
          "type": "tuple"
        }
      ],
      "stateMutability": "view",
      "type": "function"
    },
    {
      "inputs": [
        {
          "internalType": "address",
          "name": "participant",
          "type": "address"
        }
      ],
      "name": "getParticipantChannels",
      "outputs": [
        {
          "internalType": "bytes32[]",
          "name": "",
          "type": "bytes32[]"
        }
      ],
      "stateMutability": "view",
      "type": "function"
    },
    {
      "inputs": [
        {
          "internalType": "uint256",
          "name": "rentalId",
          "type": "uint256"
        }
      ],
      "name": "getRentalChannel",
      "outputs": [
        {
          "internalType": "bytes32",
          "name": "",
          "type": "bytes32"
        }
      ],
      "stateMutability": "view",
      "type": "function"
    },
    {
      "inputs": [
        {
          "internalType": "address",
          "name": "participant",
          "type": "address"
        }
      ],
      "name": "hasActiveChannel",
      "outputs": [
        {
          "internalType": "bool",
          "name": "",
          "type": "bool"
        }
      ],
      "stateMutability": "view",
      "type": "function"
    },
    {
      "inputs": [
        {
          "internalType": "address",
          "name": "participant2",
          "type": "address"
        },
        {
          "internalType": "uint256",
          "name": "duration",
          "type": "uint256"
        }
      ],
      "name": "openChannel",
      "outputs": [
        {
          "internalType": "bytes32",
          "name": "channelId",
          "type": "bytes32"
        }
      ],
      "stateMutability": "payable",
      "type": "function"
    },
    {
      "inputs": [],
      "name": "owner",
      "outputs": [
        {
          "internalType": "address",
          "name": "",
          "type": "address"
        }
      ],
      "stateMutability": "view",
      "type": "function"
    },
    {
      "inputs": [],
      "name": "renounceOwnership",
      "outputs": [],
      "stateMutability": "nonpayable",
      "type": "function"
    },
    {
      "inputs": [
        {
          "internalType": "uint256",
          "name": "",
          "type": "uint256"
        }
      ],
      "name": "rentalChannels",
      "outputs": [
        {
          "internalType": "bytes32",
          "name": "",
          "type": "bytes32"
        }
      ],
      "stateMutability": "view",
      "type": "function"
    },
    {
      "inputs": [
        {
          "internalType": "bytes32",
          "name": "channelId",
          "type": "bytes32"
        },
        {
          "internalType": "uint256",
          "name": "finalBalance1",
          "type": "uint256"
        },
        {
          "internalType": "uint256",
          "name": "finalBalance2",
          "type": "uint256"
        }
      ],
      "name": "resolveDispute",
      "outputs": [],
      "stateMutability": "nonpayable",
      "type": "function"
    },
    {
      "inputs": [
        {
          "internalType": "bytes32",
          "name": "channelId",
          "type": "bytes32"
        }
      ],
      "name": "startDispute",
      "outputs": [],
      "stateMutability": "nonpayable",
      "type": "function"
    },
    {
      "inputs": [],
      "name": "totalChannels",
      "outputs": [
        {
          "internalType": "uint256",
          "name": "",
          "type": "uint256"
        }
      ],
      "stateMutability": "view",
      "type": "function"
    },
    {
      "inputs": [
        {
          "internalType": "address",
          "name": "newOwner",
          "type": "address"
        }
      ],
      "name": "transferOwnership",
      "outputs": [],
      "stateMutability": "nonpayable",
      "type": "function"
    },
    {
      "inputs": [
        {
          "internalType": "bytes32",
          "name": "channelId",
          "type": "bytes32"
        },
        {
          "internalType": "uint256",
          "name": "newBalance1",
          "type": "uint256"
        },
        {
          "internalType": "uint256",
          "name": "newBalance2",
          "type": "uint256"
        },
        {
          "internalType": "uint256",
          "name": "nonce",
          "type": "uint256"
        },
        {
          "internalType": "bytes",
          "name": "signature1",
          "type": "bytes"
        },
        {
          "internalType": "bytes",
          "name": "signature2",
          "type": "bytes"
        }
      ],
      "name": "updateChannel",
      "outputs": [],
      "stateMutability": "nonpayable",
      "type": "function"
    }
  ],
  "bytecode": "0x6080604052348015600f57600080fd5b503380603557604051631e4fbdf760e01b81526000600482015260240160405180910390fd5b603c816045565b50600180556095565b600080546001600160a01b038381166001600160a01b0319831681178455604051919092169283917f8be0079c531659141344cd1fd0a4f28419497f9722a3daafe3b4186f6b6457e09190a35050565b612252806100a46000396000f3fe60806040526004361061010e5760003560e01c8063715018a6116100a55780638da5cb5b11610074578063b6de0d3611610059578063b6de0d36146103db578063b75f1861146103fb578063f2fde38b1461041b57600080fd5b80638da5cb5b14610393578063b531982a146103c857600080fd5b8063715018a6146102495780637734a9f61461025e5780637a7ebd7b14610274578063831c2b821461036657600080fd5b80634f27f47a116100e15780634f27f47a146101925780635000c8e9146101c257806355ee2bed146101ef5780635eb5fad71461021c57600080fd5b80631dd8099f1461011357806324f453d114610135578063283ffea01461015b578063486265c61461017b575b600080fd5b34801561011f57600080fd5b5061013361012e366004611eb3565b61043b565b005b610148610143366004611f77565b61073f565b6040519081526020015b60405180910390f35b34801561016757600080fd5b50610133610176366004611eb3565b610ab6565b34801561018757600080fd5b506101486201518081565b34801561019e57600080fd5b506101b26101ad366004611fa1565b610f00565b6040519015158152602001610152565b3480156101ce57600080fd5b506101486101dd366004611fc3565b60009081526004602052604090205490565b3480156101fb57600080fd5b5061020f61020a366004611fa1565b610fd5565b6040516101529190611fdc565b34801561022857600080fd5b50610148610237366004611fc3565b60046020526000908152604090205481565b34801561025557600080fd5b5061013361104e565b34801561026a57600080fd5b5061014860055481565b34801561028057600080fd5b5061030061028f366004611fc3565b600260208190526000918252604090912080546001820154928201546003830154600484015460058501546006860154600787015460089097015473ffffffffffffffffffffffffffffffffffffffff96871698909616969495939492939192909160ff808216916101009004168a565b6040805173ffffffffffffffffffffffffffffffffffffffff9b8c1681529a90991660208b0152978901969096526060880194909452608087019290925260a086015260c085015260e08401521515610100830152151561012082015261014001610152565b34801561037257600080fd5b50610386610381366004611fc3565b611062565b604051610152919061201f565b34801561039f57600080fd5b5060005460405173ffffffffffffffffffffffffffffffffffffffff9091168152602001610152565b6101486103d63660046120d4565b61118e565b3480156103e757600080fd5b506101336103f6366004611fc3565b6115ee565b34801561040757600080fd5b50610133610416366004612118565b61172f565b34801561042757600080fd5b50610133610436366004611fa1565b611a82565b610443611ae6565b6000888152600260205260409020600881015460ff1661048f576040517fac85312300000000000000000000000000000000000000000000000000000000815260040160405180910390fd5b806005015486116104cc576040517f756688fe00000000000000000000000000000000000000000000000000000000815260040160405180910390fd5b806007015442111561050a576040517fbf550cee00000000000000000000000000000000000000000000000000000000815260040160405180910390fd5b6004810154610519888a612173565b14610550576040517f0c0d854c00000000000000000000000000000000000000000000000000000000815260040160405180910390fd5b60408051602081018b905290810189905260608101889052608081018790526000906105c39060a0015b604051602081830303815290604052805190602001207f19457468657265756d205369676e6564204d6573736167653a0a3332000000006000908152601c91909152603c902090565b9050600061060987878080601f0160208091040260200160405190810160405280939291908181526020018383808284376000920191909152508693925050611b299050565b9050600061064f86868080601f0160208091040260200160405190810160405280939291908181526020018383808284376000920191909152508793925050611b299050565b845490915073ffffffffffffffffffffffffffffffffffffffff83811691161415806106985750600184015473ffffffffffffffffffffffffffffffffffffffff828116911614155b156106cf576040517f8baa579f00000000000000000000000000000000000000000000000000000000815260040160405180910390fd5b600284018b9055600384018a905560058401899055604080518c8152602081018c90529081018a90528c907f2256ced482ba490e0a4ad72acf529ab4dd2481b104c6aa1b47a67d1a2e19c166906060015b60405180910390a25050505061073560018055565b5050505050505050565b6000610749611ae6565b34600003610783576040517f0e1eddda00000000000000000000000000000000000000000000000000000000815260040160405180910390fd5b73ffffffffffffffffffffffffffffffffffffffff83166107d0576040517fd92e233d00000000000000000000000000000000000000000000000000000000815260040160405180910390fd5b8160000361080a576040517f7616640100000000000000000000000000000000000000000000000000000000815260040160405180910390fd5b6005546040517fffffffffffffffffffffffffffffffffffffffff00000000000000000000000033606090811b8216602084015286901b16603482015242604882015260688101919091526088016040516020818303038152906040528051906020012090506040518061014001604052803373ffffffffffffffffffffffffffffffffffffffff1681526020018473ffffffffffffffffffffffffffffffffffffffff16815260200134815260200160008152602001348152602001600081526020016000815260200183426108e19190612173565b815260016020808301829052600060409384018190528581526002808352848220865181547fffffffffffffffffffffffff000000000000000000000000000000000000000090811673ffffffffffffffffffffffffffffffffffffffff928316178355888601518388018054909216908316179055878701519282019290925560608701516003808301919091556080880151600483015560a088015160058084019190915560c0890151600684015560e08901516007840155610100808a015160089094018054610120909b01517fffffffffffffffffffffffffffffffffffffffffffffffffffffffffffff0000909b169415157fffffffffffffffffffffffffffffffffffffffffffffffffffffffffffff00ff16949094179915150298909817909155338352835284822080548086018255908352838320018790558816815292832080549283018155835282200183905581549190610a4583612186565b909155505073ffffffffffffffffffffffffffffffffffffffff831633827f506f81b7a67b45bfbc6167fd087b3dd9b65b4531a2380ec406aab5b57ac6215234610a8f8742612173565b6040805192835260208301919091520160405180910390a4610ab060018055565b92915050565b610abe611ae6565b6000888152600260205260409020600881015460ff16610b0a576040517fac85312300000000000000000000000000000000000000000000000000000000815260040160405180910390fd5b6008810154610100900460ff1615610b4e576040517f8a7dc9ee00000000000000000000000000000000000000000000000000000000815260040160405180910390fd5b6004810154610b5d888a612173565b14610b94576040517f0c0d854c00000000000000000000000000000000000000000000000000000000815260040160405180910390fd5b60408051602081018b905290810189905260608101889052608081018790527f636c6f736500000000000000000000000000000000000000000000000000000060a0820152600090610be89060a50161057a565b90506000610c2e87878080601f0160208091040260200160405190810160405280939291908181526020018383808284376000920191909152508693925050611b299050565b90506000610c7486868080601f0160208091040260200160405190810160405280939291908181526020018383808284376000920191909152508793925050611b299050565b845490915073ffffffffffffffffffffffffffffffffffffffff8381169116141580610cbd5750600184015473ffffffffffffffffffffffffffffffffffffffff828116911614155b15610cf4576040517f8baa579f00000000000000000000000000000000000000000000000000000000815260040160405180910390fd5b6008840180547fffffffffffffffffffffffffffffffffffffffffffffffffffffffffffffff001690558a15610df457835460405160009173ffffffffffffffffffffffffffffffffffffffff16908d908381818185875af1925050503d8060008114610d7d576040519150601f19603f3d011682016040523d82523d6000602084013e610d82565b606091505b5050905080610df2576040517f08c379a000000000000000000000000000000000000000000000000000000000815260206004820152601f60248201527f5472616e7366657220746f207061727469636970616e7431206661696c65640060448201526064015b60405180910390fd5b505b8915610ec857600184015460405160009173ffffffffffffffffffffffffffffffffffffffff16908c908381818185875af1925050503d8060008114610e56576040519150601f19603f3d011682016040523d82523d6000602084013e610e5b565b606091505b5050905080610ec6576040517f08c379a000000000000000000000000000000000000000000000000000000000815260206004820152601f60248201527f5472616e7366657220746f207061727469636970616e7432206661696c6564006044820152606401610de9565b505b604080518c8152602081018c90528d917faee37d46ae7638649199a415cd6d49cc67df520cf2c80210daac017e0df3ab989101610720565b73ffffffffffffffffffffffffffffffffffffffff8116600090815260036020908152604080832080548251818502810185019093528083528493830182828015610f6a57602002820191906000526020600020905b815481526020019060010190808311610f56575b5050505050905060005b8151811015610fcb5760026000838381518110610f9357610f936121be565b60209081029190910181015182528101919091526040016000206008015460ff1615610fc3575060019392505050565b600101610f74565b5060009392505050565b73ffffffffffffffffffffffffffffffffffffffff811660009081526003602090815260409182902080548351818402810184019094528084526060939283018282801561104257602002820191906000526020600020905b81548152602001906001019080831161102e575b50505050509050919050565b611056611b53565b6110606000611ba6565b565b6110e8604051806101400160405280600073ffffffffffffffffffffffffffffffffffffffff168152602001600073ffffffffffffffffffffffffffffffffffffffff1681526020016000815260200160008152602001600081526020016000815260200160008152602001600081526020016000151581526020016000151581525090565b50600090815260026020818152604092839020835161014081018552815473ffffffffffffffffffffffffffffffffffffffff90811682526001830154169281019290925291820154928101929092526003810154606083015260048101546080830152600581015460a0830152600681015460c0830152600781015460e08301526008015460ff80821615156101008085019190915290910416151561012082015290565b60008034116111f9576040517f08c379a000000000000000000000000000000000000000000000000000000000815260206004820152601460248201527f496e73756666696369656e74206465706f7369740000000000000000000000006044820152606401610de9565b73ffffffffffffffffffffffffffffffffffffffff841615801590611233575073ffffffffffffffffffffffffffffffffffffffff831615155b611299576040517f08c379a000000000000000000000000000000000000000000000000000000000815260206004820152601160248201527f496e76616c6964206164647265737365730000000000000000000000000000006044820152606401610de9565b6000858152600460205260409020541561130f576040517f08c379a000000000000000000000000000000000000000000000000000000000815260206004820152601560248201527f52656e74616c206368616e6e656c2065786973747300000000000000000000006044820152606401610de9565b6040517f72656e74616c00000000000000000000000000000000000000000000000000006020820152602681018690527fffffffffffffffffffffffffffffffffffffffff000000000000000000000000606086811b8216604684015285901b16605a82015242606e820152608e016040516020818303038152906040528051906020012090506040518061014001604052808573ffffffffffffffffffffffffffffffffffffffff1681526020018473ffffffffffffffffffffffffffffffffffffffff16815260200134815260200160008152602001348152602001600081526020016000815260200183426114079190612173565b815260016020808301829052600060409384018190528581526002808352848220865181547fffffffffffffffffffffffff000000000000000000000000000000000000000090811673ffffffffffffffffffffffffffffffffffffffff92831617835588860151838801805490921690831617905587870151928201929092556060870151600380830191909155608088015160048084019190915560a089015160058085019190915560c08a0151600685015560e08a01516007850155610100808b015160089095018054610120909c01517fffffffffffffffffffffffffffffffffffffffffffffffffffffffffffff0000909c169515157fffffffffffffffffffffffffffffffffffffffffffffffffffffffffffff00ff16959095179a151502999099179092558b831684528452858320805480870182559084528484200188905590891682528482208054948501815582528282209093018690558981529190529081208390558154919061158183612186565b909155505073ffffffffffffffffffffffffffffffffffffffff808416908516827f506f81b7a67b45bfbc6167fd087b3dd9b65b4531a2380ec406aab5b57ac62152346115ce8742612173565b6040805192835260208301919091520160405180910390a4949350505050565b6000818152600260205260409020600881015460ff1661163a576040517fac85312300000000000000000000000000000000000000000000000000000000815260040160405180910390fd5b805473ffffffffffffffffffffffffffffffffffffffff16331480159061167b5750600181015473ffffffffffffffffffffffffffffffffffffffff163314155b156116b2576040517f82b4290000000000000000000000000000000000000000000000000000000000815260040160405180910390fd5b6008810180547fffffffffffffffffffffffffffffffffffffffffffffffffffffffffffff00ff166101001790556116ed6201518042612173565b60068201819055604051908152339083907f4a23680165005d530007f6f31e6bc086d13a3cf975d5f87a314e806cec5fd7eb9060200160405180910390a35050565b611737611b53565b60008381526002602052604090206008810154610100900460ff16611788576040517f1e07dd9400000000000000000000000000000000000000000000000000000000815260040160405180910390fd5b80600601544210156117f6576040517f08c379a000000000000000000000000000000000000000000000000000000000815260206004820152601360248201527f54696d656f7574206e6f742072656163686564000000000000000000000000006044820152606401610de9565b60048101546118058385612173565b1461183c576040517f0c0d854c00000000000000000000000000000000000000000000000000000000815260040160405180910390fd5b6008810180547fffffffffffffffffffffffffffffffffffffffffffffffffffffffffffff0000169055821561193757805460405160009173ffffffffffffffffffffffffffffffffffffffff169085908381818185875af1925050503d80600081146118c5576040519150601f19603f3d011682016040523d82523d6000602084013e6118ca565b606091505b5050905080611935576040517f08c379a000000000000000000000000000000000000000000000000000000000815260206004820152601f60248201527f5472616e7366657220746f207061727469636970616e7431206661696c6564006044820152606401610de9565b505b8115611a0b57600181015460405160009173ffffffffffffffffffffffffffffffffffffffff169084908381818185875af1925050503d8060008114611999576040519150601f19603f3d011682016040523d82523d6000602084013e61199e565b606091505b5050905080611a09576040517f08c379a000000000000000000000000000000000000000000000000000000000815260206004820152601f60248201527f5472616e7366657220746f207061727469636970616e7432206661696c6564006044820152606401610de9565b505b6040516001815284907f6309d9f2499864a4f9d4ddb22f2b493afde8c215a1cd2e178647596cffe2efa49060200160405180910390a2604080518481526020810184905285917faee37d46ae7638649199a415cd6d49cc67df520cf2c80210daac017e0df3ab98910160405180910390a250505050565b611a8a611b53565b73ffffffffffffffffffffffffffffffffffffffff8116611ada576040517f1e4fbdf700000000000000000000000000000000000000000000000000000000815260006004820152602401610de9565b611ae381611ba6565b50565b600260015403611b22576040517f3ee5aeb500000000000000000000000000000000000000000000000000000000815260040160405180910390fd5b6002600155565b600080600080611b398686611c1b565b925092509250611b498282611c68565b5090949350505050565b60005473ffffffffffffffffffffffffffffffffffffffff163314611060576040517f118cdaa7000000000000000000000000000000000000000000000000000000008152336004820152602401610de9565b6000805473ffffffffffffffffffffffffffffffffffffffff8381167fffffffffffffffffffffffff0000000000000000000000000000000000000000831681178455604051919092169283917f8be0079c531659141344cd1fd0a4f28419497f9722a3daafe3b4186f6b6457e09190a35050565b60008060008351604103611c555760208401516040850151606086015160001a611c4788828585611d70565b955095509550505050611c61565b50508151600091506002905b9250925092565b6000826003811115611c7c57611c7c6121ed565b03611c85575050565b6001826003811115611c9957611c996121ed565b03611cd0576040517ff645eedf00000000000000000000000000000000000000000000000000000000815260040160405180910390fd5b6002826003811115611ce457611ce46121ed565b03611d1e576040517ffce698f700000000000000000000000000000000000000000000000000000000815260048101829052602401610de9565b6003826003811115611d3257611d326121ed565b03611d6c576040517fd78bce0c00000000000000000000000000000000000000000000000000000000815260048101829052602401610de9565b5050565b600080807f7fffffffffffffffffffffffffffffff5d576e7357a4501ddfe92f46681b20a0841115611dab5750600091506003905082611e60565b604080516000808252602082018084528a905260ff891692820192909252606081018790526080810186905260019060a0016020604051602081039080840390855afa158015611dff573d6000803e3d6000fd5b50506040517fffffffffffffffffffffffffffffffffffffffffffffffffffffffffffffffe0015191505073ffffffffffffffffffffffffffffffffffffffff8116611e5657506000925060019150829050611e60565b9250600091508190505b9450945094915050565b60008083601f840112611e7c57600080fd5b50813567ffffffffffffffff811115611e9457600080fd5b602083019150836020828501011115611eac57600080fd5b9250929050565b60008060008060008060008060c0898b031215611ecf57600080fd5b88359750602089013596506040890135955060608901359450608089013567ffffffffffffffff811115611f0257600080fd5b611f0e8b828c01611e6a565b90955093505060a089013567ffffffffffffffff811115611f2e57600080fd5b611f3a8b828c01611e6a565b999c989b5096995094979396929594505050565b803573ffffffffffffffffffffffffffffffffffffffff81168114611f7257600080fd5b919050565b60008060408385031215611f8a57600080fd5b611f9383611f4e565b946020939093013593505050565b600060208284031215611fb357600080fd5b611fbc82611f4e565b9392505050565b600060208284031215611fd557600080fd5b5035919050565b602080825282518282018190526000918401906040840190835b81811015612014578351835260209384019390920191600101611ff6565b509095945050505050565b815173ffffffffffffffffffffffffffffffffffffffff16815261014081016020830151612065602084018273ffffffffffffffffffffffffffffffffffffffff169052565b5060408301516040830152606083015160608301526080830151608083015260a083015160a083015260c083015160c083015260e083015160e08301526101008301516120b761010084018215159052565b506101208301516120cd61012084018215159052565b5092915050565b600080600080608085870312156120ea57600080fd5b843593506120fa60208601611f4e565b925061210860408601611f4e565b9396929550929360600135925050565b60008060006060848603121561212d57600080fd5b505081359360208301359350604090920135919050565b7f4e487b7100000000000000000000000000000000000000000000000000000000600052601160045260246000fd5b80820180821115610ab057610ab0612144565b60007fffffffffffffffffffffffffffffffffffffffffffffffffffffffffffffffff82036121b7576121b7612144565b5060010190565b7f4e487b7100000000000000000000000000000000000000000000000000000000600052603260045260246000fd5b7f4e487b7100000000000000000000000000000000000000000000000000000000600052602160045260246000fdfea2646970667358221220c2eff1fd412a7f1116c494e4fdf09cbe80a991dfafee94040d3607762efa124364736f6c634300081a0033",
  "linkReferences": {},
  "deployedLinkReferences": {}
}